:020000040800F2
:100000005852002049010008090500089104000821
:100010000505000891010008170A0008000000000B
:10002000000000000000000000000000A906000819
:10003000F102000800000000910500089507000883
:100040006301000863010008630100086301000800
:1000500063010008630100086301000863010008F0
:1000600063010008630100086301000863010008E0
:1000700063010008630100086301000863010008D0
:1000800063010008630100086301000863010008C0
:1000900063010008630100086301000863010008B0
:1000A00063010008630100086301000863010008A0
:1000B0006301000863010008630100086301000890
:1000C0006301000863010008630100086301000880
:1000D00063010008F90700086301000863010008D4
:1000E0006301000863010008630100086301000860
:1000F0006301000863010008630100086301000850
:10010000630100086301000863010008630100083F
:10011000630100086301000863010008630100082F
:10012000630100086301000863010008630100081F
:10013000DFF810D000F01AF800480047390A00082C
:10014000AFF3008058520020064880470648004719
:10015000FEE7FEE7FEE7FEE7FEE7FEE7FEE7FEE777
:10016000FEE7FEE79907000831010008064C074D3D
:1001700006E0E06840F0010394E807009847103477
:10018000AC42F6D3FFF7D8FFC40A0008E40A00081F
:1001900000BFFEE721B1026842F00102026004E004
:1001A00002684FF6FE731A400260704700B58BB0CC
:1001B0000121084600F0EEF90F4800900F48019029
:1001C0001020029041F2883003900020049080209B
:1001D00005900020069007902020089000020990CA
:1001E00000200A906946064800F00CF801210448F6
:1001F000FFF7D0FF0BB000BD0438014034000020F1
:100200004400024010B50022026847F6F0739A439A
:100210000C6A8B6823430C6923434C6923438C6924
:100220002343CC6923434C6A23438C6A23431A43F8
:100230000260CB6843600B6883604B68C36010BD8D
:1002400010B586B004460121042000F0B3F9012165
:10025000880300F0AFF94FF40070ADF814001820D7
:100260008DF8170003208DF8160005A91E4800F030
:100270007FF84FF48060ADF8140004208DF817006B
:1002800005A9194800F074F801940C20ADF80E008F
:100290000020ADF81000ADF80800ADF80C00ADF886
:1002A0000A0001A9114800F045FB4FF4C06000F0BE
:1002B00065F925208DF8000000208DF801008DF8EB
:1002C000020001208DF80300684600F01FF90122AA
:1002D00040F22551054800F007FB0121034800F0DA
:1002E000C4FA06B010BD000000080140003801400B
:1002F0007047000000204FF0E021086109480068C5
:100300000949B0FBF1F009490860084600684FF45C
:100310007A7148430649086000204FF0E021886167
:10032000704700000000002000DD6D002800002064
:100330002C000020014600200C4A12684A434FF06E
:10034000E0235A6100229A6101221A6100BF4FF036
:10035000E022106900F480321AB900F00102002A8C
:10036000F5D100224FF0E0231A6170472C000020E5
:100370002DE9F0410246002500260020002300243C
:10038000002791F803C00CF00F0591F803C00CF0A2
:10039000100CBCF1000F03D091F802C04CEA050527
:1003A00091F800C0BCF1000F31D0146800202BE0A0
:1003B0004FF0010C0CFA00F3B1F800C00CEA030690
:1003C0009E4220D183004FF00F0C0CFA03F7BC4380
:1003D00005FA03FC4CEA040491F803C0BCF1280FB1
:1003E00006D14FF0010C0CFA00FCC2F814C00AE070
:1003F00091F803C0BCF1480F05D14FF0010C0CFA85
:1004000000FCC2F810C0401C0828D1D31460B1F819
:1004100000C0BCF1FF0F34DD546800202EE000F175
:10042000080C4FF0010808FA0CF3B1F800C00CEA10
:1004300003069E4221D183004FF00F0C0CFA03F704
:10044000BC4305FA03FC4CEA040491F803C0BCF178
:10045000280F05D100F1080C08FA0CF8C2F8148036
:1004600091F803C0BCF1480F07D100F1080C4FF020
:10047000010808FA0CF8C2F81080401C0828CED3F6
:100480005460BDE8F0810AB1016100E0416170474C
:1004900000BFFEE708B50121082000F08BF801211C
:1004A000042000F087F82320ADF8000010208DF81C
:1004B000030002208DF8020069461048FFF758FF3C
:1004C0004FF48070ADF8000010208DF8030002207A
:1004D0008DF8020069460A48FFF74AFF01221146DB
:1004E0000648FFF7D0FF012202210448FFF7CBFFA7
:1004F000012220210148FFF7C6FF08BD000C014082
:100500000008014000BFFEE77047000070B5002101
:1005100000230F22C47804B3154C246804F4E0646B
:10052000C4F5E064210AC1F10403CA40447804FA26
:1005300003F184781440214309010E4C0678A1553B
:10054000047804F01F050124AC4005786D11AD005E
:1005500005F1E025C5F8004109E0047804F01F0525
:100560000124AC40044D0678761145F8264070BD54
:100570000CED00E000E400E080E100E0024901430E
:10058000024A1160704700000000FA050CED00E01F
:100590007047000029B1064A52690243044B5A6170
:1005A00004E0034A52698243014B5A6170470000DC
:1005B0000010024029B1064A92690243044B9A6135
:1005C00004E0034A92698243014B9A61704700003C
:1005D0000010024030B500210022002400232D4DE0
:1005E0006D6805F00C0121B1042905D0082923D13B
:1005F00005E0294D056022E0274D05601FE0254DEF
:100600006D6805F47012234D6D6805F48034022581
:1006100005EB92421CB9214D554305600BE01D4D81
:100620006D6805F400351DB11C4D5543056002E0B1
:10063000194D5543056002E0174D056000BF00BF2E
:10064000144D6D6805F0F0010909154D6B5C0568E6
:10065000DD4045600F4D6D6805F4E061090A104DFD
:100660006B5C4568DD4085600A4D6D6805F460513E
:10067000C90A0B4D6B5C4568DD40C560054D6D6872
:1006800005F44041890B074D6B5CC568B5FBF3F57C
:10069000056130BD0010024000127A0000093D00E3
:1006A0001400002024000020704710B500F002F86C
:1006B00010BD00000CB50020019000903348006888
:1006C00040F480303149086000BF3048006800F4D1
:1006D000003000900198401C0190009818B90198D2
:1006E000B0F5A06FF1D12948006800F4003010B1D6
:1006F0000120009001E0002000900098012843D1E3
:100700002348006840F0100021490860084600684E
:1007100020F0030008600846006840F0020008600E
:100720001A484068194948600846406848600846C9
:10073000406840F4806048600846406820F47C10BF
:1007400048600846406840F4E81048600846006881
:1007500040F08070086000BF0C48006800F0007036
:100760000028F9D00948406820F003000749486094
:100770000846406840F00200486000BF03484068F7
:1007800000F00C000828F9D10CBD00000010024058
:10079000002002407047000010B51348006840F088
:1007A00001001149086008464068104908400E4998
:1007B0004860084600680E4908400B490860084632
:1007C000006820F4802008600846406820F4FE009D
:1007D00048604FF41F008860FFF767FF4FF000602C
:1007E0000449086010BD0000001002400000FFF83E
:1007F000FFFFF6FE08ED00E010B540F2255110486D
:1008000000F048F8012815D10D4800F0FFF80D4917
:100810000D4A128841F822000B480088401C0A4902
:1008200008800846008841F28831884202D10020C1
:100830000549088040F22551014800F007F810BD35
:1008400000380140340000203000002010B50022A4
:10085000002340F66A14A14200D100BF0A1201240D
:100860009440A3B2DC43048010BD21B1828942F4DC
:100870000052828104E082894DF6FF731A40828122
:1008800070471AB1838A0B43838202E0838A8B43C9
:100890008382704770B502460024002300250020A3
:1008A00040F66A16B14200D100BFC1F3421501F013
:1008B0001F03012606FA03F3012D02D19689334066
:1008C00006E0022D02D1168A334001E0968A3340B9
:1008D0000C12012606FA04F41688344013B10CB148
:1008E000012000E0002070BDF0B503460024002682
:1008F0000025002040F66A17B94200D100BF184613
:10090000C1F3421401F01F06012707FA06F5012C76
:1009100001D10C3004E0022C01D1103000E0143081
:100920001AB107682F43076002E00768AF4307600A
:10093000F0BD00002DE9F04786B005460E460024C4
:10094000A24600BFA1460027B08900B100BF2F46D4
:100950002C8A4CF6FF700440F08804432C82AC894A
:100960004EF6F3100440B08831890843718908437A
:100970000443AC81AC8A4FF6FF400440B089044385
:10098000AC8201A8FFF726FE1F48874202D1DDF89E
:1009900010A001E0DDF80CA0A88900F4004040B1EF
:1009A0000AEBCA0000EB0A1031684900B0FBF1F80D
:1009B00007E00AEBCA0000EB0A1031688900B0FBBF
:1009C000F1F86420B8FBF0F004012009642101FB78
:1009D0001089A88900F4004040B1322000EBC90022
:1009E000B0FBF1F000F00700044308E0322000EB18
:1009F00009106421B0FBF1F000F00F0004432C81DA
:100A000006B0BDE8F0870000003801400146888844
:100A1000C0F30800704700BFFEE702E008C8121FDD
:100A200008C1002AFAD170477047002001E001C1D7
:100A3000121F002AFBD170470024FFF72BFD4FF453
:100A4000E130FFF7FDFBFFF7B1FBFFF753FC00BF01
:100A500005E03120184941F82400601C84B241F2BD
:100A600088308442F5DB012280211448FFF709FF1A
:100A700020E0002201211248FFF705FD002220217D
:100A80000F48FFF700FD4FF4FA70FFF753FC012207
:100A900011460B48FFF7F7FC012202210848FFF737
:100AA000F2FC012220210648FFF7EDFC4FF4FA701A
:100AB000FFF740FCDDE70000340000200038014073
:100AC000000C0140E40A000800000020340000008F
:100AD0001A0A0008180B00083400002024520000F5
:100AE0002A0A000800A24A040000000000000000DA
:100AF00001020304060708090000000001020304C4
:100B000001020304060708090204060800000000A9
:080B10000000000000000000DD
:0400000508000131BD
:00000001FF
