:020000040800F2
:100000005804002049010008C5030008BD0300088A
:10001000C1030008910100089908000800000000D1
:100020000000000000000000000000004D04000877
:1000300095010008000000000904000839050008C7
:100040006301000863010008630100086301000800
:1000500063010008630100086301000863010008F0
:1000600063010008630100086301000863010008E0
:1000700063010008630100086301000863010008D0
:1000800063010008630100086301000863010008C0
:1000900063010008630100086301000863010008B0
:1000A00063010008630100086301000863010008A0
:1000B0006301000863010008630100086301000890
:1000C0006301000863010008630100086301000880
:1000D00063010008D10700086301000863010008FC
:1000E0006301000863010008630100086301000860
:1000F0006301000863010008630100086301000850
:10010000630100086301000863010008630100083F
:10011000630100086301000863010008630100082F
:10012000630100086301000863010008630100081F
:10013000DFF810D000F01AF800480047BB080008AC
:10014000AFF3008058040020064880470648004767
:10015000FEE7FEE7FEE7FEE7FEE7FEE7FEE7FEE777
:10016000FEE7FEE73D05000831010008064C074D9B
:1001700006E0E06840F0010394E807009847103477
:10018000AC42F6D3FFF7D8FFD0080008F00800080B
:1001900000BFFEE77047000000204FF0E02108613B
:1001A000094800680949B0FBF1F0094908600846B0
:1001B00000684FF47A7148430649086000204FF008
:1001C000E0218861704700000000002000DD6D0024
:1001D0001400002018000020014600200C4A12687C
:1001E0004A434FF0E0235A6100229A6101221A61CA
:1001F00000BF4FF0E022106900F480321AB900F01D
:100200000102002AF5D100224FF0E0231A61704765
:10021000180000202DE9F0410246002500260020AC
:1002200000230024002791F803C00CF00F0591F87B
:1002300003C00CF0100CBCF1000F03D091F802C009
:100240004CEA050591F800C0BCF1000F31D01468EC
:1002500000202BE04FF0010C0CFA00F3B1F800C0C5
:100260000CEA03069E4220D183004FF00F0C0CFADB
:1002700003F7BC4305FA03FC4CEA040491F803C0FD
:10028000BCF1280F06D14FF0010C0CFA00FCC2F8AB
:1002900014C00AE091F803C0BCF1480F05D14FF03B
:1002A000010C0CFA00FCC2F810C0401C0828D1D385
:1002B0001460B1F800C0BCF1FF0F34DD54680020B9
:1002C0002EE000F1080C4FF0010808FA0CF3B1F829
:1002D00000C00CEA03069E4221D183004FF00F0CB0
:1002E0000CFA03F7BC4305FA03FC4CEA040491F84A
:1002F00003C0BCF1280F05D100F1080C08FA0CF876
:10030000C2F8148091F803C0BCF1480F07D100F186
:10031000080C4FF0010808FA0CF8C2F81080401CD5
:100320000828CED35460BDE8F0810000F0B50A463D
:10033000002300240021002500F00046B6F1004F04
:1003400002D11D4EF16901E01B4E7168C0F30345F7
:1003500083B200F44016B6F5401F08D121F0706159
:10036000154E766826F07066134F7E6012E000F43A
:100370008016B6F5801F06D1032606FA05F4A143C0
:1003800041F0706106E0460D360103FA06F6B1430E
:1003900041F0706122B1460D360103FA06F6314391
:1003A00000F00046B6F1004F02D1034EF16101E0CA
:1003B000014E7160F0BD00000000014000BFFEE78B
:1003C00000BFFEE77047000010B5002408E021469A
:1003D0000C4800F09FF90A20FFF7FEFE601CC4B233
:1003E000642CF4DD00240AE0C4F1640081B2054805
:1003F00000F090F90A20FFF7EFFE601CC4B2642CF5
:10040000F2DD10BD000400407047000029B1064A2B
:10041000D2690243044BDA6104E0034AD2698243A1
:10042000014BDA61704700000010024029B1064A12
:1004300092690243044B9A6104E0034A9269824341
:10044000014B9A617047000000100240704710B5E0
:1004500000F002F810BD00000CB5002001900090E3
:100460003348006840F480303149086000BF3048AC
:10047000006800F4003000900198401C0190009842
:1004800018B90198B0F5A06FF1D12948006800F4BF
:10049000003010B10120009001E000200090009891
:1004A000012843D12348006840F01000214908602A
:1004B0000846006820F0030008600846006840F025
:1004C000020008601A4840681949486008464068B8
:1004D00048600846406840F48060486008464068CC
:1004E00020F47C1048600846406840F4E8104860FA
:1004F0000846006840F08070086000BF0C48006843
:1005000000F000700028F9D00948406820F003008E
:10051000074948600846406840F00200486000BF54
:100520000348406800F00C000828F9D10CBD000019
:1005300000100240002002407047000010B5134830
:10054000006840F001001149086008464068104901
:1005500008400E494860084600680E4908400B49AB
:1005600008600846006820F480200860084640685B
:1005700020F4FE0048604FF41F008860FFF767FF1B
:100580004FF000600449086010BD000000100240F8
:100590000000FFF8FFFFF6FE08ED00E030B589B07F
:1005A00005460C4601210220FFF730FF01210820FB
:1005B000FFF73CFF01210846FFF738FF01211E48E5
:1005C000FFF7B4FE2020ADF8040018208DF80700D6
:1005D00002208DF8060001A91848FFF71BFE06A8A7
:1005E00000F0ECF8681E80B2ADF81C00601E80B20E
:1005F000ADF818000020ADF81A00ADF81E0006A9ED
:100600000F4800F089F802A800F07AF87020ADF8E1
:1006100008000020ADF810000120ADF80A0000200D
:10062000ADF80E0002A9064800F018F801210448B0
:1006300000F008F809B030BD00081A00000C0140B5
:100640000004004021B1028842F00102028004E06F
:1006500002884FF6FE731A400280704770B500247E
:1006600000220023058C4FF6EF7635400584028C7E
:100670008388048B48F6FF752C404FF6FF452C40CD
:100680000D884FF6FF7606EA05252C434FF6DF75F9
:100690002A400D8906EA05152A434D8806EA051504
:1006A0002A43154DA84202D0144DA8421DD14FF641
:1006B0007F752A404D894FF6FF7606EA05152A43D5
:1006C0004FF6BF752A408D8806EA05152A434FF676
:1006D000FF352B404FF2FF752B408D8906EA8505CB
:1006E0002B43CD8906EA85052B4383800483CD887F
:1006F0000587028470BD0000002C014000340140D9
:100700000021018041808180C180018141818181FE
:10071000C181704701877047002202881D4B9842B3
:100720000ED01D4B98420BD0B0F1804F08D01B4B20
:10073000984205D01A4B984202D01A4B984204D1E5
:100740004FF68F731A404B881A43174B984207D0C5
:10075000164B984204D04FF6FF431A40CB881A43F9
:1007600002808B8883850B8803850A4B98420BD0C7
:10077000094B984208D00E4B984205D00D4B984239
:1007800002D00D4B984201D10B7A0386012383825C
:1007900070470000002C014000340140000400407C
:1007A00000080040000C0040001000400014004011
:1007B0000040014000440140004801404FF6FF71F5
:1007C000818000210180C18041800172704700005A
:1007D00010B540F225510E4800F02FF8012811D134
:1007E0000B4800F054F80B490B4A128888540A4809
:1007F0000088401C0849088008460088322801D13A
:100800000020088040F22551014800F007F810BD93
:1008100000380140200000201C00002010B50022FC
:10082000002340F66A14A14200D100BF0A1201243D
:100830009440A3B2DC43048010BD70B5024600248E
:1008400000230025002040F66A16B14200D100BF07
:10085000C1F3421501F01F03012606FA03F3012D2F
:1008600002D19689334006E0022D02D1168A334028
:1008700001E0968A33400C12012606FA04F4168829
:10088000344013B10CB1012000E0002070BD0146DE
:100890008888C0F30800704700BFFEE702E008C880
:1008A000121F08C1002AFAD170477047002001E0EA
:1008B00001C1121F002AFBD17047FFF76DFC4FF4F6
:1008C00034716420FFF76AFE01E0FFF77DFDFCE76D
:1008D000F008000800000020200000009C0800082C
:1008E000100900082000002038040000AC080008AF
:1008F00000A24A04000000000000000001020304FE
:1009000006070809000000000000000000000000C9
:0400000508000131BD
:00000001FF
