:020000040800F2
:10000000B0040020490100083D100008B5040008B4
:1000100039100008E1010008CD17000800000000B9
:100020000000000000000000000000004513000870
:10003000E501000800000000C510000831140008A8
:100040006301000863010008630100086301000800
:1000500063010008630100086301000863010008F0
:1000600063010008630100086301000863010008E0
:1000700063010008630100086301000863010008D0
:1000800063010008630100086301000863010008C0
:1000900063010008630100086301000863010008B0
:1000A00063010008630100086301000863010008A0
:1000B0006301000889150008630100086301000856
:1000C0006301000863010008630100086301000880
:1000D00063010008051700086301000863010008B8
:1000E0006301000863010008630100086301000860
:1000F0006301000863010008630100086301000850
:10010000630100086301000863010008630100083F
:10011000630100086301000863010008630100082F
:10012000630100086301000863010008630100081F
:10013000DFF810D000F042F800480047A919000885
:10014000AFF30080B004002006488047064800470F
:10015000FEE7FEE7FEE7FEE7FEE7FEE7FEE7FEE777
:10016000FEE7FEE73514000831010008D2B201E0D5
:1001700000F8012B491EFBD270470022F6E710B5AC
:1001800013460A4604461946FFF7F0FF204610BD05
:1001900030B50B46014600202022012409E021FA57
:1001A00002F59D4205D303FA02F5491B04FA02F554
:1001B0002844151EA2F10102F1DC30BD064C074DAA
:1001C00006E0E06840F0010394E807009847103427
:1001D000AC42F6D3FFF7B0FF705500089055000809
:1001E00000BFFEE77047000000204FF0E0210861EB
:1001F000094800680949B0FBF1F009490860084660
:1002000000684FF47A7148430649086000204FF0B7
:10021000E0218861704700000000002000DD6D00D3
:10022000140000201800002051B18200A2F1C04249
:10023000126842F001038200A2F1C042136009E09B
:100240008200A2F1C0421268034B1A408300A3F15E
:10025000C0431A6070470000FEFF0F00D0E9011292
:100260001143C26811430269114342691143826913
:100270001143C2691143026A1143426A1143826AFF
:100280001143C26A1143026B114302689200A2F14A
:10029000C0421160816808290BD101688900A1F171
:1002A000C041096841F0400201688900A1F1C041E4
:1002B0000A60416B0968426B526841EA0211426B65
:1002C000926841EA0221426B928941EA0241426B03
:1002D000128A41EA0251426B127D41EA0261426B8D
:1002E000926911430268521C9200A2F1C04211604F
:1002F000C16AB1F5804F1BD1816B0968826B52686E
:1003000041EA0211826B926841EA0221826B128AF1
:1003100041EA0251826B127D41EA0261826B92696D
:10032000114302689200A2F1C042C2F8041107E032
:100330006FF0704201688900A1F1C041C1F8042149
:1003400070472DE9F04102460025002600200023D9
:100350000024002791F803C00CF00F0591F803C0AA
:100360000CF0100CBCF1000F03D091F802C04CEA65
:10037000050591F800C0BCF1000F31D014680020D1
:100380002BE04FF0010C0CFA00F3B1F800C00CEABE
:1003900003069E4220D183004FF00F0C0CFA03F7A6
:1003A000BC4305FA03FC4CEA040491F803C0BCF119
:1003B000280F06D14FF0010C0CFA00FCC2F814C053
:1003C0000AE091F803C0BCF1480F05D14FF0010CD1
:1003D0000CFA00FCC2F810C0401C0828D1D31460ED
:1003E000B1F800C0BCF1FF0F34DD546800202EE0EE
:1003F00000F1080C4FF0010808FA0CF3B1F800C046
:100400000CEA03069E4221D183004FF00F0C0CFA38
:1004100003F7BC4305FA03FC4CEA040491F803C05B
:10042000BCF1280F05D100F1080C08FA0CF8C2F84D
:10043000148091F803C0BCF1480F07D100F1080CFB
:100440004FF0010808FA0CF8C2F81080401C082888
:10045000CED35460BDE8F0814161704701617047BF
:100460002DE9F04180460C461048007820B900F094
:100470008FFE01200D4908702512E6B2A5F1A101F9
:10048000C1EB011202EB411106EB4101A139080257
:10049000C11700EB5171CF10054839182022404692
:1004A00000F04EFE0020BDE8F08100003C0000207E
:1004B0000030180000BFFEE710B504462CB14FF421
:1004C00080510548FFF7C8FF04E04FF4805102480F
:1004D000FFF7C4FF10BD0000001401402DE9F041FA
:1004E00006460F4614461D462B46224639463046E0
:1004F00000F0D6FA04FB05F00249098800F061F922
:10050000BDE8F0814E00002001B502E00098401ED9
:10051000009000980028F9D108BD00002DE9F043B3
:1005200089B080468946174610231A4649464046F8
:1005300000F0B6FA2C2000F05DFD394601A8FFF767
:100540008FFF002422E001A810F814604FF6FF701E
:1005500000EA0626012000EB440001A9085C0643DE
:1005600000250FE04FF400402841304020B10A48F8
:10057000008800F043FD03E00848008800F03EFDDD
:10058000681CC5B2102DEDDB601CC4B2102CDADB88
:1005900009B0BDE8F08300004C0000204E000020B0
:1005A0002DE9F05F804689461646A6F120001FFA25
:1005B00080FA1E49096889881C4A1268D28801FBA2
:1005C00002F0C11700EB5171C1F3C707174800686B
:1005D00000680AFB070B15480068C38813480068C9
:1005E00082884946404600F05BFA2C2000F002FD6C
:1005F000002416E0002510E01BF8040080212941AA
:10060000084020B10A48008800F0F8FC03E00948DF
:10061000008800F0F3FC681CC5B2082DECDB601C00
:10062000C4B2BC42E6DBBDE8F09F000048000020F9
:100630004C0000204E00002070B504460D460026F8
:1006400024E030461349096889880844124909881A
:10065000884205DD00260F480068C088204484B227
:1006600020460C490968C98808440C490988884211
:1006700001DD002600242A7821463046FFF790FF4E
:100680006D1C044800688088304486B228780028B1
:10069000D7D170BD4800002040000020420000205B
:1006A0002DE9F04105460C46002648E020787E28DA
:1006B00025DC30462449096889880844234909888B
:1006C000884205DD002620480068C088284485B29D
:1006D00028461D490968C98808441D490988884277
:1006E00001DD00260025227829463046FFF758FF15
:1006F000154800688088304486B2641C1FE030468C
:10070000103012490988884203DD002605F11000E7
:1007100085B2284610300E490988884201DD00263E
:1007200000252788380200EB272087B23A46294661
:100730003046FFF7F3FE06F1100086B2A41C2078C5
:100740000028B3D1BDE8F08148000020400000201F
:100750004200002000B597B03C2108A8FFF70DFD2E
:100760001C2101A8FFF709FD0121080200F0ACFCE3
:100770000120019004200390800607900020029041
:100780000490059006900890099008200A90102087
:100790000B9000200C900E900F9010904FF4805012
:1007A0001190002012901390149001A815901690AB
:1007B00008A8FFF753FD01210020FFF735FD17B012
:1007C00000BD70B504460D4600262C2000F012FC3A
:1007D00000BF03E0284600F011FC761CA642F9D3C6
:1007E00070BD000008B50121602000F08DFC0320E1
:1007F0008DF8020018208DF803004FF48040ADF80A
:10080000000069465B48FFF79CFD4FF40040ADF8DF
:10081000000069465748FFF794FD0120ADF800003D
:1008200069465448FFF78DFD0220ADF80000694687
:100830005048FFF786FD8020ADF8000069464E481D
:10084000FFF77FFD4FF48070ADF8000069464A481D
:10085000FFF777FD4FF40070ADF800006946464899
:10086000FFF76FFD4FF48060ADF800006946424825
:10087000FFF767FD4FF40060ADF8000069463E48A1
:10088000FFF75FFD4FF48050ADF8000069463A482D
:10089000FFF757FD4FF40050ADF8000069463648A9
:1008A000FFF74FFD4FF48040ADF800006946324835
:1008B000FFF747FD4FF40040ADF8000069462E48B1
:1008C000FFF73FFD4FF48070ADF8000069462948FE
:1008D000FFF737FD4FF40070ADF80000694625487A
:1008E000FFF72FFD4FF48060ADF800006946214806
:1008F000FFF727FD03208DF8020018208DF8030074
:100900001020ADF8000069461A48FFF71AFD2020B4
:10091000ADF8000069461748FFF713FD8020ADF8D9
:10092000000069461348FFF70CFD4FF40060ADF876
:10093000000069460F48FFF704FD10208DF8030002
:1009400003208DF802000220ADF8000069460A4835
:10095000FFF7F7FC10208DF8030003208DF802004C
:100960004FF48050ADF8000069460248FFF7E9FCFB
:1009700008BD0000001401400018014010B50446F5
:10098000072C00DD10BD31480470204604EBD07107
:100990004910A4EB410139B9F0202D4908804FF4EA
:1009A000A0702C49088006E04FF4A0702849088008
:1009B000F02028490880362000F01CFB26480088DB
:1009C00049F24131884205D1082141EA441000F042
:1009D00015FB0AE02048008848F25251884204D1B1
:1009E000002141EA441000F009FB2A2000F002FB3C
:1009F000002000F003FB002000F000FB14490988F0
:100A0000491EC1F3072000F0F9FA11490978491E7F
:100A1000C8B200F0F3FA2B2000F0ECFA002000F04E
:100A2000EDFA002000F0EAFA0A490988491EC1F3EC
:100A3000072000F0E3FA07490978491EC8B200F020
:100A4000DDFA2C2000F0D6FA00BF9BE7440000201E
:100A500040000020420000204600002010B5FFF7B3
:100A6000C1FEFFF777FE0120FFF726FD00F0AEFA8A
:100A700000F046F809480078FFF780FF002000F0FA
:100A8000C9FA4FF4784000F0D1FA4FF4A073F02285
:100A900000210846FFF722FD10BD000044000020A1
:100AA0002DE9F04104460D4616461F462A2000F067
:100AB000A1FA201200F0A2FAE0B200F09FFAA11908
:100AC000491EC1F30F2000F099FAA119491EC8B2BE
:100AD00000F094FA2B2000F08DFA281200F08EFA24
:100AE000E8B200F08BFAE919491EC1F30F2000F0BB
:100AF00085FAE919491EC8B200F080FABDE8F08114
:100B000010B500F025FAFE4908800846008849F231
:100B1000413188427ED1CF2000F06CFA002000F0F5
:100B20006DFA812000F06AFA302000F067FAED20BB
:100B300000F060FA642000F061FA032000F05EFA31
:100B4000122000F05BFA812000F058FAE82000F053
:100B500051FA852000F052FA102000F04FFA782068
:100B600000F04CFACB2000F045FA392000F046FAAC
:100B70002C2000F043FA002000F040FA342000F06E
:100B80003DFA062000F03AFAF72000F033FA202070
:100B900000F034FAEA2000F02DFA002000F02EFADE
:100BA000002000F02BFAB12000F024FA002000F021
:100BB00025FA1B2000F022FAB62000F01BFA0A20CA
:100BC00000F01CFAA22000F019FAC02000F012FA7E
:100BD000352000F013FAC12000F00CFA112000F0CB
:100BE0000DFAC52000F006FA452000F007FA45206E
:100BF00000F004FAC72000F0FDF9A22000F0FEF991
:100C0000F22000F0F7F9002000F0F8F9262000F0BB
:100C1000F1F900E096E0012000F0F0F9E02000F0AA
:100C2000E9F90F2000F0EAF9262000F0E7F9242086
:100C300000F0E4F90B2000F0E1F90E2000F0DEF9FD
:100C4000092000F0DBF9542000F0D8F9A82000F0CA
:100C5000D5F9462000F0D2F90C2000F0CFF917208A
:100C600000F0CCF9092000F0C9F90F2000F0C6F916
:100C7000072000F0C3F9002000F0C0F9E12000F0E7
:100C8000B9F9002000F0BAF9192000F0B7F91B20DB
:100C900000F0B4F9042000F0B1F9102000F0AEF932
:100CA000072000F0ABF92A2000F0A8F9472000F057
:100CB000A5F9392000F0A2F9032000F09FF90620E1
:100CC00000F09CF9062000F099F9302000F096F928
:100CD000382000F093F90F2000F090F9362000F052
:100CE00089F9C82000F08AF92A2000F083F9002051
:100CF00000F084F9002000F081F9002000F07EF976
:100D0000EF2000F07BF92B2000F074F9002000F0B8
:100D100075F9002000F072F9012000F06FF93F2012
:100D200000F06CF93A2000F065F9552000F066F902
:100D3000112000F05FF97348FFF7E6FB292000F06F
:100D400059F901E16E48008848F252518842F8D1C1
:100D5000CF2000F04FF9002000F050F9C12000F042
:100D60004DF9302000F04AF9ED2000F043F96420FD
:100D700000F044F9032000F041F9122000F03EF9A0
:100D8000812000F03BF9E82000F034F9852000F0E4
:100D900035F9102000F032F9782000F02FF9CB203F
:100DA00000F028F9392000F029F92C2000F026F96C
:100DB000002000F023F9342000F020F9022000F098
:100DC0001DF9F72000F016F9202000F017F9EA20AD
:100DD00000F010F9002000F011F9002000F00EF9E9
:100DE000C02000F007F9212000F008F9C12000F030
:100DF00001F9112000F002F9C52000F0FBF82D20C8
:100E000000F0FCF8332000F0F9F8362000F0F2F89A
:100E1000002000F0F3F83A2000F0ECF8552000F044
:100E2000EDF8B12000F0E6F8002000F0E7F8172018
:100E300000F0E4F8B62000F0DDF80A2000F0DEF85B
:100E4000A22000F0DBF8F62000F0D4F8012000F03A
:100E5000D5F8302000F0D2F8F22000F0CBF80020D6
:100E600000F0CCF8262000F0C5F8012000F0C6F80C
:100E7000E02000F0BFF8D02000F0C0F8002000F023
:100E8000BDF8022000F0BAF8072000F0B7F80B20F8
:100E900000F0B4F81A2000F0B1F8312000F0AEF8FC
:100EA000542000F0ABF8402000F0A8F8292000F012
:100EB000A5F8122000F0A2F8122000F09FF81220EE
:100EC00000F09CF8172000F099F8E12000F092F86B
:100ED000D02000F093F8002000F090F8022000F0FD
:100EE0008DF8072000F08AF8052000F087F825200B
:100EF00000F084F82D2000F081F8442004E0000088
:100F000046000020FCBF020000F078F8452000F009
:100F100075F81C2000F072F8182000F06FF8162009
:100F200000F06CF81C2000F069F81D2000F066F855
:100F3000112000F05FF80548FFF7E6FA292000F0DD
:100F400059F82C2000F056F810BD0000FCBF02003C
:100F500010B50024042000F04DF800BF17480088A9
:100F600000BF1648008800F02BF804464FF6FF70CB
:100F700000EA042400F024F8044348F2525084426A
:100F800001D1204610BDD32000F034F800BF0B483B
:100F9000008800BF0948008800F012F804464FF6A8
:100FA000FF7000EA042400F00BF8044349F24130DA
:100FB000844201D12046E5E70020E3E7000002601B
:100FC00001480088704700000000026010B502214F
:100FD0000748FFF741FA40F6FF20FFF795FA022194
:100FE0000348FFF73BFA40F6FF20FFF78DFA10BDEC
:100FF000001801404FF0C041088070470149088047
:10100000704700000000026001480068704700005F
:101010004800002001490880704700004E00002071
:10102000014908607047000048000020014908801D
:10103000704700004C00002000BFFEE77047000032
:1010400070B5002100230F22C47804B3154C246826
:1010500004F4E064C4F5E064210AC1F10403CA4069
:10106000447804FA03F184781440214309010E4CBA
:101070000678A155047804F01F050124AC400578DA
:101080006D11AD0005F1E025C5F8004109E00478D7
:1010900004F01F050124AC40044D0678761145F894
:1010A000264070BD0CED00E000E400E080E100E0CF
:1010B00002490143024A1160704700000000FA052E
:1010C0000CED00E07047000029B1064A5269024366
:1010D000044B5A6104E0034A52698243014B5A614E
:1010E000704700000010024029B1064AD26902434D
:1010F000044BDA6104E0034AD2698243014BDA61AE
:10110000704700000010024029B1064A926902436C
:10111000044B9A6104E0034A92698243014B9A614D
:10112000704700000010024021B1028842F04002E6
:10113000028004E002884FF6BF731A4002807047B5
:1011400070B505460C46164601211048FFF784F994
:10115000032000F06FF8C4F3074000F06BF8C4F30D
:10116000072000F067F8E0B200F064F804E0FF2028
:1011700000F060F828706D1C301EA6F101018EB2DF
:10118000F5D101210148FFF769F970BD0010014058
:1011900000B587B001210803FFF7B6FF0121142035
:1011A000FFF7B2FF0120ADF8040003208DF8060020
:1011B00010208DF8070001A91B48FFF7C2F8E020B6
:1011C000ADF8040018208DF8070001A91748FFF7B3
:1011D000B8F801211448FFF741F90020ADF80800E4
:1011E0004FF48270ADF80A000020ADF80C00022028
:1011F000ADF80E000120ADF810004002ADF812006D
:101200000820ADF814000020ADF816000720ADF856
:10121000180002A9064800F057F801210448FFF71A
:1012200083FF07B000BD000000100140000801402E
:101230000030014010B504464FF480501949086051
:101240000AE018490868411E164A116020B90020BA
:1012500000F058F8C0B210BD0221134800F026F883
:101260000028EED02146104800F02CF84FF48050B2
:101270000C4908600AE00B490868411E094A1160E0
:1012800020B9012000F03EF8C0B2E4E70121064891
:1012900000F00CF80028EED0034800F010F8C0B2BF
:1012A000D9E7000020000020003001400246002065
:1012B00013890B400BB1012000E00020704701466C
:1012C000888970478181704710B50022028802F436
:1012D00041520B884C8823438C882343CC8823437A
:1012E0000C8923434C8923438C892343CC89234392
:1012F0001A430280838B4FF2FF74234083830B8A4F
:10130000038210BD10B50446214602A000F060FA29
:10131000002010BD3C3C2D464C4153482D455252B7
:101320004F522D3E3E2053504920B5C8B4FDB3ACBA
:10133000CAB1216572726F72436F6465203D2025CA
:10134000640A0000704710B500F002F810BD0000FC
:101350000CB50020019000903348006840F48030C4
:101360003149086000BF3048006800F40030009048
:101370000198401C0190009818B90198B0F5A06F31
:10138000F1D12948006800F4003010B1012000902C
:1013900001E0002000900098012843D12348006814
:1013A00040F01000214908600846006820F0030062
:1013B00008600846006840F0020008601A4840686B
:1013C000194948600846406848600846406840F44B
:1013D000806048600846406820F47C1048600846F9
:1013E000406840F4E81048600846006840F08070AB
:1013F000086000BF0C48006800F000700028F9D0B9
:101400000948406820F003000749486008464068E2
:1014100040F00200486000BF0348406800F00C0044
:101420000828F9D10CBD0000001002400020024045
:101430007047000010B51348006840F001001149E2
:10144000086008464068104908400E494860084650
:1014500000680E4908400B4908600846006820F4FF
:10146000802008600846406820F4FE0048604FF481
:101470001F008860FFF767FF4FF0006004490860B5
:1014800010BD0000001002400000FFF8FFFFF6FE54
:1014900008ED00E038B51848007860B317480078C8
:1014A0003C2190FBF1F201FB1200C0B2134908701D
:1014B0000446134800783C2190FBF1F201FB120036
:1014C000C0B20F49087005462B460E4800940278BA
:1014D0000DA1124800F08CF907480078C043064976
:1014E0000870FFF791FDC088C0EBC00084B20B49C3
:1014F0002046FFF7A1F838BD570000205600002015
:10150000550000205400002074696D6520252E329E
:10151000643A252E32643A252E3264008E00002073
:101520007FB505460C4601210220FFF7DDFDADF831
:101530000850ADF804400020ADF80600ADF80A00F0
:1015400001A9104800F08CF8012211460D4800F066
:101550007DF801210B4800F05CF84FF4A060FFF724
:10156000A7FD1D208DF8000002208DF8010000204D
:101570008DF8020001208DF803006846FFF760FD3A
:101580007FBD00000004004010B501211A4800F0A2
:101590004CF801282AD119480078C043174908702F
:1015A00017480078401C16490870084600783C2807
:1015B00007D114480078401C1249087000201049D7
:1015C0000870104800783C2807D10F480078401C6C
:1015D0000D49087000200B4908700B48007818214D
:1015E00090FBF1F201FB120007490870012102484B
:1015F00000F00CF810BD000000040040570000206F
:10160000560000205500002054000020CA430282EA
:10161000704721B1028842F00102028004E0028892
:101620004FF6FE731A400280704730B50246002024
:1016300000230024158A05EA0103958905EA0104BF
:1016400013B10CB1012000E0002030BD1AB1838934
:101650000B43838102E083898B43838170470000C1
:10166000002202881D4B98420ED01D4B98420BD091
:10167000B0F1804F08D01B4B984205D01A4B9842CE
:1016800002D01A4B984204D14FF68F731A404B8800
:101690001A43174B984207D0164B984204D04FF686
:1016A000FF431A40CB881A4302808B8883850B88BE
:1016B00003850A4B98420BD0094B984208D00E4B39
:1016C000984205D00D4B984202D00D4B984201D163
:1016D0000B7A03860123838270470000002C0140AF
:1016E000003401400004004000080040000C0040AD
:1016F0000010004000140040004001400044014040
:101700000048014010B540F225510E4800F02FF876
:10171000012811D10B4800F054F80B490B4A1288EC
:1017200088540A480088401C0849088008460088F8
:10173000322801D10020088040F22551014800F0F4
:1017400007F810BD003801405C0000201C0000209C
:1017500010B50022002340F66A14A14200D100BF58
:101760000A1201249440A3B2DC43048010BD70B57A
:101770000246002400230025002040F66A16B142EC
:1017800000D100BFC1F3421501F01F03012606FA84
:1017900003F3012D02D19689334006E0022D02D1D8
:1017A000168A334001E0968A33400C12012606FA6D
:1017B00004F41688344013B10CB1012000E000207D
:1017C00070BD01468888C0F30800704700BFFEE77F
:1017D0000FB4054B10B503A9044A029800F02CF889
:1017E00010BC5DF814FB0000971900085800002099
:1017F0000FB4084B10B504A902AA039800F01CF816
:10180000044602A9002000F0C1F8204610BC5DF893
:1018100014FB00008D19000802E008C8121F08C15F
:10182000002AFAD170477047002001E001C1121F61
:10183000002AFBD1704700002DE9FF4F89B09B467D
:101840000446002506E025280BD05A460B99904700
:10185000641C6D1C20780028F5D10DB02846BDE829
:10186000F08F0027B8460122474900E0074314F8EB
:10187000013F203B02FA03F00842F7D120782E28DE
:1018800019D114F8010F47F004072A280ED06FF081
:101890002F022078A0F1300109290CD808EB88012B
:1018A00002EB410100EB0108641CF2E70A98641C9A
:1018B00050F8048B0A9020780028CED0642808D0F5
:1018C000692806D075281ED05A460B9990476D1C82
:1018D00058E00A994FF00A0901C90A91002802DA72
:1018E00040422D2102E0390504D52B218DF820102E
:1018F000012103E0F90704D02021F7E78A4608AE6A
:101900000DE00021FAE70A994FF00A0901C90A918E
:10191000F7E74946FEF73CFC303106F8011D002888
:10192000F7D1ADEB060000F12009780701D44FF0A4
:101930000108C84502DDA8EB090000E00020804650
:10194000002706E008A85A46C05D0B9990476D1C19
:101950007F1C5745F6DB04E030205A460B99904730
:101960006D1CB8F10001A8F10108F5DC05E016F8DE
:10197000010B5A460B9990476D1CB9F10001A9F172
:101980000109F4DC641C65E7092801000A68531C9E
:101990000B601070704738B504468DF8000069463A
:1019A0000320ABBE204638BDFEF71EFC41F61F41AA
:1019B00042F20F70FFF7B4FDFFF750F80C48FFF745
:1019C0002FFBFFF721FBC4880AA12046FEF768FE23
:1019D0000A48FFF725FBFFF717FBC0884004040CFB
:1019E00007A12046FEF728FE01E0FFF753FDFCE7C4
:1019F00024000020C4E3BAC3000000002C00002033
:101A000048656C6C6F20576F726C64210000000099
:101A100000000000000000000000000000000000C6
:101A200000000018181818181808000818000000FE
:101A30000000003424242400000000000000000006
:101A40000000000016247F2424247E2424000000AB
:101A5000000000083E6848681C1612127C10100036
:101A600000000061D296740810162949C6000000D3
:101A7000000000003C646438724ACE467F000000DB
:101A800000000018181818000000000000000000F6
:101A900000000004081810303030301010180C040A
:101AA000000000201008080C0404040C0818102082
:101AB000000000080A341C6A080000000000000052
:101AC0000000000000001818187F18181800000007
:101AD000000000000000000000000018180830009E
:101AE0000000000000000000003C000000000000BA
:101AF00000000000000000000000001818000000B6
:101B00000000000206040C0808101020204000000D
:101B1000000000003C6642475B7342663C000000E8
:101B20000000000018784808080808087E00000037
:101B3000000000003C460606040810207E0000005D
:101B4000000000007C0606043C0202067C00000047
:101B5000000000000C1C14246444FF040400000076
:101B6000000000007E6060607E0202067C000000D3
:101B7000000000001E306048764242623C000000D7
:101B8000000000007E0206040C081810300000005F
:101B9000000000003C6242361C6642423C000000ED
:101BA000000000003C664242661A02047800000011
:101BB00000000000000018180000001818000000C5
:101BC000000000000000181800000018180830007D
:101BD00000000000000004183060100C0600000037
:101BE00000000000000000007E007E0000000000F9
:101BF000000000000000301804060C102000000057
:101C0000000000301C06060618100010100000002E
:101C10000000001C224141DDB5A5A5AF94C0403CA9
:101C200000000000181C342426627E43C10000001E
:101C3000000000007C4642467C4242427C0000009C
:101C4000000000001E204040404040603E00000078
:101C5000000000007C4642434343424678000000B7
:101C6000000000007E6060607E6060607E000000BA
:101C7000000000007E6060607E60606060000000C8
:101C8000000000001E604040CE4242623E00000064
:101C900000000000424242427E42424242000000B6
:101CA000000000007E181818181818187E00000090
:101CB000000000007C0404040404044478000000D4
:101CC000000000004244485070584C44420000005C
:101CD0000000000020202020202020203E000000C6
:101CE000000000006266675F5B5BC1C1C10000006D
:101CF00000000000626272525A4A4E4646000000DE
:101D0000000000003C6243C3C3C343623C000000C8
:101D1000000000007C4642424678404040000000FF
:101D2000000000003C6243C3C3C343623C180F0081
:101D3000000000007C6662667C6C646662000000E5
:101D4000000000003E6040601C0602027C000000B3
:101D5000000000007F181818181818181800000044
:101D60000000000042424242424242623C00000007
:101D700000000000C14342622624341C1800000009
:101D800000000000C1C141495B5B7666660000004F
:101D90000000000043663418181C2466C3000000CD
:101DA00000000000C14266341C181818180000001A
:101DB000000000007E02040C181020607E0000006D
:101DC0000000001C10101010101010101010101C2B
:101DD000000000402020101008080C04060200003B
:101DE0000000003C0C0C0C0C0C0C0C0C0C0C0C3CF7
:101DF00000000000181C2462000000000000000029
:101E0000000000000000000000000000000000FFD3
:101E10000000002010000000000000000000000092
:101E20000000000000003C06023E42467A0000002E
:101E30000000004040405C62424242427C000000A0
:101E40000000000000001E20604060203E000000F6
:101E50000000000202023E62424242663A00000076
:101E60000000000000003C62427E40603E00000036
:101E70000000000F1810107E10101010100000004D
:101E80000000000000003F66426658403E43423C6E
:101E90000000004040405C6242424242420000007A
:101EA0000000001818007808080808087E000000E4
:101EB000000000040C007C040404040404040C78F6
:101EC000000000606060626C78706864620000000E
:101ED0000000007808080808080808087E000000CC
:101EE000000000000000764B4B4B4B4B4B000000BA
:101EF0000000000000005C624242424242000000DA
:101F00000000000000003C62424342623C000000CE
:101F10000000000000005C62424242427C404040BF
:101F20000000000000003E62424242663A020202A5
:101F30000000000000006E726360606060000000DE
:101F40000000000000003E20203C06027C00000053
:101F5000000000001010FE10101010101E000000F5
:101F60000000000000004242424242663A00000087
:101F700000000000000043426624341818000000EE
:101F8000000000000000C1C15B5A5E6666000000F0
:101F900000000000000062261C181C2662000000E1
:101FA00000000000000043426624341C181830E092
:101FB0000000000000007E060C1810207E000000CB
:101FC0000000000E18101010307010101010180EB5
:101FD0000000080808080808080808080808080891
:101FE00000000030180808080C0E0808080818300F
:101FF0000000000000000000714B0600000000001F
:1020000000000000000000000000000000000000D0
:1020100000000000000000000000000000000000C0
:1020200000000000000000000000000000000000B0
:10203000000000000000000000000380018001801B
:102040000180018001800180018001800180000009
:10205000000003C003C000000000000000000000FA
:10206000000000000000000000000E700E700E70F6
:102070000C30000000000000000000000000000024
:102080000000000000000000000000000000000050
:1020900000000000000000000000000006180638E4
:1020A00006307FFE0C300C300C300C307FFE0C60A4
:1020B0001C601860186000000000000000000000B4
:1020C000000000000000000000C000C00FF83CC885
:1020D00031C031803D801F8003F001F8031C030CE8
:1020E000031C3FF83FE0070006000000000000006E
:1020F00000000000000000001C007E0E630C63184E
:1021000063307E6000C001800300077C0EE61CC6C1
:1021100018C630C6607C000000000000000000000F
:10212000000000000000000000000FE01CF038700C
:1021300038701C601FC00F003F8C71CC60EC607C5D
:1021400070383CFC1FCE00000000000000000000C2
:102150000000000000000000000003C001800180BA
:1021600001800000000000000000000000000000EE
:10217000000000000000000000000000000000005F
:102180000000000000000000003000E001C00180FD
:1021900003000700060006000E000E000E000E00F1
:1021A000060007000300038001C000E000300000CB
:1021B00000000000000000000C0006000380018009
:1021C00001C000E0006000600070007000700060FE
:1021D000006000E000C00180038006000C000000E9
:1021E00000000000000000000000018011881DB800
:1021F00003C007E03DBC0188018000000000000032
:1022000000000000000000000000000000000000CE
:1022100000000000000000000000000000000000BE
:10222000018001800180018001807FFE01800180AA
:10223000018001800000000000000000000000009C
:10224000000000000000000000000000000000008E
:10225000000000000000000000000000000000007E
:1022600003C003C001C001C003801F0000000000C4
:10227000000000000000000000000000000000005E
:10228000000000000000000000000FF0000000004F
:10229000000000000000000000000000000000003E
:1022A000000000000000000000000000000000002E
:1022B000000000000000000000000000000000001E
:1022C00003C003C003C000000000000000000000C5
:1022D000000000000000000000000018003800307E
:1022E000006000E000C001C00180030003000600A0
:1022F0000E000C001C001800300000000000000060
:102300000000000000000000000001800FF01C38F9
:10231000381C301C707E70EE738E7E0E7C0C300C80
:10232000381C1E780FE000000000000000000000D4
:1023300000000000000000000000000007C01FC0F7
:1023400039C001C001C001C001C001C001C001C04D
:1023500001C03FFC3FFC0000000000000000000046
:102360000000000000000000000003801FF018388B
:102370000038001800380038007001E003800700C2
:102380001C003FFC3FFC00000000000000000000BB
:102390000000000000000000000007801FF000386F
:1023A00000380038003007E007F00038001C001C3F
:1023B000001820F83FE000000000000000000000CE
:1023C00000000000000000000000000000F001B06C
:1023D000033007300E301C30383070307FFE7FFE07
:1023E000003000300030000000000000000000005D
:1023F0000000000000000000000000001FF81800AE
:102400001800180018001FE000F8001C001C001C39
:10241000003800F01FC000000000000000000000B5
:1024200000000000000000000000000003F80F00A2
:102430001C001800300037F83C3C300C300C380CD5
:10244000381C1E380FF000000000000000000000E3
:102450000000000000000000000000003FFC001C25
:10246000001800380070006000E001C001800380A7
:10247000070006000E000000000000000000000041
:102480000000000000000000000003C01FF8381C1E
:10249000381C381C1C380FF007F01C78381C300C26
:1024A000381C3C380FF00000000000000000000065
:1024B0000000000000000000000003801FF038381A
:1024C000301C701C700C380C1FFC0FCC001C00184A
:1024D00000701FE01F8000000000000000000000EE
:1024E00000000000000000000000000000000000EC
:1024F000000003C003C001800000000000000000D5
:1025000003C003C003C00000000000000000000082
:1025100000000000000000000000000000000000BB
:10252000000003C003C001800000000000000000A4
:1025300003C003C001C001C003800F000000000001
:10254000000000000000000000000000000000008B
:10255000003800F001C007001E0038000E000780A0
:1025600001C000700030000000000000000000000A
:10257000000000000000000000000000000000005B
:102580000000000000003FFC000000003FFC3FFC9A
:10259000000000000000000000000000000000003B
:1025A000000000000000000000000000000000002B
:1025B0001C000F00038001E00078001C007001E0A7
:1025C00003800E000C00000000000000000000006E
:1025D000000000000000000000000FC000F0003804
:1025E00000380038003803F00380030003000000C7
:1025F00000000780078000000000000000000000CD
:10260000000000000000000000E007F80C0C1806B5
:102610003006700363F36633C673CC63CC62CC665A
:10262000CCE6C7FCE0006000700038101FF000002E
:1026300000000000000000000000000003C007E0F0
:1026400006E00E700E700C301C3818183FFC3FFC72
:10265000700E600EE00700000000000000000000A7
:102660000000000000000000000000003FF03838CB
:10267000381C381C38383FF03FF8381C380C380C00
:10268000381C3FF83FE000000000000000000000A0
:102690000000000000000000000000E007FC1E0435
:1026A00038003800300070007000700030003800D2
:1026B0003C001F9C07FC0000000000000000000020
:1026C0000000000000000000000000003FF0307833
:1026D000301C300C300E300E300E300E300E301CF0
:1026E00030383FF03FC00000000000000000000054
:1026F0000000000000000000000000001FF81800AB
:102700001800180018001FF81FF81800180018000B
:1027100018001FF81FF80000000000000000000073
:102720000000000000000000000000001FF818007A
:102730001800180018001FF81FF8180018001800DB
:102740001800180018000000000000000000000041
:102750000000000000000000000000F007FC1E0464
:10276000380030007000700070FC700C700C300C81
:10277000380C1F1C07FC00000000000000000000D7
:10278000000000000000000000000000300C300CD1
:10279000300C300C300C3FFC3FFC300C300C300C5B
:1027A000300C300C300C0000000000000000000075
:1027B0000000000000000000000000003FFC01805D
:1027C0000180018001800180018001800180018001
:1027D00001803FFC3FFC0000000000000000000002
:1027E0000000000000000000000000001FF00030AA
:1027F0000030003000300030003000300030003059
:1028000000701DE01FC0000000000000000000007C
:10281000000000000000000000000000381C3870BC
:1028200038E039C03B803F003F003B8039C038E092
:1028300038703838381C000000000000000000002C
:102840000000000000000000000000001C001C0050
:102850001C001C001C001C001C001C001C001C0098
:102860001C001FFC1FFC0000000000000000000016
:10287000000000000000000000000000381C7C3C4C
:102880006C3E6E6E666E66CE63C66386618660065B
:102890006006600660060000000000000000000006
:1028A0000000000000000000000000003C0C3C0C98
:1028B0003E0C360C330C338C318C31CC30EC306C1C
:1028C000307C303C301C00000000000000000000A4
:1028D0000000000000000000000001C00FF81C3CD8
:1028E000381C700E700E60066006700E700E700C54
:1028F000381C1E780FE000000000000000000000FF
:102900000000000000000000000000003FF0383C24
:10291000381C380C380C381C38783FE03800380048
:1029200038003800380000000000000000000000FF
:102930000000000000000000000001C00FF81C3C77
:10294000381C700E700E60066006700E700E700CF3
:10295000381C1E780FE0018001C000FF003C000021
:102960000000000000000000000000003FF03838C8
:1029700038183818383838F03FC038E038703838F0
:102980003838381C380E000000000000000000003D
:102990000000000000000000000001E00FF8380017
:1029A000380038003C001F8003F00078001C001C39
:1029B000001C38783FE0000000000000000000002C
:1029C0000000000000000000000000007FFE018009
:1029D00001800180018001800180018001800180EF
:1029E0000180018001800000000000000000000064
:1029F000000000000000000000000000300C300C5F
:102A0000300C300C300C300C300C300C300C300CE6
:102A1000381C1C380FF0000000000000000000000F
:102A2000000000000000000000000000E006700E42
:102A3000700E381C381C1C181C380C300E700660C8
:102A400007E003C003C00000000000000000000019
:102A500000000000000000000000000060066006AA
:102A6000600660066186638673C673CE766C366CCC
:102A70003C3C3C3C381C0000000000000000000012
:102A8000000000000000000000000000301C3818AA
:102A90001C380E7007E003C003C007E00E701C383E
:102AA0001838381C700E0000000000000000000004
:102AB000000000000000000000000000700E700C1C
:102AC000381C1C380E70066007E003C001800180CE
:102AD0000180018001800000000000000000000073
:102AE0000000000000000000000000003FFC001C8F
:102AF0000038007000E001C0038007000E000C00E9
:102B000018003FFC3FFC0000000000000000000037
:102B1000000000000000000007F007F006000600BB
:102B20000600060006000600060006000600060075
:102B300006000600060006000600060007F000007A
:102B40000000000000000000000018001C000C0045
:102B50000600070003000380018001C000C0006080
:102B60000070003000380018000C00000000000069
:102B700000000000000000000FE00FE000600060B7
:102B80000060006000600060006000600060006045
:102B90000060006000600060006000600FE0000006
:102BA00000000000000000000000000003C006C09C
:102BB00006600C301818301C0000000000000000F7
:102BC0000000000000000000000000000000000005
:102BD00000000000000000000000000000000000F5
:102BE00000000000000000000000000000000000E5
:102BF000000000000000000000000000FFFF0000D7
:102C0000000000000000000000001E000380000023
:102C100000000000000000000000000000000000B4
:102C200000000000000000000000000000000000A4
:102C30000000000000000000000000000000000094
:102C400000001FF01038001C001C0FFC1C1C381C5E
:102C5000381C3CFC1FDC00000000000000000000ED
:102C600000000000000000000000380038003800BC
:102C700038003BF83E1C3C1C380C380C380C380C27
:102C8000381C3C781FE0000000000000000000003D
:102C90000000000000000000000000000000000034
:102CA000000007F80E001C0038003800380038001B
:102CB0001C000F1807F800000000000000000000D2
:102CC00000000000000000000000001C001C001CB0
:102CD000001C0FFC1C1C381C301C301C301C301C11
:102CE000383C1CFC0F9C00000000000000000000AD
:102CF00000000000000000000000000000000000D4
:102D000000000FF01C38381C300C3FFC3000300045
:102D100038001E0C07FC000000000000000000004E
:102D20000000000000000000003C01FE03800300E2
:102D3000030003007FFC7FFC03000300030003008B
:102D4000030003000300000000000000000000007A
:102D50000000000000000000000000000000000073
:102D600000000FFE1C383818381818381FF03B8048
:102D700030003FF01FFC300E700E381C1FF80000B2
:102D8000000000000000000000003800380038009B
:102D900038003BF83E383C1C381C381C381C381CAA
:102DA000381C381C381C0000000000000000000027
:102DB0000000000000000000018003C003C000000C
:102DC00000001FC001C001C001C001C001C001C09E
:102DD00001C001C03FFC0000000000000000000036
:102DE00000000000000000000020007000700000E3
:102DF00000003FF000700070007000700070007004
:102E00000070007000700070007020E03FC0000093
:102E1000000000000000000000001800180018006A
:102E20001800183C187018E01B801F001B8019E068
:102E300018701838181C0000000000000000000086
:102E4000000000000000000000001FC001C001C021
:102E500001C001C001C001C001C001C001C001C06A
:102E600001C001C03FFC00000000000000000000A5
:102E70000000000000000000000000000000000052
:102E800000006F3C79EE71CE718E718E718E718EF5
:102E9000718E718E718E0000000000000000000035
:102EA0000000000000000000000000000000000022
:102EB00000003BF83E383C1C381C381C381C381CC1
:102EC000381C381C381C0000000000000000000006
:102ED00000000000000000000000000000000000F2
:102EE00000000FF01C3C381C700E700E700E700C41
:102EF000381C1E780FE000000000000000000000F9
:102F000000000000000000000000000000000000C1
:102F100000003BF83E1C3C1C380C380C380C380CBC
:102F2000381C3C783FE0380038003800380000009A
:102F30000000000000000000000000000000000091
:102F400000000FFC1C1C381C301C301C301C301CBA
:102F5000383C1CFC0F9C001C001C001C001C0000CA
:102F60000000000000000000000000000000000061
:102F7000000019F81F1C1C0C180E1800180018006F
:102F800018001800180000000000000000000000F9
:102F90000000000000000000000000000000000031
:102FA00000000FF81C0018001E000FC001F80018E8
:102FB000001818381FF0000000000000000000009A
:102FC00000000000000000000000000006000600F5
:102FD00006007FFC0600060006000600060006004C
:102FE0000700078401FC0000000000000000000052
:102FF00000000000000000000000000000000000D1
:103000000000381C381C381C381C381C381C381C74
:10301000383C1CFC0FDC0000000000000000000039
:1030200000000000000000000000000000000000A0
:103030000000700C381C38181C380C300E700660FC
:1030400007E003C003C00000000000000000000013
:103050000000000000000000000000000000000070
:103060000000600660066186738E73CC33CC366CCC
:10307000366C3C3C3C3800000000000000000000C2
:103080000000000000000000000000000000000040
:103090000000381C1C380E7007E003C003C007E0B6
:1030A0000E701C38381E00000000000000000000F8
:1030B0000000000000000000000000000000000010
:1030C0000000700C381C38181C380C300E7006606C
:1030D00007E003C003C0038007000E007C0000006F
:1030E00000000000000000000000000000000000E0
:1030F00000001FF80038007000E001C003800700E6
:103100000C001FFC3FFC000000000000000000005D
:103110000000000000000000007801F80380038038
:1031200003800380038003003F003E000300038010
:103130000380038003800380038001C000F8000047
:103140000000000001800180018001800180018079
:103150000180018001800180018001800180018067
:1031600001800180018001800180018001800000D8
:1031700000000000000000001E001F80018001C050
:1031800001C001C001C000C000FC007C00C001C043
:1031900001C001C001C001C001C003801F000000C8
:1031A000000000000000000000000000000000001F
:1031B0000000000000001C003F0671CE60FC000013
:1031C00000000000000000000000000000000000FF
:1031D00000000000000000000000000000000000EF
:1031E00000000000000000000000000000000000DF
:1031F00000000000000000000000000000000000CF
:1032000000000000000000000000000000000000BE
:1032100000000000000000000000000000000000AE
:10322000000000000000000000000000000000009E
:10323000000000000000000000000000000000008E
:103240000000003C00003C00003C00003C00003C52
:1032500000003C00003C00003C00003C00003C0042
:10326000003C00003C00003C00003C00000000006E
:103270000000003C00007E00003C00000000000058
:10328000000000000000000000000000000000003E
:10329000000000000000000000000000000000002E
:1032A000000003C3E003C3E003C3C003C3C003C300
:1032B000C003C3C003C1C000000000000000000044
:1032C00000000000000000000000000000000000FE
:1032D00000000000000000000000000000000000EE
:1032E00000000000000000000000000000000000DE
:1032F00000000000000000000000000000000000CE
:10330000000000000000000001E0E001C0E001C09A
:10331000E001C0E03FFFFE3FFFFE03C1C00381C0EC
:103320000381C00381C07FFFFC7FFFFC0783800710
:103330000380070380070380070780000000000068
:10334000000000000000000000000000000000007D
:10335000000000000000000000000000000000006D
:103360000700000F00000E0001FFF007FFF01F0E26
:10337000001E1E001E1C001E1C000FDC0007FC00AF
:1033800000FF80003FF00038F800387800783C00FB
:1033900070783071F83FFFE01FFF0000E00000E0B0
:1033A0000000E0000000000000000000000000003D
:1033B000000000000000000000000000000000000D
:1033C00000000F800F3FE01E78703C7070707070CE
:1033D000E07071C03FE3801FC700000E00001C00BA
:1033E00000780000F0F001E7FC03CF0E078E0E0F0F
:1033F0000E0E1E0E0E3C07BC7003F800000000000D
:1034000000000000000000000000000000000000BC
:1034100000000000000000000000000000000000AC
:10342000000000000001FF0007FF800F03C00F0332
:10343000C00F03C00F0780079F0003FE0003F000CA
:103440000FF83C3E7C3C3C1F3C780FF87807F87C3A
:1034500001F03E03F81FFFFC07FE1F000000000004
:10346000000000000000000000000000000000005C
:10347000000000000000000000000000000000004C
:103480000000003E00003C00003C00003C00003C0E
:1034900000003C00003C00000000000000000000B4
:1034A000000000000000000000000000000000001C
:1034B000000000000000000000000000000000000C
:1034C00000000000000000000000000000000000FC
:1034D00000000000000000000000000000000000EC
:1034E00000800001C0000780000F00001E00003CAB
:1034F0000000780000F00000E00001E00001E000C2
:1035000001C00003C00003C00001C00001E00001D1
:10351000E00000F00000F000007800003C00001E19
:1035200000000F000007C00001C000000000000004
:10353000000000000000000000000000000000008B
:10354000000003C00001E00000F000007C00003E2D
:1035500000001E00000F00000780000780000380AD
:103560000003C00003C00003C00003C000038000CC
:103570000780000780000F00001E00003C0000785C
:103580000000F00001E000038000000000000000E7
:10359000000000000000000000000000000000002B
:1035A0000000001C00001C000018000F18F007DBD2
:1035B000E0007F0000FF0007DBE00E18700018003D
:1035C000001C00001C0000000000000000000000C3
:1035D00000000000000000000000000000000000EB
:1035E00000000000000000000000000000000000DB
:1035F00000000000000000000000000000000000CB
:1036000000000000000000000000000000000000BA
:1036100000003C00003C00003C00003C00003C007E
:10362000003C003FFFFC3FFFFC003C00003C000072
:103630003C00003C00003C000000000000000000D6
:10364000000000000000000000000000000000007A
:10365000000000000000000000000000000000006A
:10366000000000000000000000000000000000005A
:10367000000000000000000000000000000000004A
:10368000000000000000000000000000000000003A
:103690007C00007E00007E00003E00001E00003C1A
:1036A0000000F80007E00004000000000000000037
:1036B000000000000000000000000000000000000A
:1036C00000000000000000000000000000000000FA
:1036D00000000000000000000000000000000000EA
:1036E00000000003FFE003FFE00000000000000016
:1036F00000000000000000000000000000000000CA
:1037000000000000000000000000000000000000B9
:1037100000000000000000000000000000000000A9
:103720000000000000000000000000000000000099
:103730000000000000000000000000000000000089
:103740000000000000000000000000000000000079
:103750007C0000FE0000FE00007E00000000000073
:103760000000000000000000000000000000000059
:103770000000000000000000000000000000000049
:1037800000000000780000F00000E00001E000030D
:10379000C0000380000780000F00000E00001E0024
:1037A000003C0000380000700000F00000E0000164
:1037B000C00003C0000780000700000F00001E00CB
:1037C000001C0000000000000000000000000000DD
:1037D00000000000000000000000000000000000E9
:1037E000000000000000000001FFC007FFE00F0024
:1037F000F01E00781E003C3C00FC3C07FC3C1FBC5B
:103800003C7C1C3DF03C3FC03C3F003C1E00381E51
:1038100000780F80F007FFE001FF8000000000004B
:103820000000000000000000000000000000000098
:103830000000000000000000000000000000000088
:103840000000000000000000007E0003FE001FDEFC
:10385000000E1E00001E00001E00001E00001E00C4
:10386000001E00001E00001E00001E00001E0000C2
:103870001E00001E000FFFF80FFFF8000000000000
:103880000000000000000000000000000000000038
:103890000000000000000000000000000000000028
:1038A000000000000000000003FF800FFFE00E0199
:1038B000F00000F00000F00000F00000F00001E077
:1038C0000003C0000F80003E00007C0001F00003F8
:1038D000C0000F80001FFFFC1FFFFC000000000065
:1038E00000000000000000000000000000000000D8
:1038F00000000000000000000000000000000000C8
:1039000000000000000000000FFF800FFFE000013A
:10391000E00000F00000F00001E00003C001FF0043
:1039200001FFC00003F0000078000078000078007C
:1039300000780001F00FFFC00FFF00000000000042
:103940000000000000000000000000000000000077
:103950000000000000000000000000000000000067
:103960000000000000000000000FC0001FC0003F6A
:10397000C0007BC000F3C001E3C003C3C00783C025
:103980000F03C01C03C03803C07FFFFE7FFFFE0093
:1039900003C00003C00003C00003C000000000001B
:1039A0000000000000000000000000000000000017
:1039B0000000000000000000000000000000000007
:1039C00000000000000000000FFFE00FFFE00F000C
:1039D000000F00000F00000F00000F00000FFF801D
:1039E0000FFFE00000F00000780000780000780091
:1039F00000F00003E00FFFC00FFE00000000000019
:103A000000000000000000000000000000000000B6
:103A100000000000000000000000000000000000A6
:103A20000000000000000000003FF001FFF003E094
:103A3000000780000F00001E00001E1F001FFFE097
:103A40001FC1F81E00781E003C1E003C1E003C0FEB
:103A500000780F80F807FFE001FF80000000000001
:103A60000000000000000000000000000000000056
:103A70000000000000000000000000000000000046
:103A800000000000000000001FFFFC1FFFFC000002
:103A9000780000F00000E00001E00003C0000780B3
:103AA000000F00000F00001E00003C000078000026
:103AB000F00001F00001E00003C000000000000081
:103AC00000000000000000000000000000000000F6
:103AD00000000000000000000000000000000000E6
:103AE000000000000000000003FFE00FE3F00F0003
:103AF000781E00781E00780F00F007E3E001FF80D9
:103B000001FF8007E7E00F00F81E00781E003C1E52
:103B1000007C1F00F80FFFF003FFC0000000000052
:103B20000000000000000000000000000000000095
:103B30000000000000000000000000000000000085
:103B4000000000000000000003FF800FC7E01E001F
:103B5000F01E00783C00783C00783C00381E00786D
:103B60000FEFF807FFB80000780000780000F000C1
:103B700001E0000FC00FFF000FF000000000000088
:103B80000000000000000000000000000000000035
:103B90000000000000000000000000000000000025
:103BA0000000000000000000000000000000000015
:103BB00000000000007E00007E00007E0000180073
:103BC00000000000000000000000000000000000F5
:103BD0003C00007E00007E00003E0000000000006F
:103BE00000000000000000000000000000000000D5
:103BF00000000000000000000000000000000000C5
:103C000000000000000000000000000000000000B4
:103C100000000000007E00007E00007E0000180012
:103C20000000000000000000000000000000000094
:103C30003E00007E00007F00001F00001E00001EEE
:103C40000000FC0007F0000400000000000000007D
:103C50000000000000000000000000000000000064
:103C60000000000000000000000000000000000054
:103C7000400001E00007C0001F00007E0001F800C6
:103C800003E0000F80000F800003E00000F8000058
:103C90003E00000F800003E00000E0000000000094
:103CA0000000000000000000000000000000000014
:103CB0000000000000000000000000000000000004
:103CC00000000000000000000000000000000000F4
:103CD000000000000000000000000000001FFFF8CE
:103CE0000000000000000000001FFFF81FFFF800A8
:103CF00000000000000000000000000000000000C4
:103D000000000000000000000000000000000000B3
:103D100000000000000000000000000000000000A3
:103D20000000000000000000000000000000000093
:103D30000007800003E00000F800003E00000F8054
:103D40000003E00000F80001F00007C0001F0000C1
:103D50007C0001F00007C00003000000000000002C
:103D60000000000000000000000000000000000053
:103D70000000000000000000000000000000000043
:103D8000000001C00001FE00007F800007C00001AC
:103D9000E00000F00000F00001F00003E0007FC050
:103DA000007E000070000070000070000000000045
:103DB000000000F80000F80000F80000000000001B
:103DC00000000000000000000000000000000000F3
:103DD00000000000000000000000000000000000E3
:103DE0000000001F8000FFF003C07807801C0E0059
:103DF0000E1C000E3C000F383FC778FFC770E3C7AA
:103E000071C3C7F3C387E3C387E3878EE3878EE37A
:103E1000CF8EE3FFFC71F9F07000007000003800F5
:103E2000003C00000F01C007FFC0000000000000C0
:103E30000000000000000000000000000000000082
:103E40000000000000000000007E00007F0000FF76
:103E50000000E78001E78003C3C003C3C00781E01F
:103E60000781E00F00F00F00F81FFFF81FFFFC3C78
:103E7000003C3C001E78001EF0000F000000000017
:103E80000000000000000000000000000000000032
:103E90000000000000000000000000000000000022
:103EA00000000000000000001FFFC01FFFF01E0008
:103EB000F01E00781E00781E00F01E01F01FFFC0EB
:103EC0001FFFE01E01F81E00781E003C1E003C1E75
:103ED00000781E00F81FFFE01FFF00000000000038
:103EE00000000000000000000000000000000000D2
:103EF00000000000000000000000000000000000C2
:103F0000000000000000000000FFF803FFF807C0F9
:103F1000000F00001E00001E00003C00003C0000DE
:103F20003C00003C00003C00003E00001E00000F72
:103F300000000FC00803FFF800FFF80000000000B9
:103F40000000000000000000000000000000000071
:103F50000000000000000000000000000000000061
:103F600000000000000000003FFF003FFFE03C01B8
:103F7000F03C00783C003C3C003C3C003C3C001EDB
:103F80003C001E3C001E3C003C3C003C3C00783C9D
:103F900000F83C07E03FFFC03FFC000000000000CD
:103FA0000000000000000000000000000000000011
:103FB0000000000000000000000000000000000001
:103FC00000000000000000000FFFF00FFFF00F00E6
:103FD000000F00000F00000F00000F00000FFFF0A7
:103FE0000FFFF00F00000F00000F00000F00000F88
:103FF00000000F00000FFFF00FFFF00000000000B6
:1040000000000000000000000000000000000000B0
:1040100000000000000000000000000000000000A0
:1040200000000000000000000FFFF00FFFF00F0085
:10403000000F00000F00000F00000F00000FFFF046
:104040000FFFF00F00000F00000F00000F00000F27
:1040500000000F00000F00000F0000000000000033
:104060000000000000000000000000000000000050
:104070000000000000000000000000000000000040
:10408000000000000000000000FFFC03FFFC0FC068
:10409000041F00001E00003C00003C0000780FFCE4
:1040A000780FFC78003C3C003C3C003C3E003C1F50
:1040B000003C0FC03C03FFFC00FFF80000000000C4
:1040C00000000000000000000000000000000000F0
:1040D00000000000000000000000000000000000E0
:1040E00000000000000000003C003C3C003C3C00A4
:1040F0003C3C003C3C003C3C003C3C003C3FFFFC6A
:104100003FFFFC3C003C3C003C3C003C3C003C3C59
:10411000003C3C003C3C003C3C003C0000000000FB
:10412000000000000000000000000000000000008F
:10413000000000000000000000000000000000007F
:1041400000000000000000000FFFF80FFFF8003C27
:1041500000003C00003C00003C00003C00003C0033
:10416000003C00003C00003C00003C00003C000023
:104170003C00003C000FFFF80FFFF80000000000BB
:10418000000000000000000000000000000000002F
:10419000000000000000000000000000000000001F
:1041A00000000000000000000FFFE00FFFE0000132
:1041B000E00001E00001E00001E00001E00001E0BA
:1041C0000001E00001E00001E00001E00001E0008A
:1041D00003C00C07C00FFF8007FE000000000000B6
:1041E00000000000000000000000000000000000CF
:1041F00000000000000000000000000000000000BF
:1042000000000000000000001E00781E01F01E03E8
:10421000C01E07801E1F001E3C001E78001EF000FE
:104220001FF0001EF8001E3C001E1E001E0F801E08
:1042300007C01E01E01E00F81E007C000000000008
:10424000000000000000000000000000000000006E
:10425000000000000000000000000000000000005E
:1042600000000000000000000780000780000780B9
:10427000000780000780000780000780000780009B
:104280000780000780000780000780000780000784
:10429000800007800007FFF807FFF800000000001B
:1042A000000000000000000000000000000000000E
:1042B00000000000000000000000000000000000FE
:1042C00000000000000000003E007C3F00FC3F8139
:1042D000DC3B81DC3BC39C39C39C38E71C38EF1CBA
:1042E000387E1C387C1E383C1E78001E78001E78F4
:1042F000001E78001E78001E78001E0000000000DE
:1043000000000000000000000000000000000000AD
:10431000000000000000000000000000000000009D
:1043200000000000000000001F003C1F803C1FC078
:104330003C1DC03C1DE03C1CF03C1C783C1C783C07
:104340001C3C3C1C1E3C1C0F3C1C0F3C1C07BC1C9A
:1043500003FC1C01FC1C00FC1C00FC000000000015
:10436000000000000000000000000000000000004D
:10437000000000000000000000000000000000003D
:10438000000000000000000001FFC007FFF00F0068
:10439000F81E007C3C003C3C001E78001E78001E8D
:1043A00078001E78001E78001E3C003C3C003C1E3D
:1043B00000781F00F007FFE001FF80000000000010
:1043C00000000000000000000000000000000000ED
:1043D00000000000000000000000000000000000DD
:1043E00000000000000000001FFF801FFFF01E0003
:1043F000F81E007C1E003C1E003C1E003C1E007887
:104400001E03F01FFFC01FFE001E00001E00001E46
:1044100000001E00001E00001E0000000000000042
:10442000000000000000000000000000000000008C
:10443000000000000000000000000000000000007C
:10444000000000000000000001FFC007FFF00F00A7
:10445000F81E007C3C003C3C001E78001E78001ECC
:1044600078001E78001E78001E3C003C3C003C1E7C
:1044700000781F80F007FFE001FF80003C00003C57
:1044800000001F06000FFF0001F800000000000000
:10449000000000000000000000000000000000001C
:1044A00000000000000000000FFF800FFFE00E0181
:1044B000F00E00F00E00F00E00F00E01F00FFFC045
:1044C0000FFF000E1F000E07800E03C00E01E00E4E
:1044D00000F00E00F80E00780E003C000000000016
:1044E00000000000000000000000000000000000CC
:1044F00000000000000000000000000000000000BC
:10450000000000000000000003FFF00FFFF01F009C
:10451000001E00001E00001F00000FC00007FC006E
:1045200000FF80000FF00001F80000780000780024
:1045300000782000F83FFFE03FFF8000000000000F
:10454000000000000000000000000000000000006B
:10455000000000000000000000000000000000005B
:1045600000000000000000003FFFFC3FFFFC003C9B
:1045700000003C00003C00003C00003C00003C000F
:10458000003C00003C00003C00003C00003C0000FF
:104590003C00003C00003C00003C0000000000002B
:1045A000000000000000000000000000000000000B
:1045B00000000000000000000000000000000000FB
:1045C00000000000000000003C003C3C003C3C00BF
:1045D0003C3C003C3C003C3C003C3C003C3C003C47
:1045E0003C003C3C003C3C003C3C003C3C003C1E55
:1045F00000781F00F80FFFE003FF800000000000BC
:1046000000000000000000000000000000000000AA
:10461000000000000000000000000000000000009A
:104620000000000000000000F8000F78001E3C00B1
:104630001E3C003C1E00381E00780F00700F00F07A
:104640000781E00781E003C3C003E3C001E7800006
:10465000F78000FF00007E00007E000000000000E8
:10466000000000000000000000000000000000004A
:10467000000000000000000000000000000000003A
:10468000000000000000000078000E78000E7800A6
:104690000E78001E38001E38001E383C1C383C1CAA
:1046A000387E1C387F1C3CE71C3CE79C3DC39C1DAE
:1046B000C3DC1F81DC1F80F81F00F8000000000031
:1046C00000000000000000000000000000000000EA
:1046D00000000000000000000000000000000000DA
:1046E00000000000000000003C003C1E00780F00AD
:1046F000F00781E003C3C001E78000FF00007E00F7
:10470000007E0000FF0001FF8003E7C007C3E00F49
:1047100081F01F00F83E007C7C003E00000000009D
:104720000000000000000000000000000000000089
:104730000000000000000000000000000000000079
:10474000000000000000000078001F3C003E1E003A
:104750007C1F00780F80F007C1E003E3C001E78011
:1047600000FF00007E00003C00003C00003C000018
:104770003C00003C00003C00003C00000000000049
:104780000000000000000000000000000000000029
:104790000000000000000000000000000000000019
:1047A00000000000000000001FFFFC1FFFFC0000D5
:1047B000F80001E00003C0000780000F00001E00A9
:1047C000003C0000780000F00003E00007C0000F8C
:1047D00080001F00003FFFFC3FFFFC0000000000C6
:1047E00000000000000000000000000000000000C9
:1047F00000000000000000000000000000000000B9
:10480000000001FFC001FFC001E00001E00001E085
:104810000001E00001E00001E00001E00001E00033
:1048200001E00001E00001E00001E00001E0000122
:10483000E00001E00001E00001E00001E00001E033
:104840000001E00001E00001FFC0000000000000E6
:104850000000000000000000000000000000000058
:1048600000000E00000F000007000003800003C0DE
:104870000001E00000E00000F000007800003800D7
:10488000003C00001E00000E00000F00000780002A
:1048900003800001C00001E00000E00000700000A3
:1048A0007800003C00000000000000000000000054
:1048B00000000000000000000000000000000000F8
:1048C000000003FF8003FF800007800007800007CF
:1048D00080000780000780000780000780000780B5
:1048E0000007800007800007800007800007800025
:1048F000078000078000078000078000078000070E
:104900008000078000078003FF8000000000000097
:104910000000000000000000000000000000000097
:104920000000000000000000003C00007E0000E7E6
:104930000001C3800381C00700E00E00F01E007874
:104940000000000000000000000000000000000067
:104950000000000000000000000000000000000057
:104960000000000000000000000000000000000047
:104970000000000000000000000000000000000037
:104980000000000000000000000000000000000027
:104990000000000000000000000000000000000017
:1049A0000000000000000000000000000000000007
:1049B00000000000000000000000000000000000F7
:1049C00000000000FFFFFFFFFFFF000000000000ED
:1049D00000000000000000000000000000000000D7
:1049E00000000F800003E00000F800003C00000021
:1049F00000000000000000000000000000000000B7
:104A000000000000000000000000000000000000A6
:104A10000000000000000000000000000000000096
:104A20000000000000000000000000000000000086
:104A30000000000000000000000000000000000076
:104A40000000000000000000000000000000000066
:104A50000000000007FFC007E7F00000F00000784A
:104A600000007800FFF807FFF80F00781E00781E9E
:104A700000781E03F80FFFF807FC78000000000024
:104A80000000000000000000000000000000000026
:104A90000000000000000000000000000000000016
:104AA00000001E00001E00001E00001E00001E0070
:104AB000001E00001E7FE01EFFF01FC0781F007860
:104AC0001E003C1E003C1E003C1E003C1E00381E0A
:104AD00000781E00F01FFFE007FF0000000000004C
:104AE00000000000000000000000000000000000C6
:104AF00000000000000000000000000000000000B6
:104B000000000000000000000000000000000000A5
:104B10000000000000FFF003FFF007C0000F80005E
:104B20000F00001E00001E00001E00000F00000FFE
:104B3000800007C00003FFF000FFF000000000004D
:104B40000000000000000000000000000000000065
:104B50000000000000000000000000000000000055
:104B60000000000078000078000078000078000065
:104B70007800007801FFF807FFF80F00781E007832
:104B80001E00783C00783C00783C00781C00781EC1
:104B900001F81F03F80FFF7803FC78000000000005
:104BA0000000000000000000000000000000000005
:104BB00000000000000000000000000000000000F5
:104BC00000000000000000000000000000000000E5
:104BD0000000000001FFC007E3F00F00F81E00789E
:104BE0001E003C1FFFFC1FFFFC1C00001E00001EDF
:104BF00000000F800007FFF801FFF8000000000030
:104C000000000000000000000000000000000000A4
:104C10000000000000000000000000000000000094
:104C200000000003FC001FFE003E0000780000783A
:104C3000000070000070000070003FFFFC3FFFFCB0
:104C40000070000070000070000070000070000034
:104C50007000007000007000007000000000000094
:104C60000000000000000000000000000000000044
:104C70000000000000000000000000000000000034
:104C80000000000000000000000000000000000024
:104C90000000000003FFFC07C3FC0F00F01E00F043
:104CA0001E00F00F00F00F83E00FFFC01E7C001C01
:104CB00000001F00000FFFF00FFFFC1E003C3C0037
:104CC0003C3C003C1F81F80FFFE000380000000072
:104CD00000000000000000000000000000000000D4
:104CE00000001E00001E00001E00001E00001E002E
:104CF000001E00001E7FE01EFFF01FC0F01F0078A6
:104D00001E00781E00781E00781E00781E00781E97
:104D100000781E00781E00781E0078000000000059
:104D20000000000000000000000000000000000083
:104D30000000000000000000000000000000000073
:104D40000000003C00007E00007E00003C000000EF
:104D5000000000000FFE000FFE00001E00001E00FD
:104D6000001E00001E00001E00001E00001E0000AD
:104D70001E00001E000FFFF80FFFF80000000000EB
:104D80000000000000000000000000000000000023
:104D90000000000000000000000000000000000013
:104DA00000000003800007E00007E000038000002F
:104DB000000000000FFFC00FFFC00003C00003C0D1
:104DC0000003C00003C00003C00003C00003C00014
:104DD00003C00003C00003C00003C00003C0000301
:104DE000C00007801E3F001FFE0001C00000000041
:104DF00000000000000000000000000000000000B3
:104E000000000F00000F00000F00000F00000F0057
:104E1000000F00000F00F80F01E00F07C00F1F0088
:104E20000F3C000FF8000FF8000F3E000F1F000F9F
:104E300007C00F03E00F00F80F007C000000000027
:104E40000000000000000000000000000000000062
:104E50000000000000000000000000000000000052
:104E600000000FFE000FFE00001E00001E00001ECE
:104E700000001E00001E00001E00001E00001E009C
:104E8000001E00001E00001E00001E00001E00008C
:104E90001E00001E000FFFF80FFFF80000000000CA
:104EA0000000000000000000000000000000000002
:104EB00000000000000000000000000000000000F2
:104EC00000000000000000000000000000000000E2
:104ED0000000000039F9F83BBBBC3E3E1C3C3E1CC8
:104EE000383C1C383C1C383C1C383C1C383C1C38BA
:104EF0003C1C383C1C383C1C383C1C0000000000AA
:104F000000000000000000000000000000000000A1
:104F10000000000000000000000000000000000091
:104F20000000000000000000000000000000000081
:104F3000000000001E7FE01EFFF01FC0F01F007881
:104F40001E00781E00781E00781E00781E00781E55
:104F500000781E00781E00781E0078000000000017
:104F60000000000000000000000000000000000041
:104F70000000000000000000000000000000000031
:104F80000000000000000000000000000000000021
:104F90000000000001FFC007E7F00F00F81E003C12
:104FA0003C003C3C003C3C003C3C003C3C003C1E8B
:104FB00000781F00F007FFE001FF80000000000004
:104FC00000000000000000000000000000000000E1
:104FD00000000000000000000000000000000000D1
:104FE00000000000000000000000000000000000C1
:104FF000000000001E7FE01EFFF01FC0781F007839
:105000001E003C1E003C1E003C1E003C1E00381EC4
:1050100000781E00F01FFFE01FFF001E00001E00B2
:10502000001E00001E00001E000000000000000026
:105030000000000000000000000000000000000070
:105040000000000000000000000000000000000060
:105050000000000001FFF807F7F80F00781E007845
:105060001E00783C00783C00783C00781C00781EDC
:1050700001F81F03F80FFF7803FC780000780000A8
:105080007800007800007800007800000000000040
:105090000000000000000000000000000000000010
:1050A0000000000000000000000000000000000000
:1050B000000000000F1FF00F7FF80FE03C0F803C56
:1050C0000F003C0F00000F00000F00000F00000F4A
:1050D00000000F00000F00000F00000000000000A3
:1050E00000000000000000000000000000000000C0
:1050F00000000000000000000000000000000000B0
:10510000000000000000000000000000000000009F
:105110000000000001FFE007E1E00F00000F0000C9
:1051200007800003FC0000FFC0000FF00000F0004B
:1051300000780000F00FFFE00FFF8000000000008B
:10514000000000000000000000000000000000005F
:10515000000000000000000000000000000000004F
:10516000000000000000000001E00001E00001E09C
:105170000001E0007FFFF87FFFF801E00001E000A0
:1051800001E00001E00001E00001E00001E00001B9
:10519000E00000F000007FF8003FF8000000000091
:1051A00000000000000000000000000000000000FF
:1051B00000000000000000000000000000000000EF
:1051C00000000000000000000000000000000000DF
:1051D000000000001E00781E00781E00781E007877
:1051E0001E00781E00781E00781E00781E00780EC3
:1051F00000F80F03F807FF7803FC780000000000B8
:10520000000000000000000000000000000000009E
:10521000000000000000000000000000000000008E
:10522000000000000000000000000000000000007E
:10523000000000003C003C1E007C1E00780F00F0C7
:105240000F80F00781E003C3C003C3C001E7800003
:10525000E70000FF00007E00003C000000000000AE
:10526000000000000000000000000000000000003E
:10527000000000000000000000000000000000002E
:10528000000000000000000000000000000000001E
:105290000000000078000E78001E78001E383C1ECA
:1052A000383C1C3C7E1C3C7E3C1CE73C1CE7B81D8B
:1052B000C3B81FC3F80F81F80F81F0000000000091
:1052C00000000000000000000000000000000000DE
:1052D00000000000000000000000000000000000CE
:1052E00000000000000000000000000000000000BE
:1052F000000000001F007C0F80F007C1E003E3C046
:1053000000F780007F00003E0000FF0001E78003FF
:10531000C3C00781F01F00F83E007C0000000000C1
:10532000000000000000000000000000000000007D
:10533000000000000000000000000000000000006D
:10534000000000000000000000000000000000005D
:10535000000000003C003C1E003C1E00780F00F0E6
:105360000780F00781E003C1C003C3C001E78000EC
:10537000F78000FF00007E00003E00003C00007847
:105380000001F0007FE0007F8000000000000000CE
:10539000000000000000000000000000000000000D
:1053A00000000000000000000000000000000000FD
:1053B000000000000FFFF00FFFF00001E00007C049
:1053C000000F80001E00003C0000F80001E0000318
:1053D000C0000780000FFFF80FFFF800000000007A
:1053E00000000000000000000000000000000000BD
:1053F00000000000000000000000000000000000AD
:1054000000000007E0001FE0003C0000380000380A
:105410000000780000780000780000780000780034
:105420001FF0001F800001F00000780000780000ED
:1054300078000078000078000078000078000038DC
:1054400000003C00001F80000FE000000000000092
:10545000000000000000000000003C00003C0000D4
:105460003C00003C00003C00003C00003C00003CD4
:1054700000003C00003C00003C00003C00003C0000
:10548000003C00003C00003C00003C00003C0000F0
:105490003C00003C00003C00003C00003C00003CA4
:1054A00000003C00003C00003C0000000000000048
:1054B00000000000000000000000000000000000EC
:1054C000000007E00007F800003C00001E00001E7E
:1054D00000001E00001E00001E00001E00000E0046
:1054E000000FF80001F8000F80000E00001E000001
:1054F0001E00001E00001E00001E00001E00001EF8
:1055000000003C0000FC0007F0000000000000006C
:10551000000000000000000000000000000000008B
:10552000000000000000000000000000000000007B
:105530000000000000000000000000000007C000A4
:105540001FF01E3C7C1E381FFC7807F8000000008E
:10555000000000000000000000000000000000004B
:10556000000000000000000000000000000000003B
:1055700090550008000000205C000000181800088A
:10558000EC5500085C0000205404000028180008B6
:1055900000A24A0400000000000000000102030411
:1055A00006070809000000000000000000000000DD
:1055B00000A00000101A00080800100000200008D9
:1055C00010001800D0310008180020000000000072
:1055D000F000400106000000240000200000FFFF52
:0C55E00000000000173B37000000000036
:0400000508000131BD
:00000001FF
