:020000040800F2
:1000000020040020490100088D0400084F03000867
:1000100089040008910100080106000800000000A2
:10002000000000000000000000000000B104000813
:1000300095010008000000008F0400089D050008DD
:100040006301000863010008630100086301000800
:1000500063010008630100086301000863010008F0
:1000600063010008630100086301000863010008E0
:1000700063010008630100086301000863010008D0
:1000800063010008630100086301000863010008C0
:1000900063010008630100086301000863010008B0
:1000A00063010008630100086301000863010008A0
:1000B0006301000863010008630100086301000890
:1000C0006301000863010008630100086301000880
:1000D0006301000863010008630100086301000870
:1000E0006301000863010008630100086301000860
:1000F0006301000863010008630100086301000850
:10010000630100086301000863010008630100083F
:10011000630100086301000863010008630100082F
:10012000630100086301000863010008630100081F
:10013000DFF810D000F01AF8004800472506000844
:10014000AFF300802004002006488047064800479F
:10015000FEE7FEE7FEE7FEE7FEE7FEE7FEE7FEE777
:10016000FEE7FEE7A105000831010008064C074D37
:1001700006E0E06840F0010394E807009847103477
:10018000AC42F6D3FFF7D8FF6006000880060008EF
:1001900000BFFEE77047000000204FF0E02108613B
:1001A000094800680949B0FBF1F0094908600846B0
:1001B00000684FF47A7148430649086000204FF008
:1001C000E0218861704700000000002000127A00E2
:1001D0001400002018000020014600200C4A12687C
:1001E0004A434FF0E0235A6100229A6101221A61CA
:1001F00000BF4FF0E022106900F480321AB900F01D
:100200000102002AF5D100224FF0E0231A61704765
:10021000180000202DE9F0410246002500260020AC
:1002200000230024002791F803C00CF00F0591F87B
:1002300003C00CF0100CBCF1000F03D091F802C009
:100240004CEA050591F800C0BCF1000F31D01468EC
:1002500000202BE04FF0010C0CFA00F3B1F800C0C5
:100260000CEA03069E4220D183004FF00F0C0CFADB
:1002700003F7BC4305FA03FC4CEA040491F803C0FD
:10028000BCF1280F06D14FF0010C0CFA00FCC2F8AB
:1002900014C00AE091F803C0BCF1480F05D14FF03B
:1002A000010C0CFA00FCC2F810C0401C0828D1D385
:1002B0001460B1F800C0BCF1FF0F34DD54680020B9
:1002C0002EE000F1080C4FF0010808FA0CF3B1F829
:1002D00000C00CEA03069E4221D183004FF00F0CB0
:1002E0000CFA03F7BC4305FA03FC4CEA040491F84A
:1002F00003C0BCF1280F05D100F1080C08FA0CF876
:10030000C2F8148091F803C0BCF1480F07D100F186
:10031000080C4FF0010808FA0CF8C2F81080401CD5
:100320000828CED35460BDE8F081024600209368CF
:100330000B400BB1012000E000207047C2684A402A
:10034000C26070470AB1016100E04161704700BFBF
:10035000FEE7000008B50121142000F099F8012003
:10036000ADF8000004208DF8030069460748FFF748
:1003700051FF4FF40050ADF8000004208DF8030049
:1003800069460348FFF746FF08BD0000000801402A
:100390000010014010B50446012C01D11B49087022
:1003A0001A48007810B301211948FFF7BEFF012851
:1003B00006D04FF400511748FFF7B7FF012815D1B9
:1003C0000A20FFF709FF002010490870012110489A
:1003D000FFF7ABFF012800D110BD4FF400510D48CD
:1003E000FFF7A3FF01280FD10220F5E701210848FC
:1003F000FFF79BFF40B94FF400510648FFF795FF08
:1004000010B90120014908700020E5E71C00002018
:10041000000801400010014008B50121082000F04B
:1004200037F80121042000F033F82320ADF8000054
:1004300010208DF8030002208DF802006946104854
:10044000FFF7E8FE4FF48070ADF8000010208DF843
:10045000030002208DF8020069460A48FFF7DAFE21
:10046000012220210648FFF76DFF012202210448E6
:10047000FFF768FF012211460148FFF763FF08BD3F
:10048000000C01400008014000BFFEE770477047C4
:1004900029B1064A92690243044B9A6104E0034A77
:1004A00092698243014B9A6170470000001002403C
:1004B000704710B500F002F810BD00000CB5002028
:1004C000019000903348006840F480303149086062
:1004D00000BF3048006800F4003000900198401CD4
:1004E0000190009818B90198B0F5A06FF1D1294892
:1004F000006800F4003010B10120009001E00020FD
:1005000000900098012843D12348006840F0100073
:10051000214908600846006820F00300086008468A
:10052000006840F0020008601A48406819494860B5
:100530000846406848600846406840F4806048606B
:100540000846406820F47C1048600846406840F443
:10055000E81048600846006840F08070086000BFFE
:100560000C48006800F000700028F9D00948406885
:1005700020F00300074948600846406840F0020048
:10058000486000BF0348406800F00C000828F9D11B
:100590000CBD000000100240002002407047000027
:1005A00010B51348006840F0010011490860084682
:1005B0004068104908400E494860084600680E49E6
:1005C00008400B4908600846006820F48020086055
:1005D0000846406820F4FE0048604FF41F00886021
:1005E000FFF767FF4FF000600449086010BD00008E
:1005F000001002400000FFF8FFFFF6FE08ED00E0EB
:1006000000BFFEE702E008C8121F08C1002AFAD1A5
:1006100070477047002001E001C1121F002AFBD182
:1006200070470000FFF7F8FEFFF794FEFFF7B4FDF8
:1006300013E00020FFF7AEFE012802D002280AD105
:1006400004E020210548FFF779FE05E00121034879
:10065000FFF774FE00E000BF00BFEAE7000C0140B6
:1006600080060008000000202000000004060008AA
:10067000A006000820000020000400001406000866
:1006800000A24A0400000000000000000102030470
:10069000060708090000000000000000010000003B
:0400000508000131BD
:00000001FF
