:020000040800F2
:1000000070040020490100085D040008E5030008B1
:1000100059040008BD0100086F0C00080000000032
:10002000000000000000000000000000FD050008C6
:10003000C101000800000000E5040008E90600080E
:100040006301000863010008630100086301000800
:100050006301000863010008410200086301000811
:1000600063010008630100086301000863010008E0
:1000700063010008630100086301000863010008D0
:1000800063010008630100086301000863010008C0
:1000900063010008630100086301000863010008B0
:1000A00063010008630100086301000863010008A0
:1000B00063010008B5070008630100086301000838
:1000C0006301000863010008630100086301000880
:1000D00063010008110A00086301000863010008B9
:1000E0006102000863010008630100086301000861
:1000F0006301000863010008630100086301000850
:10010000630100086301000863010008630100083F
:10011000630100086301000863010008630100082F
:10012000630100086301000863010008630100081F
:10013000DFF810D000F030F8004800471D0E00082E
:10014000AFF300807004002006488047064800474F
:10015000FEE7FEE7FEE7FEE7FEE7FEE7FEE7FEE777
:10016000FEE7FEE7ED0600083101000830B50B465A
:10017000014600202022012409E021FA02F59D42D7
:1001800005D303FA02F5491B04FA02F52844151EAB
:10019000A2F10102F1DC30BD064C074D06E0E0683B
:1001A00040F0010394E8070098471034AC42F6D3BE
:1001B000FFF7C2FF5C0E00087C0E000800BFFEE7E0
:1001C0007047000000204FF0E021086109480068F6
:1001D0000949B0FBF1F009490860084600684FF48E
:1001E0007A7148430649086000204FF0E021886199
:1001F000704700000000002000DD6D002800002096
:100200002C000020014600200C4A12684A434FF09F
:10021000E0235A6100229A6101221A6100BF4FF067
:10022000E022106900F480321AB900F00102002ABD
:10023000F5D100224FF0E0231A6170472C00002016
:1002400010B5012000F026F818B12021034800F075
:10025000C0F8012000F018F810BD0000000C0140AB
:1002600010B54FF4005000F015F828B105480068AB
:1002700080F00200034908604FF4005000F004F8D9
:1002800010BD00000C0C01400149086070470000DF
:1002900014040140014600200022074B1B6803EABA
:1002A0000102054B14331B680B4013B10AB1012046
:1002B00000E0002070470000000401402DE9F041FB
:1002C000024600250026002000230024002791F884
:1002D00003C00CF00F0591F803C00CF0100CBCF13A
:1002E000000F03D091F802C04CEA050591F800C058
:1002F000BCF1000F31D0146800202BE04FF0010C4E
:100300000CFA00F3B1F800C00CEA03069E4220D1BB
:1003100083004FF00F0C0CFA03F7BC4305FA03FC03
:100320004CEA040491F803C0BCF1280F06D14FF049
:10033000010C0CFA00FCC2F814C00AE091F803C0EA
:10034000BCF1480F05D14FF0010C0CFA00FCC2F8CB
:1003500010C0401C0828D1D31460B1F800C0BCF113
:10036000FF0F34DD546800202EE000F1080C4FF040
:10037000010808FA0CF3B1F800C00CEA03069E422B
:1003800021D183004FF00F0C0CFA03F7BC4305FAA0
:1003900003FC4CEA040491F803C0BCF1280F05D11A
:1003A00000F1080C08FA0CF8C2F8148091F803C0A8
:1003B000BCF1480F07D100F1080C4FF0010808FA12
:1003C0000CF8C2F81080401C0828CED35460BDE859
:1003D000F081C2684A40C26070470AB1016100E022
:1003E0004161704700BFFEE708B50121082000F019
:1003F0008BF80121042000F087F82320ADF80000DD
:1004000010208DF8030002208DF802006946104884
:10041000FFF754FF4FF48070ADF8000010208DF806
:10042000030002208DF8020069460A48FFF746FFE4
:10043000012220210648FFF7D0FF012202210448B3
:10044000FFF7CBFF012211460148FFF7C6FF08BDA9
:10045000000C01400008014000BFFEE770470000AB
:1004600070B5002100230F22C47804B3154C246812
:1004700004F4E064C4F5E064210AC1F10403CA4055
:10048000447804FA03F184781440214309010E4CA6
:100490000678A155047804F01F050124AC400578C6
:1004A0006D11AD0005F1E025C5F8004109E00478C3
:1004B00004F01F050124AC40044D0678761145F880
:1004C000264070BD0CED00E000E400E080E100E0BB
:1004D00002490143024A1160704700000000FA051A
:1004E0000CED00E07047000029B1064AD2690243D2
:1004F000044BDA6104E0034AD2698243014BDA61BA
:10050000704700000010024029B1064A9269024378
:10051000044B9A6104E0034A92698243014B9A6159
:10052000704700000010024030B500210022002476
:1005300000232D4D6D6805F00C0121B1042905D073
:10054000082923D105E0294D056022E0274D0560EB
:100550001FE0254D6D6805F47012234D6D6805F49C
:100560008034022505EB92421CB9214D55430560AC
:100570000BE01D4D6D6805F400351DB11C4D554354
:10058000056002E0194D5543056002E0174D056016
:1005900000BF00BF144D6D6805F0F0010909154D4D
:1005A0006B5C0568DD4045600F4D6D6805F4E061EA
:1005B000090A104D6B5C4568DD4085600A4D6D6829
:1005C00005F46051C90A0B4D6B5C4568DD40C560A0
:1005D000054D6D6805F44041890B074D6B5CC5689E
:1005E000B5FBF3F5056130BD0010024000127A0042
:1005F00000093D001400002024000020704710B5C1
:1006000000F002F810BD00000CB500200190009031
:100610003348006840F480303149086000BF3048FA
:10062000006800F4003000900198401C0190009890
:1006300018B90198B0F5A06FF1D12948006800F40D
:10064000003010B10120009001E0002000900098DF
:10065000012843D12348006840F010002149086078
:100660000846006820F0030008600846006840F073
:10067000020008601A484068194948600846406806
:1006800048600846406840F480604860084640681A
:1006900020F47C1048600846406840F4E810486048
:1006A0000846006840F08070086000BF0C48006891
:1006B00000F000700028F9D00948406820F00300DD
:1006C000074948600846406840F00200486000BFA3
:1006D0000348406800F00C000828F9D10CBD000068
:1006E00000100240002002407047000010B513487F
:1006F000006840F001001149086008464068104950
:1007000008400E494860084600680E4908400B49F9
:1007100008600846006820F48020086008464068A9
:1007200020F4FE0048604FF41F008860FFF767FF69
:100730004FF000600449086010BD00000010024046
:100740000000FFF8FFFFF6FE08ED00E07FB505466C
:100750000C4601210220FFF7C7FEADF80850ADF8A6
:1007600004400020ADF80600ADF80A0001A91048C9
:1007700000F0A4F8012211460D4800F095F801217F
:100780000B4800F074F84FF4A060FFF7A1FE1D20A5
:100790008DF8000002208DF8010000208DF8020085
:1007A00001208DF803006846FFF75AFE7FBD000068
:1007B0000004004000B589B00121204800F063F832
:1007C000012835D120211E48FFF703FE1D4800886F
:1007D000401C1C490880084600883C2807D11A485C
:1007E0000088401C184908800020164908801648D7
:1007F00000883C2807D115480088401C1349088010
:1008000000201149088011480088182802D10020D2
:100810000E4908800B48008800900B4803880B485D
:1008200002880BA101A800F025FA01A800F026F922
:100830000121024800F018F809B000BD0004004092
:10084000000C014038000020360000203400002059
:1008500074696D653A20252E32643A252E32643A49
:10086000252E3264200A0000CA430282704721B15B
:10087000028842F00102028004E002884FF6FE7313
:100880001A400280704730B5024600200023002441
:10089000158A05EA0103958905EA010413B10CB133
:1008A000012000E0002030BD1AB183890B43838111
:1008B00002E083898B438381704700000022028815
:1008C0001D4B98420ED01D4B98420BD0B0F1804F7B
:1008D00008D01B4B984205D01A4B984202D01A4BB5
:1008E000984204D14FF68F731A404B881A43174B26
:1008F000984207D0164B984204D04FF6FF431A4057
:10090000CB881A4302808B8883850B8803850A4B2A
:1009100098420BD0094B984208D00E4B984205D014
:100920000D4B984202D00D4B984201D10B7A0386B1
:100930000123838270470000002C014000340140F5
:100940000004004000080040000C0040001000407F
:1009500000140040004001400044014000480140B4
:1009600010B586B0044601210420FFF7CDFD01211A
:100970008803FFF7C9FD4FF40070ADF8140018208C
:100980008DF8170003208DF8160005A91E48FFF703
:1009900095FC4FF48060ADF8140004208DF817002A
:1009A00005A91948FFF78AFC01940C20ADF80E0048
:1009B0000020ADF81000ADF80800ADF80C00ADF85F
:1009C0000A0001A9114800F0DDF84FF4C060FFF7FC
:1009D0007FFD25208DF8000000208DF801008DF8A6
:1009E000020001208DF803006846FFF739FD01225F
:1009F00040F22551054800F0A0F80121034800F01D
:100A000059F806B010BD0000000801400038014050
:100A100010B540F225510E4800F065F8012811D1BB
:100A20000B4800F01BF90B490B4A128888540A48FE
:100A30000088401C0849088008460088322801D1F7
:100A40000020088040F22551014800F024F810BD34
:100A5000003801403C0000203000002010B5044662
:100A60002146054800F0FFF800BF8021024800F051
:100A70002DF80028F9D010BD0038014070B50446AB
:100A8000002504E0605DFFF7E9FF681C85B2605D4A
:100A90000028F7D170BD10B50022002340F66A147B
:100AA000A14200D100BF0A1201249440A3B2DC434A
:100AB000048010BD21B1828942F40052828104E099
:100AC00082894DF6FF731A408281704702460020EA
:100AD000B1F5007F00D100BF13880B400BB101209E
:100AE00000E00020704770B5024600240023002576
:100AF000002040F66A16B14200D100BFC1F3421592
:100B000001F01F03012606FA03F3012D02D1968995
:100B1000334006E0022D02D1168A334001E0968A66
:100B200033400C12012606FA04F41688344013B13F
:100B30000CB1012000E0002070BDF0B50346002498
:100B400000260025002040F66A17B94200D100BFF8
:100B50001846C1F3421401F01F06012707FA06F5F3
:100B6000012C01D10C3004E0022C01D1103000E046
:100B700014301AB107682F43076002E00768AF43DB
:100B80000760F0BD2DE9F04786B005460E4600240B
:100B9000A24600BFA1460027B08900B100BF2F4682
:100BA0002C8A4CF6FF700440F08804432C82AC89F8
:100BB0004EF6F3100440B088318908437189084328
:100BC0000443AC81AC8A4FF6FF400440B089044333
:100BD000AC8201A8FFF7A8FC1F48874202D1DDF8CC
:100BE00010A001E0DDF80CA0A88900F4004040B19D
:100BF0000AEBCA0000EB0A1031684900B0FBF1F8BB
:100C000007E00AEBCA0000EB0A1031688900B0FB6C
:100C1000F1F86420B8FBF0F004012009642101FB25
:100C20001089A88900F4004040B1322000EBC900CF
:100C3000B0FBF1F000F00700044308E0322000EBC5
:100C400009106421B0FBF1F000F00F0004432C8187
:100C500006B0BDE8F08700000038014001468888F2
:100C6000C0F308007047C1F308028280704700BFDC
:100C7000FEE700000FB4084B10B504A902AA0398C0
:100C800000F01CF8044602A9002000F0C1F820463C
:100C900010BC5DF814FB0000110E000802E008C84B
:100CA000121F08C1002AFAD170477047002001E0E6
:100CB00001C1121F002AFBD1704700002DE9FF4F30
:100CC00089B09B460446002506E025280BD05A46ED
:100CD0000B999047641C6D1C20780028F5D10DB04D
:100CE0002846BDE8F08F0027B8460122474900E0BA
:100CF000074314F8013F203B02FA03F00842F7D102
:100D000020782E2819D114F8010F47F004072A285B
:100D10000ED06FF02F022078A0F1300109290CD8F5
:100D200008EB880102EB410100EB0108641CF2E7CB
:100D30000A98641C50F8048B0A9020780028CED0C2
:100D4000642808D0692806D075281ED05A460B9909
:100D500090476D1C58E00A994FF00A0901C90A91A1
:100D6000002802DA40422D2102E0390504D52B216A
:100D70008DF82010012103E0F90704D02021F7E7C6
:100D80008A4608AE0DE00021FAE70A994FF00A09F9
:100D900001C90A91F7E74946FFF7E8F9303106F84B
:100DA000011D0028F7D1ADEB060000F120097807FE
:100DB00001D44FF00108C84502DDA8EB090000E0AE
:100DC00000208046002706E008A85A46C05D0B991F
:100DD00090476D1C7F1C5745F6DB04E030205A46D7
:100DE0000B9990476D1CB8F10001A8F10108F5DCE2
:100DF00005E016F8010B5A460B9990476D1CB9F1A6
:100E00000001A9F10109F4DC641C65E7092801006F
:100E10000A68531C0B60107070470000FFF7D2F98E
:100E2000FFF7E2FA4FF4E130FFF79AFD07A0FFF772
:100E300025FE4FF47A70FFF7E5F941F61F4142F2C3
:100E40000F70FFF783FC00BFFEE700000A0A323490
:100E5000D0A1CAB1CAB1D6D30A0A0A007C0E0008D2
:100E6000000000203C0000009C0C0008B80E0008A8
:100E70003C00002034040000AC0C000800A24A042E
:100E8000000000000000000001020304060708093A
:100E90000000000001020304010203040607080920
:100EA000020406080000000000000000000000002E
:080EB00017003B0037000000B1
:0400000508000131BD
:00000001FF
