:020000040800F2
:1000000080060020CD010008510700082F050008D8
:10001000D905000887020008F90800080000000060
:10002000000000000000000000000000ED070008D4
:100030008902000800000000CD070008A50800089C
:10004000E7010008E7010008E7010008E7010008F0
:10005000E7010008E7010008E5020008E7010008E1
:10006000E7010008E7010008E7010008E7010008D0
:10007000E7010008E7010008E7010008E7010008C0
:10008000E7010008E7010008E7010008E7010008B0
:10009000E7010008E7010008E7010008E7010008A0
:1000A000E7010008E7010008E7010008E701000890
:1000B000E7010008E7010008E7010008E701000880
:1000C000E7010008E7010008E7010008E701000870
:1000D000E7010008E7010008E7010008E701000860
:1000E00005030008E7010008E7010008E701000830
:1000F000E7010008E7010008E7010008E701000840
:10010000E7010008E7010008E7010008E70100082F
:10011000E7010008E7010008E7010008E70100081F
:10012000E7010008E7010008E7010008E70100080F
:1001300000F002F800F03AF80AA090E8000C8244BF
:100140008344AAF10107DA4501D100F02FF8AFF29C
:10015000090EBAE80F0013F0010F18BFFB1A43F0A5
:1001600001031847C4070000E4070000103A24BF49
:1001700078C878C1FAD8520724BF30C830C144BF0C
:1001800004680C607047000000230024002500264E
:10019000103A28BF78C1FBD8520728BF30C148BFEA
:1001A0000B6070471FB51FBD10B510BD00F031F8D2
:1001B0001146FFF7F7FF00F0A1FB00F04FF803B482
:1001C000FFF7F2FF03BC00F057F800000948804732
:1001D00009480047FEE7FEE7FEE7FEE7FEE7FEE729
:1001E000FEE7FEE7FEE7FEE704480549054A064B41
:1001F00070470000A90800083101000880000020B5
:100200008006002080020020800200207047704796
:100210007047754600F02CF8AE4605006946534617
:1002200020F00700854618B020B5FFF7DDFFBDE8D8
:1002300020404FF000064FF000074FF000084FF04D
:10024000000B21F00701AC46ACE8C009ACE8C009DE
:10025000ACE8C009ACE8C0098D46704710B504464B
:10026000AFF300802046BDE81040FFF7A8BF0000B4
:10027000004870472000002001491820ABBEFEE76F
:10028000260002007047FEE77047000010B54FF0EF
:10029000E022002111610648064B0068B0FBF3F034
:1002A000054B18604FF47A7460435860916110BD3B
:1002B0000000002000127A0014000020084949685C
:1002C00048434FF0E021486100238B610120086121
:1002D0000869C20301D4C007FAD10B61704700005E
:1002E0001400002010B5012000F024F810B10449DA
:1002F00001200870BDE81040012000F015B8000092
:100300001C00002010B54FF40054204600F012F8F5
:1003100010B10449002008702046BDE8104000F0EC
:1003200003B800001C00002001490860704700006D
:100330001404014001460020054A12680A40044B9B
:1003400014331B680B4202D0002A00D001207047F2
:1003500000040140FEB50121084600F039FA4FF4CF
:10036000C06000F029FA06208DF8000000258DF805
:1003700001508DF8025001248DF80340684600F0CA
:10038000E9F928208DF800008DF801408DF8025021
:100390008DF80340684600F0DDF90021084600F0C2
:1003A00055F80D21022000F051F801948DF8085005
:1003B00008268DF809608DF80A4001A800F00CF8B5
:1003C000600301908DF808508DF809608DF80A409F
:1003D00001A800F001F8FEBD30B51B4A8379016821
:1003E000002B2AD013688B431360111D0B6804681F
:1003F000A3430B60017911440B68046823430B602D
:10040000114C08342168036899432160231D196841
:100410000568A94319604179102905D011440A687B
:10042000006802430A6030BD216802681143216000
:10043000196800680143196030BD007910440268F2
:100440008A43026030BD00000004014010B58A07F5
:10045000120F0F23934021F00304054921448C68B7
:100460009C438C608B68904003438B6010BD000000
:10047000000001402DE9F0410022CC7804F00F0388
:10048000E40601D58C7823430C784FF00F0714F065
:10049000FF0F4FF0010C1CD005680CFA02F40E8817
:1004A0002640A64211D1960007FA06F825EA08056B
:1004B00003FA06F848EA0505CE78282E02D0482E21
:1004C00002D002E0446100E00461521C082AE4D337
:1004D00005600A88FF2A1ED94568002202F1080635
:1004E0000CFA06F40E882640A64210D1960007FAB0
:1004F00006F825EA080503FA06F848EA0505CE7865
:10050000282E00D14461CE78482E00D10461521CBF
:10051000082AE3D34560BDE8F0814161704701617D
:100520007047002A01D00161704741617047FEE7C2
:1005300038B50121142000F04BF90120ADF800007E
:1005400004248DF8034069460648FFF793FFE00254
:10055000ADF800008DF8034069460348FFF78AFFB5
:1005600038BD00000008014000100140F8B501212D
:10057000082000F02DF90121042000F029F92320A2
:10058000ADF8000010258DF8035002248DF80240CC
:100590000F4E69463046FFF76DFFE101ADF80010E0
:1005A0008DF803508DF8024069460A48FFF762FF54
:1005B000012220213046FFF7B4FF012202213046FC
:1005C000FFF7AFFF012211463046FFF7AAFFF8BD43
:1005D000000C014000080140FEE7000010B5274C68
:1005E00010212046FFF799FF20212046FFF797FFB3
:1005F00040212046FFF793FF80212046FFF78FFF21
:100600000320FFF75BFE10212046FFF788FF202123
:100610002046FFF782FF40212046FFF780FF802120
:100620002046FFF77CFF0320FFF748FE10212046FD
:10063000FFF775FF20212046FFF771FF402120467C
:10064000FFF76BFF80212046FFF769FF0320FFF7CC
:1006500035FE10212046FFF762FF20212046FFF7DC
:100660005EFF40212046FFF75AFF80212046FFF71A
:1006700054FFBDE810400320FFF720BE00080140F2
:1006800008B50121042000F0A3F84FF4F870ADF88C
:10069000000010208DF8030003208DF80200694649
:1006A0000148FFF7E7FE08BD0008014010B5274CE0
:1006B00010212046FFF733FF20212046FFF72FFFB0
:1006C00040212046FFF72BFF80212046FFF725FF22
:1006D0000320FFF7F3FD10212046FFF720FF202124
:1006E0002046FFF71CFF40212046FFF716FF802120
:1006F0002046FFF714FF0320FFF7E0FD10212046FE
:10070000FFF70DFF20212046FFF707FF402120467D
:10071000FFF705FF80212046FFF701FF0320FFF7C9
:10072000CDFD10212046FFF7F8FE20212046FFF7DF
:10073000F6FE40212046FFF7F2FE80212046FFF71B
:10074000EEFEBDE810400320FFF7B8BD00080140F1
:100750007047000070B50F23C27801260178002A87
:100760001ED0144A126802F4E062C2F5E062120A76
:10077000C2F10404D3404578A54082781A402A4348
:10078000120101F1E02181F80024007800F01F013E
:100790008E404009800000F1E020C0F8006170BD8B
:1007A00001F01F0086404809800000F1E020C0F8F9
:1007B000806170BD0CED00E0024908430249086009
:1007C000704700000000FA050CED00E070470000E3
:1007D000054A002903D091690143916170479169ED
:1007E000814391617047000000100240704700F0A3
:1007F00001B800000CB50022019200922748016860
:1008000041F4803101604FF4A063016801F40031CC
:1008100000910199491C0191009911B901999942DE
:10082000F3D10168890302D50121009100E0009213
:100830000099012930D11A490A6842F010020A6071
:100840000A6822F003020A600A6842F002020A60A3
:100850004168416041684160416841F480614160A4
:10086000416821F47C114160416841F4E811416024
:10087000016841F08071016001688901FCD541681F
:1008800021F003014160416841F00201416041688B
:10089000C1F381010229FAD10CBD00000010024011
:1008A000002002407047000010B50F48016841F079
:1008B0000101016041680D4A1140416001680C4A24
:1008C00011400160016821F480210160416821F438
:1008D000FE0141604FF41F018160FFF788FF054969
:1008E0004FF00060086010BD001002400000FFF8EB
:1008F000FFFFF6FE08ED00E0FEE70000FFF7C6FC94
:10090000FFF716FEFFF7BCFEFFF724FDFFF72EFEF4
:10091000044C207810B1FFF761FEFAE7FFF7C6FE3E
:10092000F7E700001C000020480900080000002034
:10093000200000006C010008680900082000002069
:10094000600600008801000800A24A0400000000C0
:10095000000000000102030406070809000000006F
:0809600000000000000000008F
:0400000508000131BD
:00000001FF
