:020000040800F2
:10000000D804002049010008CD0400085504000868
:10001000C9040008B5010008290700080000000015
:1000200000000000000000000000000011050008B2
:10003000B502000800000000CF040008FD0500081C
:100040006301000863010008630100086301000800
:1000500063010008630100086301000863010008F0
:1000600063010008630100086301000863010008E0
:1000700063010008630100086301000863010008D0
:1000800063010008630100086301000863010008C0
:1000900063010008630100086301000863010008B0
:1000A00063010008630100086301000863010008A0
:1000B0006301000863010008630100086301000890
:1000C0006301000863010008630100086301000880
:1000D000630100086106000863010008630100086D
:1000E0006301000863010008630100086301000860
:1000F0006301000863010008630100086301000850
:10010000630100086301000863010008630100083F
:10011000630100086301000863010008630100082F
:10012000630100086301000863010008630100081F
:10013000DFF810D000F01AF8004800474D0700081B
:10014000AFF30080D80400200648804706480047E7
:10015000FEE7FEE7FEE7FEE7FEE7FEE7FEE7FEE777
:10016000FEE7FEE70106000831010008064C074DD6
:1001700006E0E06840F0010394E807009847103477
:10018000AC42F6D3FFF7D8FF6008000880080008EB
:1001900010B5034607E018680C68A04201D00020A3
:1001A00010BD1B1D091D101EA2F10104A2B2F2D147
:1001B0000120F5E700BFFEE700F0805111B10349CF
:1001C000086001E0024948607047000004040240F2
:1001D0000000024021B1026842F00102026004E026
:1001E00002684FF6FE731A40026070470146002015
:1001F000002201F0805313B1054B1A6801E0054B52
:100200001A6802EA01030BB1012000E000207047E8
:10021000000402400000024000B58BB001210846F6
:1002200000F056F91148009011480190002002900A
:1002300020200390402004908020059080000690AC
:1002400080000790202008900002099040000A904A
:100250006946084800F010F84FF40010FFF7ACFFB3
:1002600001210448FFF7B6FF0BB000BDE00700080E
:10027000540000206C00024010B50022026847F6CE
:10028000F0739A430C6A8B6823430C6923434C69CF
:1002900023438C692343CC6923434C6A23438C6AF0
:1002A00023431A430260CB6843600B6883604B684A
:1002B000C36010BD7047000000204FF0E0210861CE
:1002C000094800680949B0FBF1F00949086008468F
:1002D00000684FF47A7148430649086000204FF0E7
:1002E000E0218861704700000000002000DD6D0003
:1002F0001400002018000020014600200C4A12685B
:100300004A434FF0E0235A6100229A6101221A61A8
:1003100000BF4FF0E022106900F480321AB900F0FB
:100320000102002AF5D100224FF0E0231A61704744
:10033000180000202DE9F04102460025002600208B
:1003400000230024002791F803C00CF00F0591F85A
:1003500003C00CF0100CBCF1000F03D091F802C0E8
:100360004CEA050591F800C0BCF1000F31D01468CB
:1003700000202BE04FF0010C0CFA00F3B1F800C0A4
:100380000CEA03069E4220D183004FF00F0C0CFABA
:1003900003F7BC4305FA03FC4CEA040491F803C0DC
:1003A000BCF1280F06D14FF0010C0CFA00FCC2F88A
:1003B00014C00AE091F803C0BCF1480F05D14FF01A
:1003C000010C0CFA00FCC2F810C0401C0828D1D364
:1003D0001460B1F800C0BCF1FF0F34DD5468002098
:1003E0002EE000F1080C4FF0010808FA0CF3B1F808
:1003F00000C00CEA03069E4221D183004FF00F0C8F
:100400000CFA03F7BC4305FA03FC4CEA040491F828
:1004100003C0BCF1280F05D100F1080C08FA0CF854
:10042000C2F8148091F803C0BCF1480F07D100F165
:10043000080C4FF0010808FA0CF8C2F81080401CB4
:100440000828CED35460BDE8F0810AB1016100E014
:100450004161704700BFFEE708B50121082000F0A8
:1004600047F80121042000F043F82320ADF80000F4
:1004700010208DF8030002208DF802006946104814
:10048000FFF758FF4FF48070ADF8000010208DF892
:10049000030002208DF8020069460A48FFF74AFF70
:1004A000012211460648FFF7D0FF0122022104482D
:1004B000FFF7CBFF012220210148FFF7C6FF08BD4F
:1004C000000C01400008014000BFFEE77047704784
:1004D00029B1064A52690243044B5A6104E0034AB7
:1004E00052698243014B5A6170470000001002407C
:1004F00029B1064A92690243044B9A6104E0034A17
:1005000092698243014B9A617047000000100240DB
:10051000704710B500F002F810BD00000CB50020C7
:10052000019000903348006840F480303149086001
:1005300000BF3048006800F4003000900198401C73
:100540000190009818B90198B0F5A06FF1D1294831
:10055000006800F4003010B10120009001E000209C
:1005600000900098012843D12348006840F0100013
:10057000214908600846006820F00300086008462A
:10058000006840F0020008601A4840681949486055
:100590000846406848600846406840F4806048600B
:1005A0000846406820F47C1048600846406840F4E3
:1005B000E81048600846006840F08070086000BF9E
:1005C0000C48006800F000700028F9D00948406825
:1005D00020F00300074948600846406840F00200E8
:1005E000486000BF0348406800F00C000828F9D1BB
:1005F0000CBD0000001002400020024070470000C7
:1006000010B51348006840F0010011490860084621
:100610004068104908400E494860084600680E4985
:1006200008400B4908600846006820F480200860F4
:100630000846406820F4FE0048604FF41F008860C0
:10064000FFF767FF4FF000600449086010BD00002D
:10065000001002400000FFF8FFFFF6FE08ED00E08A
:1006600010B540F225510E4800F02FF8012811D1A5
:100670000B4800F054F80B490B4A128888540A487A
:100680000088401C0849088008460088322801D1AB
:100690000020088040F22551014800F007F810BD05
:1006A00000380140200000201C00002010B500226E
:1006B000002340F66A14A14200D100BF0A120124AF
:1006C0009440A3B2DC43048010BD70B50246002400
:1006D00000230025002040F66A16B14200D100BF79
:1006E000C1F3421501F01F03012606FA03F3012DA1
:1006F00002D19689334006E0022D02D1168A33409A
:1007000001E0968A33400C12012606FA04F416889A
:10071000344013B10CB1012000E0002070BD01464F
:100720008888C0F30800704700BFFEE702E008C8F1
:10073000121F08C1002AFAD170477047002001E05B
:1007400001C1121F002AFBD170470000FFF784FE91
:10075000FFF762FDFFF7B0FD002201211C48FFF703
:1007600074FE002220211A48FFF76FFE4FF47A70C2
:10077000FFF7C2FD012211461548FFF766FE012270
:1007800002211348FFF761FE012220211048FFF7E4
:100790005CFE1BE020220F490F48FFF7F9FC0F49D0
:1007A000087000BF4FF40010FFF720FD0028F9D0BB
:1007B0000A48007828B1002201210548FFF745FECC
:1007C00004E0002220210248FFF73FFEE2E700009C
:1007D000000C014054000020E00700081F0000202A
:1007E00004030201080706050C0B0A09100F0E0D81
:1007F00014131211181716151C1B1A19201F1E1D71
:1008000024232221282726252C2B2A29302F2E2D60
:1008100034333231383736353C3B3A39403F3E3D50
:1008200044434241484746454C4B4A49504F4E4D40
:1008300054535251585756555C5B5A59605F5E5D30
:1008400064636261686766656C6B6A69706F6E6D20
:1008500074737271787776757C7B7A79807F7E7D10
:100860008008000800000020200000002C0700087D
:10087000A008000820000020B80400003C07000881
:1008800000A24A040000000000000000010203046E
:10089000060708090000000000000000000000003A
:0400000508000131BD
:00000001FF
