:020000040800F2
:10000000F008002049010008CD060008A9030008F7
:10001000C9060008E7010008A50E0008000000005E
:10002000000000000000000000000000F50A0008C9
:10003000EB01000800000000DD090008E10B0008EA
:100040006301000863010008630100086301000800
:1000500063010008630100086301000863010008F0
:1000600063010008630100086301000863010008E0
:1000700063010008630100086301000863010008D0
:1000800063010008630100086301000863010008C0
:1000900063010008630100086301000863010008B0
:1000A00063010008630100086301000863010008A0
:1000B00063010008AD0C000863010008630100083B
:1000C0006301000863010008630100086301000880
:1000D00063010008DD0D00086301000863010008EA
:1000E0006301000863010008630100086301000860
:1000F0006301000863010008630100086301000850
:10010000630100086301000863010008630100083F
:10011000630100086301000863010008630100082F
:10012000630100086301000863010008630100081F
:10013000DFF810D000F01AF800480047E50E00087C
:10014000AFF30080F00800200648804706480047CB
:10015000FEE7FEE7FEE7FEE7FEE7FEE7FEE7FEE777
:10016000FEE7FEE7E50B000831010008064C074DED
:1001700006E0E06840F0010394E807009847103477
:10018000AC42F6D3FFF7D8FF88170008A81700087D
:1001900070B58C1810F8015B15F0070301D110F849
:1001A000013B2A1106D110F8012B03E010F8016B76
:1001B00001F8016B5B1EF9D12B0705D40023521EF9
:1001C0000DD401F8013BFAE710F8013BCB1A921C61
:1001D00003E013F8015B01F8015B521EF9D5A1425F
:1001E000D8D3002070BD00BFFEE7704700204FF05D
:1001F000E0210861094800680949B0FBF1F00949AC
:100200000860084600684FF47A7148430649086060
:1002100000204FF0E02188617047000000000020BE
:1002200000DD6D00280000202C0000200146002089
:100230000C4A12684A434FF0E0235A6100229A6147
:1002400001221A6100BF4FF0E022106900F48032F1
:100250001AB900F00102002AF5D100224FF0E02384
:100260001A6170472C00002030B50446002504E0D8
:100270004FF47A70FFF7DAFF641EA542F8D330BD61
:100280002DE9F0410246002500260020002300242D
:10029000002791F803C00CF00F0591F803C00CF093
:1002A000100CBCF1000F03D091F802C04CEA050518
:1002B00091F800C0BCF1000F31D0146800202BE091
:1002C0004FF0010C0CFA00F3B1F800C00CEA030681
:1002D0009E4220D183004FF00F0C0CFA03F7BC4371
:1002E00005FA03FC4CEA040491F803C0BCF1280FA2
:1002F00006D14FF0010C0CFA00FCC2F814C00AE061
:1003000091F803C0BCF1480F05D14FF0010C0CFA75
:1003100000FCC2F810C0401C0828D1D31460B1F80A
:1003200000C0BCF1FF0F34DD546800202EE000F166
:10033000080C4FF0010808FA0CF3B1F800C00CEA01
:1003400003069E4221D183004FF00F0C0CFA03F7F5
:10035000BC4305FA03FC4CEA040491F803C0BCF169
:10036000280F05D100F1080C08FA0CF8C2F8148027
:1003700091F803C0BCF1480F07D100F1080C4FF011
:10038000010808FA0CF8C2F81080401C0828CED3E7
:100390005460BDE8F081C2684A40C26070470AB14B
:1003A000016100E04161704700BFFEE770B50246A1
:1003B0000024002500230020958A138B1B0445EAA6
:1003C000030626F07F4404EA01068E4201D1012093
:1003D00000E0002070BD21B1028842F001020280DD
:1003E00004E002884FF6FE731A400280704721B184
:1003F000028842F48072028004E002884FF6FF63B4
:100400001A400280704721B1028842F400720280D3
:1004100004E002884FF6FF531A40028070470CB583
:100420000246002000230193009300920B0F0193DA
:1004300021F07F41019B1BB1009B1433009303E02B
:10044000090C009B18330093009B1B680B400BB1F9
:10045000012000E000200CBD00B585B00121480559
:1004600000F0BEFA0121082000F0CAFA4020ADF8E1
:10047000000003208DF802001C208DF8030069465F
:100480001348FFF7FDFE8020ADF8000069461048D4
:10049000FFF7F6FE0020ADF808004BF6FF70ADF850
:1004A0000A007820ADF80C004FF48060ADF80E0023
:1004B0000001ADF810000748019001A9064800F0BE
:1004C0000DF801210448FFF786FF05B000BD0000CC
:1004D000000C0140801A0600005400402DE9F04352
:1004E00085B004460D460026B1460427DFF8CC80CF
:1004F000A6884FF6C0700640684600F091FADDF815
:1005000008802F48B8FBF0F01FFA80F946EA090688
:10051000A68020884FF6FE710840208000262949D9
:10052000286888420CD828684000B8FBF0F087B2F1
:10053000042F00DA04273E4309F10100208427E05C
:10054000E8884BF6FF71884206D1286800EB40002E
:10055000B8FBF0F087B209E0286800EBC00101EBBE
:100560000010B8FBF0F087B247F48047C7F30B00E8
:1005700008B947F0010747F4004006434FF496706E
:1005800009FB00F04FF47A7190FBF1F0401C2084DD
:10059000A683208840F00100208026884FF6F530A1
:1005A0000640A8886989084306432680A8892989C6
:1005B0000843208105B0BDE8F083000000127A00F6
:1005C00040420F00A086010012B141F0010102E09B
:1005D0004FF6FE7319400182704701827047000098
:1005E00070B504460D4600BF4FF400311C48FFF7BC
:1005F00016FF0028F8D101211948FFF7F8FE00BFC7
:1006000018491748FFF7D2FE0028F9D000227821B8
:100610001348FFF7D9FF00BF13491148FFF7C6FE83
:100620000028F9D021460E48FFF7D7FF00BF0E493A
:10063000891C0B48FFF7BAFE0028F8D02946084865
:10064000FFF7CBFF00BF0849891C0548FFF7AEFE46
:100650000028F8D001210248FFF7D5FE70BD000048
:1006600000540040010003008200070008B501218A
:100670000C2000F0C5F92320ADF8000010208DF803
:10068000030002208DF8020069460D48FFF7F8FDCF
:100690004FF48070ADF8000069460A48FFF7F0FD9E
:1006A000012211460648FFF77AFE01220221044882
:1006B000FFF775FE012220210148FFF770FE08BDFB
:1006C000000C01400008014000BFFEE77047000039
:1006D00070B5002100230F22C47804B3154C2468A0
:1006E00004F4E064C4F5E064210AC1F10403CA40E3
:1006F000447804FA03F184781440214309010E4C34
:100700000678A155047804F01F050124AC40057853
:100710006D11AD0005F1E025C5F8004109E0047850
:1007200004F01F050124AC40044D0678761145F80D
:10073000264070BD0CED00E000E400E080E100E048
:1007400002490143024A1160704700000000FA05A7
:100750000CED00E010B5002000F03BF810BD2DE9D5
:10076000F05F06460F4690461C46DDF828A04FF085
:10077000000BE11704EB5171C910A4EBC10131B9B1
:100780002046E11704EB5171C1F3C70506E020468E
:10079000E11704EB5171C910491CCDB23D4614E07C
:1007A0002946304600F08FF8B1460AE059460BF171
:1007B000010B1AF8010000F07EFB09F1010000F0C6
:1007C000FF09C145F2DB681CC5B2A542E8DBBDE804
:1007D000F09F70B50646002415E004F1B001C8B2E0
:1007E00000F062FB002000F05FFB102000F05CFBDB
:1007F000002504E0304600F05EFB681CC5B2802D89
:10080000F8DB601CC4B2082CE7DB70BD10B5022019
:10081000FFF72AFDAE2000F047FB202000F044FB4C
:10082000102000F041FBB02000F03EFBC82000F09B
:100830003BFB002000F038FB102000F035FB40208F
:1008400000F032FB812000F02FFBFF2000F02CFB9A
:10085000A12000F029FBA62000F026FBA82000F034
:1008600023FB3F2000F020FBA42000F01DFBD32041
:1008700000F01AFB002000F017FBD52000F014FB5D
:10088000F02000F011FBD92000F00EFB222000F038
:100890000BFBDA2000F008FB122000F005FBDB2048
:1008A00000F002FB202000F0FFFA00F001F810BD7C
:1008B00010B58D2000F0F8FA142000F0F5FAAF2002
:1008C00000F0F2FA10BD70B504460D4605F1B00116
:1008D000C8B200F0E9FA102141EA141000F0E4FA7D
:1008E00004F00F0141F0010000F0DEFA70BD0000DD
:1008F0002DE9F0470646894617469A464FF000080C
:1009000000240025BAF1010F03D0BAF1020F5ED125
:1009100025E020E0785D203800F0FF087E2E04DD21
:10092000002609F1010000F0FF0949463046FFF7B3
:10093000CAFF002409E008EB4801264A02EB410106
:10094000085D00F0B8FA601CC4B2062CF3DBB01DE1
:10095000C6B2681CC5B2785D0028DBD137E032E052
:10096000785D203800F0FF08782E04DD002609F1BC
:10097000010000F0FF0949463046FFF7A4FF0024BC
:1009800007E004EB0811144A505C00F094FA601C74
:10099000C4B2082CF5DB09F10100C1B23046FFF703
:1009A00092FF002408E004EB081108310A4A505C69
:1009B00000F081FA601CC4B2082CF4DB06F10800D8
:1009C000C6B2681CC5B2785D0028C9D100BF00BF9F
:1009D000BDE8F087700F000898110008704700000C
:1009E00029B1064AD2690243044BDA6104E0034AA2
:1009F000D2698243014BDA61704700000010024067
:100A000029B1064A92690243044B9A6104E0034A01
:100A100092698243014B9A617047000000100240C6
:100A200030B500210022002400232D4D6D6805F013
:100A30000C0121B1042905D0082923D105E0294D55
:100A4000056022E0274D05601FE0254D6D6805F427
:100A50007012234D6D6805F48034022505EB924237
:100A60001CB9214D554305600BE01D4D6D6805F423
:100A700000351DB11C4D5543056002E0194D55432D
:100A8000056002E0174D056000BF00BF144D6D68A2
:100A900005F0F0010909154D6B5C0568DD40456006
:100AA0000F4D6D6805F4E061090A104D6B5C4568F7
:100AB000DD4085600A4D6D6805F46051C90A0B4D33
:100AC0006B5C4568DD40C560054D6D6805F44041CF
:100AD000890B074D6B5CC568B5FBF3F5056130BD4F
:100AE0000010024000127A0000093D0014000020AE
:100AF00024000020704710B500F002F810BD00007F
:100B00000CB50020019000903348006840F480301C
:100B10003149086000BF3048006800F400300090A0
:100B20000198401C0190009818B90198B0F5A06F89
:100B3000F1D12948006800F4003010B10120009084
:100B400001E0002000900098012843D1234800686C
:100B500040F01000214908600846006820F00300BA
:100B600008600846006840F0020008601A484068C3
:100B7000194948600846406848600846406840F4A3
:100B8000806048600846406820F47C104860084651
:100B9000406840F4E81048600846006840F0807003
:100BA000086000BF0C48006800F000700028F9D011
:100BB0000948406820F0030007494860084640683B
:100BC00040F00200486000BF0348406800F00C009D
:100BD0000828F9D10CBD000000100240002002409E
:100BE0007047000010B51348006840F0010011493B
:100BF000086008464068104908400E4948600846A9
:100C000000680E4908400B4908600846006820F457
:100C1000802008600846406820F4FE0048604FF4D9
:100C20001F008860FFF767FF4FF00060044908600D
:100C300010BD0000001002400000FFF8FFFFF6FEAC
:100C400008ED00E07FB505460C4601210220FFF7C4
:100C5000C7FEADF80850ADF804400020ADF806001E
:100C6000ADF80A0001A9104800F066F8012211460B
:100C70000D4800F057F801210B4800F036F84FF40A
:100C8000A060FFF75DFD1D208DF8000002208DF8AB
:100C9000010000208DF8020001208DF80300684655
:100CA000FFF716FD7FBD00000004004010B50121D4
:100CB000094800F026F8012808D108480078C04308
:100CC0000649087020210648FFF765FB012102480C
:100CD00000F008F810BD00000004004035000020BE
:100CE000000C0140CA430282704721B1028842F0E1
:100CF0000102028004E002884FF6FE731A4002806F
:100D0000704730B50246002000230024158A05EA0A
:100D10000103958905EA010413B10CB1012000E03B
:100D2000002030BD1AB183890B43838102E083899F
:100D30008B43838170470000002202881D4B98423C
:100D40000ED01D4B98420BD0B0F1804F08D01B4BFA
:100D5000984205D01A4B984202D01A4B984204D1BF
:100D60004FF68F731A404B881A43174B984207D09F
:100D7000164B984204D04FF6FF431A40CB881A43D3
:100D800002808B8883850B8803850A4B98420BD0A1
:100D9000094B984208D00E4B984205D00D4B984213
:100DA00002D00D4B984201D10B7A03860123838236
:100DB00070470000002C0140003401400004004056
:100DC00000080040000C00400010004000140040EB
:100DD00000400140004401400048014010B540F28D
:100DE00025510E4800F02FF8012811D10B4800F0D2
:100DF00054F80B490B4A128888540A480088401C52
:100E00000849088008460088322801D1002008805F
:100E100040F22551014800F007F810BD00380140AC
:100E2000B80400203000002010B50022002340F656
:100E30006A14A14200D100BF0A1201249440A3B257
:100E4000DC43048010BD70B5024600240023002559
:100E5000002040F66A16B14200D100BFC1F342152E
:100E600001F01F03012606FA03F3012D02D1968932
:100E7000334006E0022D02D1168A334001E0968A03
:100E800033400C12012606FA04F41688344013B1DC
:100E90000CB1012000E0002070BD01468888C0F33D
:100EA0000800704700BFFEE710B504462146002049
:100EB000FFF796FB10BD10B5044621464020FFF712
:100EC0008FFB10BD02E008C8121F08C1002AFAD12A
:100ED00070477047002001E001C1121F002AFBD1BA
:100EE0007047000008B5FFF781F94FF4E15142F275
:100EF0001070FFF7A7FEFFF7B9FBFFF7ADFAFFF79A
:100F000085FC21E0FF20FFF764FC0220FFF7ACF92D
:100F1000FFF720FC01230DA203210020FFF7E8FCCE
:100F200002230EA205210020FFF7E2FC0420FFF7B8
:100F30009BF90E4808238022002100900846FFF705
:100F40000EFC0A20FFF790F9DCE7000057696C649B
:100F500066697265205465636800000048656C6CC2
:100F60006F2077696C64666972650000B6000020C6
:100F70000000000000000000002F0000000007003B
:100F8000070000147F147F1400242A7F2A120062B5
:100F90006408132300364955225000000503000061
:100FA00000001C224100000041221C000014083EE9
:100FB00008140008083E0808000000A060000008AF
:100FC0000808080800006060000000201008040203
:100FD000003E5149453E0000427F400000426151C1
:100FE0004946002141454B31001814127F1000275B
:100FF00045454539003C4A4949300001710905031E
:1010000000364949493600064949291E000036364E
:1010100000000000563600000008142241000014B1
:10102000141414140000412214080002015109068E
:1010300000324959513E007C1211127C007F49490F
:101040004936003E41414122007F4141221C007F40
:1010500049494941007F09090901003E4149497A4E
:10106000007F0808087F0000417F410000204041C8
:101070003F01007F08142241007F40404040007F34
:10108000020C027F007F0408107F003E4141413E78
:10109000007F09090906003E4151215E007F0919C0
:1010A00029460046494949310001017F0101003FBD
:1010B0004040403F001F2040201F003F4038403F3D
:1010C00000631408146300070870080700615149A1
:1010D000454300007F41410000552A552A55000034
:1010E00041417F00000402010204004040404040B2
:1010F000000001020400002054545478007F48444A
:10110000443800384444442000384444487F003880
:101110005454541800087E0901020018A4A4A47CA9
:10112000007F080404780000447D40000040808473
:101130007D00007F102844000000417F4000007CBB
:1011400004180478007C08040478003844444438C7
:1011500000FC242424180018242418FC007C080413
:10116000040800485454542000043F444020003CEC
:101170004040207C001C2040201C003C4030403C73
:10118000004428102844001CA0A0A07C0044645403
:101190004C44141414141414000000000000000047
:1011A0000000000000000000000000F80000000047
:1011B000000000333000000000100C06100C060088
:1011C000000000000000000040C07840C0784000EF
:1011D000043F04043F040400007088FC0830000051
:1011E000001820FF211E0000F008F000E0180000A9
:1011F00000211C031E211E0000F008887000000062
:101200001E2123241927211010160E0000000000B3
:101210000000000000000000000000E018040200D0
:10122000000000071820400000020418E000000041
:101230000040201807000000404080F0804040003F
:101240000202010F01020200000000F00000000095
:101250000101011F01010100000000000000000069
:1012600080B07000000000000000000000000000DE
:101270000001010101010101000000000000000067
:101280000030300000000000000000008060180402
:10129000006018060100000000E010080810E000DF
:1012A000000F102020100F00001010F800000000A8
:1012B0000020203F202000000070080808887000EF
:1012C000003028242221300000300888884830006F
:1012D0000018202020110E000000C02010F800008F
:1012E00000070424243F240000F808888808080028
:1012F0000019212020110E0000E01088881800003D
:10130000000F112020110E0000380808C83808000E
:101310000000003F0000000000708808088870008E
:10132000001C222121221C0000E010080810E0000F
:101330000000312222110F00000000C0C000000098
:1013400000000030300000000000008000000000BD
:1013500000008060000000000000804020100800B5
:10136000000102040810200040404040404040007E
:101370000404040404040400000810204080000059
:101380000020100804020100007048080808F0005E
:101390000000003036010000C030C828E810E0002E
:1013A0000718272423140B000000C038E0000000B9
:1013B000203C23020227382008F888888870000023
:1013C000203F202020110E00C030080808083800F7
:1013D000071820202010080008F808080810E0006E
:1013E000203F202020100F0008F88888E80810000F
:1013F000203F20202320180008F88888E8081000E3
:10140000203F200003000000C0300808083800001A
:1014100007182020221E020008F808000008F8081B
:10142000203F210101213F20000808F808080000A2
:101430000020203F2020000000000808F8080800D5
:10144000C08080807F00000008F888C0281808004D
:10145000203F20012638200008F808000000000086
:10146000203F20202020300008F8F800F8F808007D
:10147000203F003F003F200008F830C00008F80877
:10148000203F200007183F00E01008080810E00087
:101490000F10202020100F0008F808080808F0009E
:1014A000203F210101010000E01008080810E000C1
:1014B0000F18242438504F0008F888888888700056
:1014C000203F2000030C30200070880808083800F6
:1014D0000038202121221C00180808F808081800EC
:1014E0000000203F2000000008F808000008F8086D
:1014F000001F202020201F000878880000C838081E
:10150000000007380E010000F80800F80008F80095
:10151000033C0700073C030008186880806818082F
:1015200020302C03032C30200838C800C8380800AD
:101530000000203F2000000010080808C8380800FC
:101540002038262120201800000000FE02020200A0
:101550000000007F40404000000C30C00000000050
:10156000000000010638C00000020202FE00000078
:10157000004040407F00000000000402020204001E
:10158000000000000000000000000000000000005B
:101590008080808080808080000202040000000043
:1015A000000000000000000000008080808000003B
:1015B0000019242222223F2008F800808000000029
:1015C000003F112020110E000000008080800000EC
:1015D000000E112020201100000000808088F800FB
:1015E000000E112020103F2000008080808000002D
:1015F000001F222222221300008080F08888881891
:101600000020203F2020000000008080808080009B
:10161000006B94949493600008F800808080000030
:10162000203F210000203F2000809898000000000B
:101630000020203F2020000000000080989800003B
:1016400000C08080807F000008F80000808080005B
:10165000203F24022D302000000808F80000000080
:101660000020203F2020000080808080808080003B
:10167000203F20003F20003F8080008080800000CD
:10168000203F210000203F2000008080808000005B
:10169000001F202020201F0080800080800000008C
:1016A00080FFA12020110E000000008080808000BB
:1016B000000E112020A0FF808080800080808000AC
:1016C00020203F21200001000000808080808000D9
:1016D0000033242424241900008080E0808000004E
:1016E0000000001F2020000080800000008080009B
:1016F000001F202020103F208080800000808080FC
:1017000000010E300806010080800080008080808B
:101710000F300C030C300F000080800080808000B0
:101720000020312E0E3120008080800000808080DB
:1017300080818E701806010000808080808080008B
:101740000021302C2221300000000000807C0202A9
:1017500000000000003F404000000000FF000000CB
:1017600000000000FF0000000002027C800000007A
:101770000040403F00000000000601010202040496
:101780000000000000000000A81700080000002072
:10179000B8040000900100084C190008B8040020AB
:1017A00038040000D40E00081184A24A046809011C
:1017B000020304060708090C6910A50204060824A0
:1017C000173B372CFE9292031117424AD26A46C049
:1017D000100940C444443F2424241440807F420123
:1017E00033C03822FF344020181008808140201078
:1017F0000C031008030C1020408080172424A4FE42
:10180000A3223B22CC242115080601FF2B01040151
:1018100015FF020202180C101010FF1090088888A3
:1018200088FF04120820100444827F018080404316
:101830002C1028468180100A03050911FF11890523
:10184000C312E012F072F8073D4428FF11AA447059
:101850000B830138448292927401831E7C44C70139
:101860007D01990539B3219A0102818A010B013664
:1018700069419949FA0101A12A4001212A6D0121FA
:101880002A6001791501642ADB010915072ADA01AA
:10189000212AD801212AC0010915072A8001013512
:1018A0002A06010918071CE66620076A86157A864B
:1018B0001C2A8601180A80808686068686C0C00C8F
:1018C0000E1C0606D030764D2907013113601C121C
:1018D000FE1301021009C41820029E63B20E1DFF00
:1018E0008181FFF24440300F12FF180923EAAABF9A
:1018F000AAEA033F0B012DBC808080080115240E4D
:101900000C082A01013149041D81808081021901DE
:10191000B91706110101090C0E0A14C0012178083B
:101920001E21404050215E08012A4DFFFFC1C10425
:1019300009232D281580FCF3EFF3FC80FF80EEEEE9
:0C194000EEF5FBFF9CBEB6B6883A000036
:0400000508000131BD
:00000001FF
