:020000040800F2
:1000000060050020490100084D120008D5050008D0
:1000100049120008E1010008272400080000000040
:10002000000000000000000000000000E91E0008C1
:100030006B020008000000002B170008B520000824
:100040006301000863010008630100086301000800
:1000500063010008630100086301000863010008F0
:1000600063010008630100086301000863010008E0
:1000700063010008630100086301000863010008D0
:1000800063010008630100086301000863010008C0
:1000900063010008630100086301000863010008B0
:1000A00063010008630100086301000863010008A0
:1000B0006301000863010008630100086301000890
:1000C0006301000863010008630100086301000880
:1000D00063010008C92100086301000863010008EA
:1000E0006301000863010008630100086301000860
:1000F0006301000863010008630100086301000850
:10010000630100086301000863010008630100083F
:10011000630100086301000863010008630100082F
:10012000630100086301000863010008630100081F
:10013000DFF810D000F042F80048004725280008FA
:10014000AFF300806005002006488047064800475E
:10015000FEE7FEE7FEE7FEE7FEE7FEE7FEE7FEE777
:10016000FEE7FEE7B920000831010008D2B201E045
:1001700000F8012B491EFBD270470022F6E710B5AC
:1001800013460A4604461946FFF7F0FF204610BD05
:1001900030B50B46014600202022012409E021FA57
:1001A00002F59D4205D303FA02F5491B04FA02F554
:1001B0002844151EA2F10102F1DC30BD064C074DAA
:1001C00006E0E06840F0010394E807009847103427
:1001D000AC42F6D3FFF7B0FF7064000890640008EB
:1001E00000BFFEE72DE9F041074688461546042189
:1001F000052000F02DF80021012002F017F98021E0
:100200000A2001F072FE002405E0395D092002F0A9
:100210000DF9601CC4B24445F7DB0321012002F054
:1002200005F9FF2400BF052001F070FC0646601EA2
:10023000C4B21CB106F004000028F4D0222001F062
:1002400065FC2870212001F061FC6870BDE8F08138
:1002500070B505460C46284601F058FC064626EACD
:100260000401284602F0E2F870BD704700204FF00C
:10027000E0210861094800680949B0FBF1F009492B
:100280000860084600684FF47A71484306490860E0
:1002900000204FF0E021886170470000000000203E
:1002A00000DD6D00280000202C0000200146002009
:1002B0000C4A12684A434FF0E0235A6100229A61C7
:1002C00001221A6100BF4FF0E022106900F4803271
:1002D0001AB900F00102002AF5D100224FF0E02304
:1002E0001A6170472C000020014600200E4A126857
:1002F0004A434FF0E0235A6100229A611A4612697C
:1003000042F001021A6100BF4FF0E022106900F4D0
:1003100080321AB900F00102002AF5D100224FF014
:10032000E0231A61704700002800002051B18200CC
:10033000A2F1C042126842F001038200A2F1C04261
:10034000136009E08200A2F1C0421268034B1A4018
:100350008300A3F1C0431A6070470000FEFF0F0046
:10036000D0E901121143C268114302691143426985
:10037000114382691143C2691143026A1143426AFF
:100380001143826A1143C26A1143026B114302682E
:100390009200A2F1C0421160816808290BD1016866
:1003A0008900A1F1C041096841F04002016889005B
:1003B000A1F1C0410A60416B0968426B526841EA91
:1003C0000211426B926841EA0221426B928941EA32
:1003D0000241426B128A41EA0251426B127D41EAAC
:1003E0000261426B926911430268521C9200A2F1B1
:1003F000C0421160C16AB1F5804F1BD1816B0968A1
:10040000826B526841EA0211826B926841EA0221D2
:10041000826B128A41EA0251826B127D41EA0261CB
:10042000826B9269114302689200A2F1C042C2F845
:10043000041107E06FF0704201688900A1F1C0412A
:10044000C1F8042170472DE9F0410246002500263D
:10045000002000230024002791F803C00CF00F05B2
:1004600091F803C00CF0100CBCF1000F03D091F810
:1004700002C04CEA050591F800C0BCF1000F31D074
:10048000146800202BE04FF0010C0CFA00F3B1F8D7
:1004900000C00CEA03069E4220D183004FF00F0CEF
:1004A0000CFA03F7BC4305FA03FC4CEA040491F888
:1004B00003C0BCF1280F06D14FF0010C0CFA00FC70
:1004C000C2F814C00AE091F803C0BCF1480F05D18E
:1004D0004FF0010C0CFA00FCC2F810C0401C0828B8
:1004E000D1D31460B1F800C0BCF1FF0F34DD546803
:1004F00000202EE000F1080C4FF0010808FA0CF380
:10050000B1F800C00CEA03069E4221D183004FF0EF
:100510000F0C0CFA03F7BC4305FA03FC4CEA040485
:1005200091F803C0BCF1280F05D100F1080C08FABE
:100530000CF8C2F8148091F803C0BCF1480F07D141
:1005400000F1080C4FF0010808FA0CF8C2F810800E
:10055000401C0828CED35460BDE8F081024600203C
:1005600093680B400BB1012000E00020704741610F
:100570007047016170470AB1016100E04161704755
:100580002DE9F04180460C461048007820B901F072
:1005900081FB01200D4908702512E6B2A5F1A101E9
:1005A000C1EB011202EB411106EB4101A139080236
:1005B000C11700EB5171CF10054839182022404671
:1005C00001F040FB0020BDE8F08100005000002059
:1005D0000030180000BFFEE710B504462CB14FF400
:1005E00080510548FFF7C3FF04E04FF480510248F3
:1005F000FFF7BFFF10BD0000001401402DE9F041DE
:1006000006460F4614461D462B46224639463046BE
:1006100000F0FCFA04FB05F00249098800F087F9B4
:10062000BDE8F0816200002001B502E00098401EA4
:10063000009000980028F9D108BD00002DE9F04392
:1006400089B080468946174610231A4649464046D7
:1006500000F0DCFA2C2000F083FD394601A8FFF7FA
:100660008FFF002422E001A810F814604FF6FF70FD
:1006700000EA0626012000EB440001A9085C0643BD
:1006800000250FE04FF400402841304020B10A48D7
:10069000008800F069FD03E00848008800F064FD70
:1006A000681CC5B2102DEDDB601CC4B2102CDADB67
:1006B00009B0BDE8F0830000600000206200002067
:1006C0002DE9F05F804689461646A6F120001FFA04
:1006D00080FA1E49096889881C4A1268D28801FB81
:1006E00002F0C11700EB5171C1F3C707174800684A
:1006F00000680AFB070B15480068C38813480068A8
:1007000082884946404600F081FA2C2000F028FDFE
:10071000002416E0002510E01BF804008021294188
:10072000084020B10A48008800F01EFD03E0094897
:10073000008800F019FD681CC5B2082DECDB601CB8
:10074000C4B2BC42E6DBBDE8F09F00005C000020C4
:1007500060000020620000202DE9F04105460C46B3
:10076000002648E020787E2825DC304624490968A8
:100770008988084423490988884205DD00262048E5
:100780000068C088284485B228461D490968C98880
:1007900008441D490988884201DD00260025227889
:1007A00029463046FFF78CFF1548006880883044A2
:1007B00086B2641C1FE03046103012490988884216
:1007C00003DD002605F1100085B2284610300E49E1
:1007D0000988884201DD002600252788380200EBC1
:1007E000272087B23A4629463046FFF727FF06F111
:1007F000100086B2A41C20780028B3D1BDE8F08197
:100800005C00002054000020560000202DE9F0413B
:1008100005460E46144648E020787E2825DC28460A
:10082000244909688988084423490988884205DDE4
:10083000002520480068C088304486B230461D49F3
:100840000968C98808441D490988884201DD0025D6
:100850000026227831462846FFF732FF1548006807
:100860008088284485B2641C1FE028461030124955
:100870000988884203DD002506F1100086B2304663
:1008800010300E490988884201DD0025002627889E
:10089000380200EB272087B23A4631462846FFF758
:1008A000CDFE05F1100085B2A41C20780028B3D13C
:1008B000BDE8F0815C0000205400002056000020BC
:1008C00000B597B03C2108A8FFF757FC1C2101A8F0
:1008D000FFF753FC0121080201F08EF8012001907E
:1008E0000420039080060790002002900490059059
:1008F00006900890099008200A9010200B90002084
:100900000C900E900F9010904FF48050119000209A
:1009100012901390149001A81590169008A8FFF754
:100920001FFD01210020FFF701FD17B000BD70B5CC
:1009300004460D4600262C2000F012FC00BF03E008
:10094000284600F011FC761CA642F9D370BD0000C9
:1009500008B50121602001F05FF803208DF8020046
:1009600018208DF803004FF48040ADF80000694670
:100970005B48FFF768FD4FF40040ADF800006946A2
:100980005748FFF760FD0120ADF800006946544864
:10099000FFF759FD0220ADF8000069465048FFF707
:1009A00052FD8020ADF8000069464E48FFF74BFD30
:1009B0004FF48070ADF8000069464A48FFF743FDE8
:1009C0004FF40070ADF8000069464648FFF73BFD64
:1009D0004FF48060ADF8000069464248FFF733FDF0
:1009E0004FF40060ADF8000069463E48FFF72BFD6C
:1009F0004FF48050ADF8000069463A48FFF723FDF8
:100A00004FF40050ADF8000069463648FFF71BFD73
:100A10004FF48040ADF8000069463248FFF713FDFF
:100A20004FF40040ADF8000069462E48FFF70BFD7B
:100A30004FF48070ADF8000069462948FFF703FDC8
:100A40004FF40070ADF8000069462548FFF7FBFC45
:100A50004FF48060ADF8000069462148FFF7F3FCD1
:100A600003208DF8020018208DF803001020ADF847
:100A7000000069461A48FFF7E6FC2020ADF80000A8
:100A800069461748FFF7DFFC8020ADF80000694693
:100A90001348FFF7D8FC4FF40060ADF8000069463A
:100AA0000F48FFF7D0FC10208DF8030003208DF8CD
:100AB00002000220ADF8000069460A48FFF7C3FCB7
:100AC00010208DF8030003208DF802004FF48050B1
:100AD000ADF8000069460248FFF7B5FC08BD00000C
:100AE000001401400018014010B50446072C00DD39
:100AF00010BD31480470204604EBD0714910A4EBBE
:100B0000410139B9F0202D4908804FF4A0702C49DB
:100B1000088006E04FF4A07028490880F02028499A
:100B20000880362000F01CFB2648008849F241313D
:100B3000884205D1082141EA441000F015FB0AE083
:100B40002048008848F25251884204D1002141EAED
:100B5000441000F009FB2A2000F002FB002000F006
:100B600003FB002000F000FB14490988491EC1F373
:100B7000072000F0F9FA11490978491EC8B200F0BF
:100B8000F3FA2B2000F0ECFA002000F0EDFA002040
:100B900000F0EAFA0A490988491EC1F3072000F06B
:100BA000E3FA07490978491EC8B200F0DDFA2C20A3
:100BB00000F0D6FA00BF9BE7580000205400002048
:100BC000560000205A00002010B5FFF7C1FEFFF7C5
:100BD00077FE0120FFF700FD00F0AEFA00F046F8C6
:100BE00009480078FFF780FF002000F0C9FA4FF4B1
:100BF000784000F0CBFA4FF4A073F02200210846B1
:100C0000FFF7FCFC10BD0000580000202DE9F0416A
:100C100004460D4616461F462A2000F0A1FA20126F
:100C200000F0A2FAE0B200F09FFAA119491EC1F348
:100C30000F2000F099FAA119491EC8B200F094FAE9
:100C40002B2000F08DFA281200F08EFAE8B200F0A6
:100C50008BFAE919491EC1F30F2000F085FAE91952
:100C6000491EC8B200F080FABDE8F08110B500F06E
:100C700025FAFE4908800846008849F24131884239
:100C80007ED1CF2000F06CFA002000F06DFA8120B8
:100C900000F06AFA302000F067FAED2000F060FA08
:100CA000642000F061FA032000F05EFA122000F0E8
:100CB0005BFA812000F058FAE82000F051FA852014
:100CC00000F052FA102000F04FFA782000F04CFAB1
:100CD000CB2000F045FA392000F046FA2C2000F035
:100CE00043FA002000F040FA342000F03DFA0620DC
:100CF00000F03AFAF72000F033FA202000F034FA3E
:100D0000EA2000F02DFA002000F02EFA002000F07A
:100D10002BFAB12000F024FA002000F025FA1B2065
:100D200000F022FAB62000F01BFA0A2000F01CFAAC
:100D3000A22000F019FAC02000F012FA352000F0CD
:100D400013FAC12000F00CFA112000F00DFAC520B2
:100D500000F006FA452000F007FA452000F004FAFA
:100D6000C72000F0FDF9A22000F0FEF9F22000F00B
:100D7000F7F9002000F0F8F9262000F0F1F900E082
:100D800096E0012000F0F0F9E02000F0E9F90F20F2
:100D900000F0EAF9262000F0E7F9242000F0E4F959
:100DA0000B2000F0E1F90E2000F0DEF9092000F040
:100DB000DBF9542000F0D8F9A82000F0D5F946203E
:100DC00000F0D2F90C2000F0CFF9172000F0CCF998
:100DD000092000F0C9F90F2000F0C6F9072000F043
:100DE000C3F9002000F0C0F9E12000F0B9F90020BB
:100DF00000F0BAF9192000F0B7F91B2000F0B4F99F
:100E0000042000F0B1F9102000F0AEF9072000F046
:100E1000ABF92A2000F0A8F9472000F0A5F9392005
:100E200000F0A2F9032000F09FF9062000F09CF9E1
:100E3000062000F099F9302000F096F9382000F0F3
:100E400093F90F2000F090F9362000F089F9C820BE
:100E500000F08AF92A2000F083F9002000F084F9DC
:100E6000002000F081F9002000F07EF9EF2000F072
:100E70007BF92B2000F074F9002000F075F90020B8
:100E800000F072F9012000F06FF93F2000F06CF9DA
:100E90003A2000F065F9552000F066F9112000F0C5
:100EA0005FF97348FFF7C0FB292000F059F901E111
:100EB0006E48008848F252518842F8D1CF2000F0A5
:100EC0004FF9002000F050F9C12000F04DF930201A
:100ED00000F04AF9ED2000F043F9642000F044F9F5
:100EE000032000F041F9122000F03EF9812000F0CB
:100EF0003BF9E82000F034F9852000F035F91020A6
:100F000000F032F9782000F02FF9CB2000F028F91A
:100F1000392000F029F92C2000F026F9002000F0FB
:100F200023F9342000F020F9022000F01DF9F72009
:100F300000F016F9202000F017F9EA2000F010F96F
:100F4000002000F011F9002000F00EF9C02000F0A0
:100F500007F9212000F008F9C12000F001F9112063
:100F600000F002F9C52000F0FBF82D2000F0FCF89D
:100F7000332000F0F9F8362000F0F2F8002000F0FD
:100F8000F3F83A2000F0ECF8552000F0EDF8B1202D
:100F900000F0E6F8002000F0E7F8172000F0E4F891
:100FA000B62000F0DDF80A2000F0DEF8A22000F004
:100FB000DBF8F62000F0D4F8012000F0D5F830205E
:100FC00000F0D2F8F22000F0CBF8002000F0CCF8CE
:100FD000262000F0C5F8012000F0C6F8E02000F05F
:100FE000BFF8D02000F0C0F8002000F0BDF80220CB
:100FF00000F0BAF8072000F0B7F80B2000F0B4F8C2
:101000001A2000F0B1F8312000F0AEF8542000F0C2
:10101000ABF8402000F0A8F8292000F0A5F8122035
:1010200000F0A2F8122000F09FF8122000F09CF8C7
:10103000172000F099F8E12000F092F8D02000F09D
:1010400093F8002000F090F8022000F08DF80720BF
:1010500000F08AF8052000F087F8252000F084F8D9
:101060002D2000F081F8442004E000005A00002008
:10107000FCBF020000F078F8452000F075F81C2055
:1010800000F072F8182000F06FF8162000F06CF8ED
:101090001C2000F069F81D2000F066F8112000F017
:1010A0005FF80548FFF7C0FA292000F059F82C2016
:1010B00000F056F810BD0000FCBF020010B500247F
:1010C000042000F04DF800BF1748008800BF164804
:1010D000008800F02BF804464FF6FF7000EA042465
:1010E00000F024F8044348F25250844201D12046D3
:1010F00010BDD32000F034F800BF0B48008800BFBB
:101100000948008800F012F804464FF6FF7000EA24
:10111000042400F00BF8044349F24130844201D129
:101120002046E5E70020E3E7000002600148008870
:10113000704700000000026010B502210748FFF769
:1011400016FA40F6FF20FFF76FFA02210348FFF777
:1011500010FA40F6FF20FFF767FA10BD00180140B3
:101160004FF0C04108807047014908807047000077
:101170000000026001480068704700005C00002029
:101180000149088070470000620000200149088082
:10119000704700006000002008B501210C2000F01D
:1011A0003BFC2320ADF8000010208DF80300022046
:1011B0008DF8020069460D48FFF745F94FF480703D
:1011C000ADF8000069460A48FFF73DF901221146D3
:1011D0000648FFF7D0F9012202210448FFF7CBF9B6
:1011E000012220210148FFF7C6F908BD000C01408B
:1011F0000008014010B50446412C24D108210846BE
:10120000FFF726F83D21112001F010F98621172063
:1012100001F00CF97F21262001F008F91E212D2074
:1012200001F004F900212C2001F000F98D212A2081
:1012300001F0FCF83E212B2001F0F8F80220FFF726
:1012400053F800F047F810BD00BFFEE770470000FC
:1012500070B5002100230F22C47804B3154C246814
:1012600004F4E064C4F5E064210AC1F10403CA4057
:10127000447804FA03F184781440214309010E4CA8
:101280000678A155047804F01F050124AC400578C8
:101290006D11AD0005F1E025C5F8004109E00478C5
:1012A00004F01F050124AC40044D0678761145F882
:1012B000264070BD0CED00E000E400E080E100E0BD
:1012C00002490143024A1160704700000000FA051C
:1012D0000CED00E010B5142000F018FC044604F0FA
:1012E000030018B90321142000F0FFFD10BDF0B574
:1012F00087B00546002708210846FEF7A9FF002110
:101300000D2001F093F880210E20FEF7A1FF93201D
:101310008DF8040020208DF8050006A801AB0222FC
:1013200001A900900C2000F045F8064686B900247B
:1013300007E001A8005D285501A8005D4740601C3A
:10134000C4B2042CF5DB01A8005DB84200D002262F
:1013500080210E2000F0C9FD304607B0F0BD2DE918
:10136000F04188B004460D4616461F468DF80840E9
:101370008DF809503068CDF80A00B088ADF80E003D
:101380003868049007A802AB0C2202A900900E2036
:1013900000F010F88046B8F1000F05D1082000F0E9
:1013A000B5FB00F0080008B94FF00208404608B04D
:1013B000BDE8F0812DE9FE4F0646884691469A46E3
:1013C000DDF830B0022002900020019000900C2E39
:1013D00006D00E2E09D1122001901020009005E0B9
:1013E000772001903020009000E000BF00BF0198FE
:1013F00040F08001022001F019F880210420FEF75E
:1014000027FF0021012001F011F880210A2000F0BF
:101410006CFD002506E018F80510092001F006F81B
:10142000681C85B24D45F6DB3146012000F0FEFF19
:101430000C2E03D180210D2000F057FD4FF47A755A
:1014400000BF042000F062FB0446681E85B235B17F
:1014500004F0010018B9009820400028F1D0802144
:101460000D20FEF7F5FE002D38D0062000F04EFBD3
:1014700000F01B0078BB002002900198204000F093
:10148000010008B1012002900C2E27D10A2000F0A3
:101490003DFB04460C2000F039FB00F007072FB19C
:1014A000601E07EBC0008BF8000003E0E006000EB2
:1014B0008BF8000004B90124122C00DD1224002551
:1014C00006E0092000F022FB0AF80500681C85B23E
:1014D000A542F6DB02E0FFE70220029080210C200B
:1014E00000F003FD0021012000F0A0FF0298BDE8FC
:1014F000FE8FF0B587B005460E4630208DF804000B
:101500008DF805500DF10602022101A8FEF76AFED2
:1015100006A801AB042201A900900C20FFF74AFFA6
:1015200007466FB99DF81800902809D1002404E0FF
:1015300001A8005D3055601CC4B2102CF8DB00E03F
:101540000227384607B0F0BD70B588B005460C4696
:1015500008210846FEF77CFE07210D2000F066FFFB
:101560000321142000F0C1FC8DF8085007A802AB3D
:10157000012202A900900C20FFF71CFF064656B975
:101580009DF81C00102806D19DF8080020709DF8D9
:101590000900607000E00226304608B070BD00000F
:1015A00010B501211D48FEF7E4FF0120FEF79CFE67
:1015B00001211A48FEF7DBFF0120FEF795FE01210D
:1015C0001648FEF7D6FF0120FEF78EFE0F21012000
:1015D00000F02CFF00BF012000F098FA00F010008E
:1015E0000028F8D10120FEF77FFE3D21112000F0F8
:1015F0001DFF1E212D2000F019FF00212C2000F0DE
:1016000015FF8D212A2000F011FF3E212B2000F034
:101610000DFF4021152000F009FF10BD000C014016
:1016200070B588B0054693208DF8080070208DF8BD
:10163000090000208DF80E0000240BE0295D02AAAD
:10164000A01C11549DF80E00295D48408DF80E0035
:10165000601CC4B2042CF1DB0DF10F02072102A8BB
:10166000FEF7C0FD08210846FEF7F2FD07A802AB11
:10167000092202A900900C20FFF79CFE06462EB915
:101680009DF81C00182801D1002600E002263046F3
:1016900008B070BDF0B587B006460F46A0208DF8A3
:1016A00004008DF805600DF10602022101A8FEF785
:1016B00099FD06A801AB042201A900900C20FFF7B8
:1016C00079FE05464DB99DF81800042805D19DF80E
:1016D000040000F00F000A2800D0022515BB0024EA
:1016E00004E0385D01A90855601CC4B2102CF8DB79
:1016F00005AA102101A8FEF775FD06A801AB12226C
:1017000001A900900C20FFF755FE05464DB99DF844
:101710001800042805D19DF8040000F00F000A28E5
:1017200000D00225284607B0F0BD704710B500F084
:1017300007FA01210648FEF71CFF10210548FEF7B5
:1017400018FFFFF72DFF4120FFF754FD10BD0000EB
:10175000000C01400008014010B5002475495220DA
:10176000FFF7F2FE744908700846007830B902208D
:1017700008707248FFF7BBFD6F4908706E4800782B
:1017800050B902206C4908706C4800F031FC6B487D
:10179000FFF746FF6849087067480078E0B9022003
:1017A00065490870654B664A09216020FFF7D7FD3F
:1017B000614908700846007838B962A1644800F0B1
:1017C0005DFE634800F036FD06E062A1604800F06F
:1017D00055FE5F4800F02EFD57480078002838D1AC
:1017E0000220554908705E495E480078FFF781FE87
:1017F000514908700846007820BB5BA1544800F0AE
:101800003DFE534800F016FD5AA15B4800F036FE3D
:10181000002411E05248025D58A14D4800F02EFE10
:101820004F48035D544A56A1104600F027FE484831
:1018300000F000FD601CC4B2102CEBDB52A000F0E5
:10184000F9FC06E051A1424800F018FE404800F0C3
:10185000F1FC39480078D8B90220374908704E4960
:1018600040480078FFF716FF3349087008460078B3
:1018700038B94AA1364800F001FE354800F0DAFCDC
:1018800006E049A1324800F0F9FD314800F0D2FCF1
:1018900029480078002843D10220274908703049A0
:1018A00030480078FFF725FE234908700846007885
:1018B00000282ED13FA1264800F0E0FD244800F08A
:1018C000B9FC2CA13E4800F0D9FD002411E02448C9
:1018D000025D2AA11E4800F0D1FD2148035D384A6F
:1018E00027A1104600F0CAFD194800F0A3FC601CB7
:1018F000C4B2102CEBDB33A1154800F0BFFD144837
:1019000000F098FC34A000F095FC012033490870E9
:1019100006E033A10E4800F0B1FD0D4800F08AFC4E
:101920000548007828B90220034908706420FEF7B2
:10193000BDFC10BD64000020800000206600002077
:101940006A000020CAB6B1F0B3C9B9A6200D0A00DA
:10195000CA000020CAB6B1F0CAA7B0DC200D0A0048
:10196000BA00002081000020BFA8C6ACC4DAC8DDE0
:101970003A00000000000000FC0000202532630057
:101980002573253263000000200A2000B6C1BFA8DD
:10199000CAA7B0DC200D0A0070000020D0B4BFA898
:1019A000B3C9B9A6200D0A00D0B4BFA8CAA7B0DC3D
:1019B000200D0A00D0B4BFA8C4DAC8DD3A00000088
:1019C0002E0100200A20CFD4CABED0B4BFA8C4DAEA
:1019D000C8DDB3C9B9A6200D0A00000082000020AE
:1019E0000ACFD4CABED0B4BFA8C4DAC8DDCAA7B073
:1019F000DC200D0A0000000029B1064A52690243AA
:101A0000044B5A6104E0034A52698243014B5A6114
:101A1000704700000010024029B1064A9269024353
:101A2000044B9A6104E0034A92698243014B9A6134
:101A3000704700000010024030B500210022002451
:101A400000232D4D6D6805F00C0121B1042905D04E
:101A5000082923D105E0294D056022E0274D0560C6
:101A60001FE0254D6D6805F47012234D6D6805F477
:101A70008034022505EB92421CB9214D5543056087
:101A80000BE01D4D6D6805F400351DB11C4D55432F
:101A9000056002E0194D5543056002E0174D0560F1
:101AA00000BF00BF144D6D6805F0F0010909154D28
:101AB0006B5C0568DD4045600F4D6D6805F4E061C5
:101AC000090A104D6B5C4568DD4085600A4D6D6804
:101AD00005F46051C90A0B4D6B5C4568DD40C5607B
:101AE000054D6D6805F44041890B074D6B5CC56879
:101AF000B5FBF3F5056130BD0010024000127A001D
:101B000000093D00140000202400002070B50446A8
:101B10007E2000EA440040F0800510210748FEF7CF
:101B200026FD284600F096F900F06EF906461021D1
:101B30000248FEF71EFD304670BD0000000801405F
:101B400000B587B001210C20FFF766FF01210803D3
:101B5000FFF762FF1020ADF818008DF81B0003207E
:101B60008DF81A0006A92E48FEF76DFC2020ADF86E
:101B7000180010208DF81B0003208DF81A0006A90C
:101B80002748FEF760FC4020ADF8180004208DF8CF
:101B90001B0003208DF81A0006A92148FEF753FC0C
:101BA0008020ADF8180010208DF81B0003208DF860
:101BB0001A0006A91A48FEF746FC0120ADF81800E5
:101BC00010208DF81B0003208DF81A0006A9154877
:101BD000FEF739FC0020ADF804004FF48270ADF838
:101BE00006000020ADF808000220ADF80A00012030
:101BF000ADF80C004002ADF80E001020ADF810005A
:101C00000020ADF812000720ADF8140001A9064825
:101C100000F0DCF80121044800F008F807B000BD2E
:101C200000080140000C01400030014021B1028851
:101C300042F04002028004E002884FF6BF731A406F
:101C40000280704770B505460C46164601211048C3
:101C5000FEF78DFC032000F06FF8C4F3074000F09E
:101C60006BF8C4F3072000F067F8E0B200F064F806
:101C700004E0FF2000F060F828706D1C301EA6F113
:101C800001018EB2F5D101210148FEF772FC70BD51
:101C90000010014000B587B001210803FFF7BCFE2A
:101CA00001211420FFF7B8FE0120ADF80400032045
:101CB0008DF8060010208DF8070001A91B48FEF7DB
:101CC000C2FBE020ADF8040018208DF8070001A940
:101CD0001748FEF7B8FB01211448FEF74AFC002024
:101CE000ADF808004FF48270ADF80A000020ADF89E
:101CF0000C000220ADF80E000120ADF810004002EB
:101D0000ADF812000820ADF814000020ADF8160060
:101D10000720ADF8180002A9064800F057F8012185
:101D20000448FFF783FF07B000BD0000001001402A
:101D3000000801400030014010B504464FF48050C7
:101D4000194908600AE018490868411E164A1160DE
:101D500020B9002000F0A8F8C0B210BD022113483D
:101D600000F026F80028EED02146104800F02CF8AC
:101D70004FF480500C4908600AE00B490868411E86
:101D8000094A116020B9012000F08EF8C0B2E4E7E2
:101D90000121064800F00CF80028EED0034800F0BE
:101DA00010F8C0B2D9E70000340000200030014034
:101DB0000246002013890B400BB1012000E00020F7
:101DC00070470146888970478181704710B50022AD
:101DD000028802F441520B884C8823438C882343A9
:101DE000CC8823430C8923434C8923438C89234388
:101DF000CC8923431A430280838B4FF2FF74234024
:101E000083830B8A038210BD70B500251CE0600639
:101E1000040E20210E48FEF7AAFB1420FEF764FAF8
:101E200040210B48FEF79AFB012801D144F0010440
:101E30001420FEF759FA20210548FEF79AFB1420DA
:101E4000FEF752FA681CC5B2082DE0DB204670BDD3
:101E50000008014070B50446002520E004F0800031
:101E600020B180210F48FEF784FB03E080210D485C
:101E7000FEF77DFB1420FEF737FA20210948FEF714
:101E800076FB1420FEF730FA20210648FEF771FB9E
:101E90001420FEF729FA6006040E681CC5B2082D4E
:101EA000DCDB70BD0008014010B50446214602A0ED
:101EB00000F0D4FA002010BD3C3C2D464C41534864
:101EC0002D4552524F522D3E3E2053504920B5C809
:101ED000B4FDB3ACCAB1216572726F72436F6465B1
:101EE000203D2025640A0000704770B505460C4669
:101EF00000262846FFF70AFE064646EA0401284661
:101F000000F094FA70BD10B500F002F810BD0000AA
:101F10000CB50020019000903348006840F48030F8
:101F20003149086000BF3048006800F4003000907C
:101F30000198401C0190009818B90198B0F5A06F65
:101F4000F1D12948006800F4003010B10120009060
:101F500001E0002000900098012843D12348006848
:101F600040F01000214908600846006820F0030096
:101F700008600846006840F0020008601A4840689F
:101F8000194948600846406848600846406840F47F
:101F9000806048600846406820F47C10486008462D
:101FA000406840F4E81048600846006840F08070DF
:101FB000086000BF0C48006800F000700028F9D0ED
:101FC0000948406820F00300074948600846406817
:101FD00040F00200486000BF0348406800F00C0079
:101FE0000828F9D10CBD000000100240002002407A
:101FF0003EB50546002446E0285DC11700EB11718F
:1020000009110DF814101DF81400092806DD1DF83B
:1020100014003730C0B20DF8140005E01DF81400AC
:102020003030C0B20DF81400285DC11700EB1171FB
:102030000911A0EB0111C9B2012202EB44020DF813
:102040000210012000EB44001DF8000009280CDDFF
:10205000012000EB44001DF800003730C0B2012120
:1020600001EB44010DF801000BE0012000EB4400FE
:102070001DF800003030C0B2012101EB44010DF821
:102080000100601CC4B2042CB6DB00208DF80800EF
:102090006A4604A1064800F0F1F9054800F0CAF8C4
:1020A0003EBD000049443E3E3E2573200D0A00001F
:1020B000CA0000207047000010B51348006840F0C7
:1020C00001001149086008464068104908400E495F
:1020D0004860084600680E4908400B4908600846F9
:1020E000006820F4802008600846406820F4FE0064
:1020F00048604FF41F008860FFF705FF4FF0006055
:102100000449086010BD0000001002400000FFF804
:10211000FFFFF6FE08ED00E010B586B00446012191
:102120000420FFF779FC01218803FFF775FC4FF4C9
:102130000070ADF8140018208DF8170003208DF8FA
:10214000160005A91E48FEF77EF94FF48060ADF831
:10215000140004208DF8170005A91948FEF773F93B
:1021600001940C20ADF80E000020ADF81000ADF881
:102170000800ADF80C00ADF80A0001A9114800F004
:10218000DDF84FF4C060FFF79BF825208DF80000C4
:1021900000208DF801008DF8020001208DF8030069
:1021A0006846FFF755F8012240F22551054800F036
:1021B000A0F80121034800F059F806B010BD000056
:1021C000000801400038014010B540F225510E488A
:1021D00000F065F8012811D10B4800F01BF90B49FC
:1021E0000B4A128888540A480088401C0849088015
:1021F00008460088322801D10020088040F225518D
:10220000014800F024F810BD00380140880000208B
:102210003000002010B504462146054800F0FFF8C4
:1022200000BF8021024800F02DF80028F9D010BD31
:102230000038014070B50446002504E0605DFFF7FA
:10224000E9FF681C85B2605D0028F7D170BD10B54C
:102250000022002340F66A14A14200D100BF0A12F6
:1022600001249440A3B2DC43048010BD21B18289D3
:1022700042F40052828104E082894DF6FF731A40D5
:102280008281704702460020B1F5007F00D100BF77
:1022900013880B400BB1012000E00020704770B59F
:1022A0000246002400230025002040F66A16B142B1
:1022B00000D100BFC1F3421501F01F03012606FA49
:1022C00003F3012D02D19689334006E0022D02D19D
:1022D000168A334001E0968A33400C12012606FA32
:1022E00004F41688344013B10CB1012000E0002042
:1022F00070BDF0B50346002400260025002040F6FE
:102300006A17B94200D100BF1846C1F3421401F068
:102310001F06012707FA06F5012C01D10C3004E055
:10232000022C01D1103000E014301AB107682F439D
:10233000076002E00768AF430760F0BD2DE9F04792
:1023400086B005460E460024A24600BFA1460027DF
:10235000B08900B100BF2F462C8A4CF6FF700440B4
:10236000F08804432C82AC894EF6F3100440B08808
:1023700031890843718908430443AC81AC8A4FF624
:10238000FF400440B0890443AC8201A8FFF754FB2E
:102390001F48874202D1DDF810A001E0DDF80CA053
:1023A000A88900F4004040B10AEBCA0000EB0A1013
:1023B00031684900B0FBF1F807E00AEBCA0000EB16
:1023C0000A1031688900B0FBF1F86420B8FBF0F026
:1023D00004012009642101FB1089A88900F4004050
:1023E00040B1322000EBC900B0FBF1F000F0070073
:1023F000044308E0322000EB09106421B0FBF1F047
:1024000000F00F0004432C8106B0BDE8F087000007
:102410000038014001468888C0F308007047C1F3C6
:1024200008028280704700BFFEE7000070B50446D6
:102430000D467E2000EA440610210748FEF797F873
:102440003046FFF707FD2846FFF704FD102102483C
:10245000FEF78FF870BD0000000801400FB4054B77
:1024600010B503A9044A029800F02CF810BC5DF8DE
:1024700014FB000011280008840000200FB4084B52
:1024800010B504A902AA039800F01CF8044602A99A
:10249000002000F0B8F9204610BC5DF814FB0000E5
:1024A0000728000802E008C8121F08C1002AFAD154
:1024B00070477047002001E001C1121F002AFBD1C4
:1024C000704700002DE9FF4F8BB088460546002677
:1024D00006E025280BD0DDE90D1290476D1C761C17
:1024E00028780028F5D10FB03046BDE8F08F0024E1
:1024F000A146A2460122AE4900E0044315F8013F7F
:10250000203B02FA03F00842F7D128782A2810D09D
:102510006FF02F022878A0F13001092915D809EBB6
:10252000890102EB410144F0020400EB01096D1C3A
:10253000F0E758F8041B5FEA010903D544F400549E
:10254000C9F1000944F002046D1C28782E2817D127
:1025500015F8010F44F004042A280ED06FF02F0262
:102560002878A0F1300109290AD80AEB8A0102EB88
:10257000410100EB010A6D1CF2E758F804AB6D1C39
:1025800028786C280FD006DC4C2817D068280DD08E
:102590006A2814D104E0742810D07A280FD10DE0F5
:1025A00044F400140AE044F4801401E044F44014BC
:1025B0006978814202D104F580146D1C6D1C287865
:1025C000692865D006DC00288DD0632827D06428D0
:1025D00006D15DE06E2808D073282AD0752877D000
:1025E000DDE90D129047761CE0E0C4F302500228AA
:1025F00009D003280DD0D8F8001004280DD00E60A3
:1026000008F10408D2E0D8F80010F217C1E900621E
:10261000F6E7D8F800100E80F2E70E70F0E718F831
:10262000041B8DF8001000208DF80100EB460120FE
:1026300003E058F804BB4FF0FF3061074FF000078C
:1026400001D40AE07F1C57450DDA8742FADB1BF8FC
:1026500007100029F6D106E07F1C8742FCDB1BF83F
:1026600007100029F8D1DDE90D23A9EB0700814609
:10267000214600F0B1F83044C61904E0DDE90D123E
:102680001BF8010B90477F1EF8D22146484688E090
:1026900058F8040BC4F302514FF00A0B032900D180
:1026A00000B2042900D140B2002802DA40422D21B4
:1026B00002E0210505D52B218DF82410012104E02D
:1026C00006E0E10710D02021F6E708AF089113E0FB
:1026D00058F8040BC4F302514FF00A0B032900D140
:1026E00080B2042900D1C0B20021EEE75946FDF7BF
:1026F0004FFD303107F8011D0028F7D1ADEB070081
:1027000000F1200B600702D524F4803401E04FF083
:10271000010ADA4502DDAAEB0B0000E00020824648
:1027200000EB0B0108980144A9EB01000A90E003BB
:1027300006D4DDE90D2321460A9800F04DF8064441
:102740004FF0000908E009A911F80900DDE90D12B0
:10275000904709F10109761C08998945F3DBE003EC
:102760000CD5DDE90D2321460A9800F035F8064422
:1027700004E0DDE90D1230209047761CBAF100012B
:10278000AAF1010AF5DC05E0DDE90D1217F8010BED
:102790009047761CBBF10001ABF1010BF4DC0A9809
:1027A0002146DDE90D2300F005F806446D1C97E68F
:1027B000092801002DE9F041044600251E46174670
:1027C000880404D405E039462020B0476D1C641EFF
:1027D000F9D52846BDE8F0812DE9F04104460025F1
:1027E0001E469046C80301D5302700E02027880404
:1027F00004D505E041463846B0476D1C641EF9D546
:102800002846BDE8F0810A68531C0B6010707047C1
:1028100038B504468DF8000069460320ABBE20465B
:1028200038BD0000FDF722FDFEF7B6FCFEF7CCF93F
:10283000FEF7A0FCC48824A12046FDF78DFF26A248
:102840003C210020FDF7E2FF25A264210020FDF7D6
:10285000DDFF3220FDF72AFD4FF4E130FFF75CFC8D
:10286000FEF764FF2EE0FEF777FF1F48007801288F
:1028700019D1012220211D48FDF77DFE1C4A3C2173
:102880002820FDF7C3FF1B4A64212820FDF7BEFF67
:102890000020154908704FF47A70FDF707FD4FF4DA
:1028A0007A70FDF703FD002220211048FDF763FE3A
:1028B00011A23C212820FDF7A9FF0FA264212820A6
:1028C000FDF7A4FFCFE7000052464944CFD4CABE6B
:1028D000CAB5D1E900000000B6C1C8A13A000000A5
:1028E000D0B4C8EB3A00000082000020000C014088
:1028F000FC0000202E01002020202020202020206D
:102900002020202020202020202020202020000007
:1029100000000000000000000000000000000000B7
:1029200000000018181818181808000818000000EF
:1029300000000034242424000000000000000000F7
:102940000000000016247F2424247E24240000009C
:10295000000000083E6848681C1612127C10100027
:1029600000000061D296740810162949C6000000C4
:10297000000000003C646438724ACE467F000000CC
:1029800000000018181818000000000000000000E7
:1029900000000004081810303030301010180C04FB
:1029A000000000201008080C0404040C0818102073
:1029B000000000080A341C6A080000000000000043
:1029C0000000000000001818187F181818000000F8
:1029D000000000000000000000000018180830008F
:1029E0000000000000000000003C000000000000AB
:1029F00000000000000000000000001818000000A7
:102A00000000000206040C080810102020400000FE
:102A1000000000003C6642475B7342663C000000D9
:102A20000000000018784808080808087E00000028
:102A3000000000003C460606040810207E0000004E
:102A4000000000007C0606043C0202067C00000038
:102A5000000000000C1C14246444FF040400000067
:102A6000000000007E6060607E0202067C000000C4
:102A7000000000001E306048764242623C000000C8
:102A8000000000007E0206040C0818103000000050
:102A9000000000003C6242361C6642423C000000DE
:102AA000000000003C664242661A02047800000002
:102AB00000000000000018180000001818000000B6
:102AC000000000000000181800000018180830006E
:102AD00000000000000004183060100C0600000028
:102AE00000000000000000007E007E0000000000EA
:102AF000000000000000301804060C102000000048
:102B0000000000301C06060618100010100000001F
:102B10000000001C224141DDB5A5A5AF94C0403C9A
:102B200000000000181C342426627E43C10000000F
:102B3000000000007C4642467C4242427C0000008D
:102B4000000000001E204040404040603E00000069
:102B5000000000007C4642434343424678000000A8
:102B6000000000007E6060607E6060607E000000AB
:102B7000000000007E6060607E60606060000000B9
:102B8000000000001E604040CE4242623E00000055
:102B900000000000424242427E42424242000000A7
:102BA000000000007E181818181818187E00000081
:102BB000000000007C0404040404044478000000C5
:102BC000000000004244485070584C44420000004D
:102BD0000000000020202020202020203E000000B7
:102BE000000000006266675F5B5BC1C1C10000005E
:102BF00000000000626272525A4A4E4646000000CF
:102C0000000000003C6243C3C3C343623C000000B9
:102C1000000000007C4642424678404040000000F0
:102C2000000000003C6243C3C3C343623C180F0072
:102C3000000000007C6662667C6C646662000000D6
:102C4000000000003E6040601C0602027C000000A4
:102C5000000000007F181818181818181800000035
:102C60000000000042424242424242623C000000F8
:102C700000000000C14342622624341C18000000FA
:102C800000000000C1C141495B5B76666600000040
:102C90000000000043663418181C2466C3000000BE
:102CA00000000000C14266341C181818180000000B
:102CB000000000007E02040C181020607E0000005E
:102CC0000000001C10101010101010101010101C1C
:102CD000000000402020101008080C04060200002C
:102CE0000000003C0C0C0C0C0C0C0C0C0C0C0C3CE8
:102CF00000000000181C246200000000000000001A
:102D0000000000000000000000000000000000FFC4
:102D10000000002010000000000000000000000083
:102D20000000000000003C06023E42467A0000001F
:102D30000000004040405C62424242427C00000091
:102D40000000000000001E20604060203E000000E7
:102D50000000000202023E62424242663A00000067
:102D60000000000000003C62427E40603E00000027
:102D70000000000F1810107E10101010100000003E
:102D80000000000000003F66426658403E43423C5F
:102D90000000004040405C6242424242420000006B
:102DA0000000001818007808080808087E000000D5
:102DB000000000040C007C040404040404040C78E7
:102DC000000000606060626C7870686462000000FF
:102DD0000000007808080808080808087E000000BD
:102DE000000000000000764B4B4B4B4B4B000000AB
:102DF0000000000000005C624242424242000000CB
:102E00000000000000003C62424342623C000000BF
:102E10000000000000005C62424242427C404040B0
:102E20000000000000003E62424242663A02020296
:102E30000000000000006E726360606060000000CF
:102E40000000000000003E20203C06027C00000044
:102E5000000000001010FE10101010101E000000E6
:102E60000000000000004242424242663A00000078
:102E700000000000000043426624341818000000DF
:102E8000000000000000C1C15B5A5E6666000000E1
:102E900000000000000062261C181C2662000000D2
:102EA00000000000000043426624341C181830E083
:102EB0000000000000007E060C1810207E000000BC
:102EC0000000000E18101010307010101010180EA6
:102ED0000000080808080808080808080808080882
:102EE00000000030180808080C0E08080808183000
:102EF0000000000000000000714B06000000000010
:102F000000000000000000000000000000000000C1
:102F100000000000000000000000000000000000B1
:102F200000000000000000000000000000000000A1
:102F3000000000000000000000000380018001800C
:102F400001800180018001800180018001800000FA
:102F5000000003C003C000000000000000000000EB
:102F6000000000000000000000000E700E700E70E7
:102F70000C30000000000000000000000000000015
:102F80000000000000000000000000000000000041
:102F900000000000000000000000000006180638D5
:102FA00006307FFE0C300C300C300C307FFE0C6095
:102FB0001C601860186000000000000000000000A5
:102FC000000000000000000000C000C00FF83CC876
:102FD00031C031803D801F8003F001F8031C030CD9
:102FE000031C3FF83FE0070006000000000000005F
:102FF00000000000000000001C007E0E630C63183F
:1030000063307E6000C001800300077C0EE61CC6B2
:1030100018C630C6607C0000000000000000000000
:10302000000000000000000000000FE01CF03870FD
:1030300038701C601FC00F003F8C71CC60EC607C4E
:1030400070383CFC1FCE00000000000000000000B3
:103050000000000000000000000003C001800180AB
:1030600001800000000000000000000000000000DF
:103070000000000000000000000000000000000050
:103080000000000000000000003000E001C00180EE
:1030900003000700060006000E000E000E000E00E2
:1030A000060007000300038001C000E000300000BC
:1030B00000000000000000000C00060003800180FA
:1030C00001C000E0006000600070007000700060EF
:1030D000006000E000C00180038006000C000000DA
:1030E00000000000000000000000018011881DB8F1
:1030F00003C007E03DBC0188018000000000000023
:1031000000000000000000000000000000000000BF
:1031100000000000000000000000000000000000AF
:10312000018001800180018001807FFE018001809B
:10313000018001800000000000000000000000008D
:10314000000000000000000000000000000000007F
:10315000000000000000000000000000000000006F
:1031600003C003C001C001C003801F0000000000B5
:10317000000000000000000000000000000000004F
:10318000000000000000000000000FF00000000040
:10319000000000000000000000000000000000002F
:1031A000000000000000000000000000000000001F
:1031B000000000000000000000000000000000000F
:1031C00003C003C003C000000000000000000000B6
:1031D000000000000000000000000018003800306F
:1031E000006000E000C001C0018003000300060091
:1031F0000E000C001C001800300000000000000051
:103200000000000000000000000001800FF01C38EA
:10321000381C301C707E70EE738E7E0E7C0C300C71
:10322000381C1E780FE000000000000000000000C5
:1032300000000000000000000000000007C01FC0E8
:1032400039C001C001C001C001C001C001C001C03E
:1032500001C03FFC3FFC0000000000000000000037
:103260000000000000000000000003801FF018387C
:103270000038001800380038007001E003800700B3
:103280001C003FFC3FFC00000000000000000000AC
:103290000000000000000000000007801FF0003860
:1032A00000380038003007E007F00038001C001C30
:1032B000001820F83FE000000000000000000000BF
:1032C00000000000000000000000000000F001B05D
:1032D000033007300E301C30383070307FFE7FFEF8
:1032E000003000300030000000000000000000004E
:1032F0000000000000000000000000001FF818009F
:103300001800180018001FE000F8001C001C001C2A
:10331000003800F01FC000000000000000000000A6
:1033200000000000000000000000000003F80F0093
:103330001C001800300037F83C3C300C300C380CC6
:10334000381C1E380FF000000000000000000000D4
:103350000000000000000000000000003FFC001C16
:10336000001800380070006000E001C00180038098
:10337000070006000E000000000000000000000032
:103380000000000000000000000003C01FF8381C0F
:10339000381C381C1C380FF007F01C78381C300C17
:1033A000381C3C380FF00000000000000000000056
:1033B0000000000000000000000003801FF038380B
:1033C000301C701C700C380C1FFC0FCC001C00183B
:1033D00000701FE01F8000000000000000000000DF
:1033E00000000000000000000000000000000000DD
:1033F000000003C003C001800000000000000000C6
:1034000003C003C003C00000000000000000000073
:1034100000000000000000000000000000000000AC
:10342000000003C003C00180000000000000000095
:1034300003C003C001C001C003800F0000000000F2
:10344000000000000000000000000000000000007C
:10345000003800F001C007001E0038000E00078091
:1034600001C00070003000000000000000000000FB
:10347000000000000000000000000000000000004C
:103480000000000000003FFC000000003FFC3FFC8B
:10349000000000000000000000000000000000002C
:1034A000000000000000000000000000000000001C
:1034B0001C000F00038001E00078001C007001E098
:1034C00003800E000C00000000000000000000005F
:1034D000000000000000000000000FC000F00038F5
:1034E00000380038003803F00380030003000000B8
:1034F00000000780078000000000000000000000BE
:10350000000000000000000000E007F80C0C1806A6
:103510003006700363F36633C673CC63CC62CC664B
:10352000CCE6C7FCE0006000700038101FF000001F
:1035300000000000000000000000000003C007E0E1
:1035400006E00E700E700C301C3818183FFC3FFC63
:10355000700E600EE0070000000000000000000098
:103560000000000000000000000000003FF03838BC
:10357000381C381C38383FF03FF8381C380C380CF1
:10358000381C3FF83FE00000000000000000000091
:103590000000000000000000000000E007FC1E0426
:1035A00038003800300070007000700030003800C3
:1035B0003C001F9C07FC0000000000000000000011
:1035C0000000000000000000000000003FF0307824
:1035D000301C300C300E300E300E300E300E301CE1
:1035E00030383FF03FC00000000000000000000045
:1035F0000000000000000000000000001FF818009C
:103600001800180018001FF81FF8180018001800FC
:1036100018001FF81FF80000000000000000000064
:103620000000000000000000000000001FF818006B
:103630001800180018001FF81FF8180018001800CC
:103640001800180018000000000000000000000032
:103650000000000000000000000000F007FC1E0455
:10366000380030007000700070FC700C700C300C72
:10367000380C1F1C07FC00000000000000000000C8
:10368000000000000000000000000000300C300CC2
:10369000300C300C300C3FFC3FFC300C300C300C4C
:1036A000300C300C300C0000000000000000000066
:1036B0000000000000000000000000003FFC01804E
:1036C00001800180018001800180018001800180F2
:1036D00001803FFC3FFC00000000000000000000F3
:1036E0000000000000000000000000001FF000309B
:1036F000003000300030003000300030003000304A
:1037000000701DE01FC0000000000000000000006D
:10371000000000000000000000000000381C3870AD
:1037200038E039C03B803F003F003B8039C038E083
:1037300038703838381C000000000000000000001D
:103740000000000000000000000000001C001C0041
:103750001C001C001C001C001C001C001C001C0089
:103760001C001FFC1FFC0000000000000000000007
:10377000000000000000000000000000381C7C3C3D
:103780006C3E6E6E666E66CE63C66386618660064C
:1037900060066006600600000000000000000000F7
:1037A0000000000000000000000000003C0C3C0C89
:1037B0003E0C360C330C338C318C31CC30EC306C0D
:1037C000307C303C301C0000000000000000000095
:1037D0000000000000000000000001C00FF81C3CC9
:1037E000381C700E700E60066006700E700E700C45
:1037F000381C1E780FE000000000000000000000F0
:103800000000000000000000000000003FF0383C15
:10381000381C380C380C381C38783FE03800380039
:1038200038003800380000000000000000000000F0
:103830000000000000000000000001C00FF81C3C68
:10384000381C700E700E60066006700E700E700CE4
:10385000381C1E780FE0018001C000FF003C000012
:103860000000000000000000000000003FF03838B9
:1038700038183818383838F03FC038E038703838E1
:103880003838381C380E000000000000000000002E
:103890000000000000000000000001E00FF8380008
:1038A000380038003C001F8003F00078001C001C2A
:1038B000001C38783FE0000000000000000000001D
:1038C0000000000000000000000000007FFE0180FA
:1038D00001800180018001800180018001800180E0
:1038E0000180018001800000000000000000000055
:1038F000000000000000000000000000300C300C50
:10390000300C300C300C300C300C300C300C300CD7
:10391000381C1C380FF00000000000000000000000
:10392000000000000000000000000000E006700E33
:10393000700E381C381C1C181C380C300E700660B9
:1039400007E003C003C0000000000000000000000A
:10395000000000000000000000000000600660069B
:10396000600660066186638673C673CE766C366CBD
:103970003C3C3C3C381C0000000000000000000003
:10398000000000000000000000000000301C38189B
:103990001C380E7007E003C003C007E00E701C382F
:1039A0001838381C700E00000000000000000000F5
:1039B000000000000000000000000000700E700C0D
:1039C000381C1C380E70066007E003C001800180BF
:1039D0000180018001800000000000000000000064
:1039E0000000000000000000000000003FFC001C80
:1039F0000038007000E001C0038007000E000C00DA
:103A000018003FFC3FFC0000000000000000000028
:103A1000000000000000000007F007F006000600AC
:103A20000600060006000600060006000600060066
:103A300006000600060006000600060007F000006B
:103A40000000000000000000000018001C000C0036
:103A50000600070003000380018001C000C0006071
:103A60000070003000380018000C0000000000005A
:103A700000000000000000000FE00FE000600060A8
:103A80000060006000600060006000600060006036
:103A90000060006000600060006000600FE00000F7
:103AA00000000000000000000000000003C006C08D
:103AB00006600C301818301C0000000000000000E8
:103AC00000000000000000000000000000000000F6
:103AD00000000000000000000000000000000000E6
:103AE00000000000000000000000000000000000D6
:103AF000000000000000000000000000FFFF0000C8
:103B0000000000000000000000001E000380000014
:103B100000000000000000000000000000000000A5
:103B20000000000000000000000000000000000095
:103B30000000000000000000000000000000000085
:103B400000001FF01038001C001C0FFC1C1C381C4F
:103B5000381C3CFC1FDC00000000000000000000DE
:103B600000000000000000000000380038003800AD
:103B700038003BF83E1C3C1C380C380C380C380C18
:103B8000381C3C781FE0000000000000000000002E
:103B90000000000000000000000000000000000025
:103BA000000007F80E001C0038003800380038000C
:103BB0001C000F1807F800000000000000000000C3
:103BC00000000000000000000000001C001C001CA1
:103BD000001C0FFC1C1C381C301C301C301C301C02
:103BE000383C1CFC0F9C000000000000000000009E
:103BF00000000000000000000000000000000000C5
:103C000000000FF01C38381C300C3FFC3000300036
:103C100038001E0C07FC000000000000000000003F
:103C20000000000000000000003C01FE03800300D3
:103C3000030003007FFC7FFC03000300030003007C
:103C4000030003000300000000000000000000006B
:103C50000000000000000000000000000000000064
:103C600000000FFE1C383818381818381FF03B8039
:103C700030003FF01FFC300E700E381C1FF80000A3
:103C8000000000000000000000003800380038008C
:103C900038003BF83E383C1C381C381C381C381C9B
:103CA000381C381C381C0000000000000000000018
:103CB0000000000000000000018003C003C00000FD
:103CC00000001FC001C001C001C001C001C001C08F
:103CD00001C001C03FFC0000000000000000000027
:103CE00000000000000000000020007000700000D4
:103CF00000003FF0007000700070007000700070F5
:103D00000070007000700070007020E03FC0000084
:103D1000000000000000000000001800180018005B
:103D20001800183C187018E01B801F001B8019E059
:103D300018701838181C0000000000000000000077
:103D4000000000000000000000001FC001C001C012
:103D500001C001C001C001C001C001C001C001C05B
:103D600001C001C03FFC0000000000000000000096
:103D70000000000000000000000000000000000043
:103D800000006F3C79EE71CE718E718E718E718EE6
:103D9000718E718E718E0000000000000000000026
:103DA0000000000000000000000000000000000013
:103DB00000003BF83E383C1C381C381C381C381CB2
:103DC000381C381C381C00000000000000000000F7
:103DD00000000000000000000000000000000000E3
:103DE00000000FF01C3C381C700E700E700E700C32
:103DF000381C1E780FE000000000000000000000EA
:103E000000000000000000000000000000000000B2
:103E100000003BF83E1C3C1C380C380C380C380CAD
:103E2000381C3C783FE0380038003800380000008B
:103E30000000000000000000000000000000000082
:103E400000000FFC1C1C381C301C301C301C301CAB
:103E5000383C1CFC0F9C001C001C001C001C0000BB
:103E60000000000000000000000000000000000052
:103E7000000019F81F1C1C0C180E18001800180060
:103E800018001800180000000000000000000000EA
:103E90000000000000000000000000000000000022
:103EA00000000FF81C0018001E000FC001F80018D9
:103EB000001818381FF0000000000000000000008B
:103EC00000000000000000000000000006000600E6
:103ED00006007FFC0600060006000600060006003D
:103EE0000700078401FC0000000000000000000043
:103EF00000000000000000000000000000000000C2
:103F00000000381C381C381C381C381C381C381C65
:103F1000383C1CFC0FDC000000000000000000002A
:103F20000000000000000000000000000000000091
:103F30000000700C381C38181C380C300E700660ED
:103F400007E003C003C00000000000000000000004
:103F50000000000000000000000000000000000061
:103F60000000600660066186738E73CC33CC366CBD
:103F7000366C3C3C3C3800000000000000000000B3
:103F80000000000000000000000000000000000031
:103F90000000381C1C380E7007E003C003C007E0A7
:103FA0000E701C38381E00000000000000000000E9
:103FB0000000000000000000000000000000000001
:103FC0000000700C381C38181C380C300E7006605D
:103FD00007E003C003C0038007000E007C00000060
:103FE00000000000000000000000000000000000D1
:103FF00000001FF80038007000E001C003800700D7
:104000000C001FFC3FFC000000000000000000004E
:104010000000000000000000007801F80380038029
:1040200003800380038003003F003E000300038001
:104030000380038003800380038001C000F8000038
:10404000000000000180018001800180018001806A
:104050000180018001800180018001800180018058
:1040600001800180018001800180018001800000C9
:1040700000000000000000001E001F80018001C041
:1040800001C001C001C000C000FC007C00C001C034
:1040900001C001C001C001C001C003801F000000B9
:1040A0000000000000000000000000000000000010
:1040B0000000000000001C003F0671CE60FC000004
:1040C00000000000000000000000000000000000F0
:1040D00000000000000000000000000000000000E0
:1040E00000000000000000000000000000000000D0
:1040F00000000000000000000000000000000000C0
:1041000000000000000000000000000000000000AF
:10411000000000000000000000000000000000009F
:10412000000000000000000000000000000000008F
:10413000000000000000000000000000000000007F
:104140000000003C00003C00003C00003C00003C43
:1041500000003C00003C00003C00003C00003C0033
:10416000003C00003C00003C00003C00000000005F
:104170000000003C00007E00003C00000000000049
:10418000000000000000000000000000000000002F
:10419000000000000000000000000000000000001F
:1041A000000003C3E003C3E003C3C003C3C003C3F1
:1041B000C003C3C003C1C000000000000000000035
:1041C00000000000000000000000000000000000EF
:1041D00000000000000000000000000000000000DF
:1041E00000000000000000000000000000000000CF
:1041F00000000000000000000000000000000000BF
:10420000000000000000000001E0E001C0E001C08B
:10421000E001C0E03FFFFE3FFFFE03C1C00381C0DD
:104220000381C00381C07FFFFC7FFFFC0783800701
:104230000380070380070380070780000000000059
:10424000000000000000000000000000000000006E
:10425000000000000000000000000000000000005E
:104260000700000F00000E0001FFF007FFF01F0E17
:10427000001E1E001E1C001E1C000FDC0007FC00A0
:1042800000FF80003FF00038F800387800783C00EC
:1042900070783071F83FFFE01FFF0000E00000E0A1
:1042A0000000E0000000000000000000000000002E
:1042B00000000000000000000000000000000000FE
:1042C00000000F800F3FE01E78703C7070707070BF
:1042D000E07071C03FE3801FC700000E00001C00AB
:1042E00000780000F0F001E7FC03CF0E078E0E0F00
:1042F0000E0E1E0E0E3C07BC7003F80000000000FE
:1043000000000000000000000000000000000000AD
:10431000000000000000000000000000000000009D
:10432000000000000001FF0007FF800F03C00F0323
:10433000C00F03C00F0780079F0003FE0003F000BB
:104340000FF83C3E7C3C3C1F3C780FF87807F87C2B
:1043500001F03E03F81FFFFC07FE1F0000000000F5
:10436000000000000000000000000000000000004D
:10437000000000000000000000000000000000003D
:104380000000003E00003C00003C00003C00003CFF
:1043900000003C00003C00000000000000000000A5
:1043A000000000000000000000000000000000000D
:1043B00000000000000000000000000000000000FD
:1043C00000000000000000000000000000000000ED
:1043D00000000000000000000000000000000000DD
:1043E00000800001C0000780000F00001E00003C9C
:1043F0000000780000F00000E00001E00001E000B3
:1044000001C00003C00003C00001C00001E00001C2
:10441000E00000F00000F000007800003C00001E0A
:1044200000000F000007C00001C0000000000000F5
:10443000000000000000000000000000000000007C
:10444000000003C00001E00000F000007C00003E1E
:1044500000001E00000F000007800007800003809E
:104460000003C00003C00003C00003C000038000BD
:104470000780000780000F00001E00003C0000784D
:104480000000F00001E000038000000000000000D8
:10449000000000000000000000000000000000001C
:1044A0000000001C00001C000018000F18F007DBC3
:1044B000E0007F0000FF0007DBE00E18700018002E
:1044C000001C00001C0000000000000000000000B4
:1044D00000000000000000000000000000000000DC
:1044E00000000000000000000000000000000000CC
:1044F00000000000000000000000000000000000BC
:1045000000000000000000000000000000000000AB
:1045100000003C00003C00003C00003C00003C006F
:10452000003C003FFFFC3FFFFC003C00003C000063
:104530003C00003C00003C000000000000000000C7
:10454000000000000000000000000000000000006B
:10455000000000000000000000000000000000005B
:10456000000000000000000000000000000000004B
:10457000000000000000000000000000000000003B
:10458000000000000000000000000000000000002B
:104590007C00007E00007E00003E00001E00003C0B
:1045A0000000F80007E00004000000000000000028
:1045B00000000000000000000000000000000000FB
:1045C00000000000000000000000000000000000EB
:1045D00000000000000000000000000000000000DB
:1045E00000000003FFE003FFE00000000000000007
:1045F00000000000000000000000000000000000BB
:1046000000000000000000000000000000000000AA
:10461000000000000000000000000000000000009A
:10462000000000000000000000000000000000008A
:10463000000000000000000000000000000000007A
:10464000000000000000000000000000000000006A
:104650007C0000FE0000FE00007E00000000000064
:10466000000000000000000000000000000000004A
:10467000000000000000000000000000000000003A
:1046800000000000780000F00000E00001E00003FE
:10469000C0000380000780000F00000E00001E0015
:1046A000003C0000380000700000F00000E0000155
:1046B000C00003C0000780000700000F00001E00BC
:1046C000001C0000000000000000000000000000CE
:1046D00000000000000000000000000000000000DA
:1046E000000000000000000001FFC007FFE00F0015
:1046F000F01E00781E003C3C00FC3C07FC3C1FBC4C
:104700003C7C1C3DF03C3FC03C3F003C1E00381E42
:1047100000780F80F007FFE001FF8000000000003C
:104720000000000000000000000000000000000089
:104730000000000000000000000000000000000079
:104740000000000000000000007E0003FE001FDEED
:10475000000E1E00001E00001E00001E00001E00B5
:10476000001E00001E00001E00001E00001E0000B3
:104770001E00001E000FFFF80FFFF80000000000F1
:104780000000000000000000000000000000000029
:104790000000000000000000000000000000000019
:1047A000000000000000000003FF800FFFE00E018A
:1047B000F00000F00000F00000F00000F00001E068
:1047C0000003C0000F80003E00007C0001F00003E9
:1047D000C0000F80001FFFFC1FFFFC000000000056
:1047E00000000000000000000000000000000000C9
:1047F00000000000000000000000000000000000B9
:1048000000000000000000000FFF800FFFE000012B
:10481000E00000F00000F00001E00003C001FF0034
:1048200001FFC00003F0000078000078000078006D
:1048300000780001F00FFFC00FFF00000000000033
:104840000000000000000000000000000000000068
:104850000000000000000000000000000000000058
:104860000000000000000000000FC0001FC0003F5B
:10487000C0007BC000F3C001E3C003C3C00783C016
:104880000F03C01C03C03803C07FFFFE7FFFFE0084
:1048900003C00003C00003C00003C000000000000C
:1048A0000000000000000000000000000000000008
:1048B00000000000000000000000000000000000F8
:1048C00000000000000000000FFFE00FFFE00F00FD
:1048D000000F00000F00000F00000F00000FFF800E
:1048E0000FFFE00000F00000780000780000780082
:1048F00000F00003E00FFFC00FFE0000000000000A
:1049000000000000000000000000000000000000A7
:104910000000000000000000000000000000000097
:104920000000000000000000003FF001FFF003E085
:10493000000780000F00001E00001E1F001FFFE088
:104940001FC1F81E00781E003C1E003C1E003C0FDC
:1049500000780F80F807FFE001FF800000000000F2
:104960000000000000000000000000000000000047
:104970000000000000000000000000000000000037
:1049800000000000000000001FFFFC1FFFFC0000F3
:10499000780000F00000E00001E00003C0000780A4
:1049A000000F00000F00001E00003C000078000017
:1049B000F00001F00001E00003C000000000000072
:1049C00000000000000000000000000000000000E7
:1049D00000000000000000000000000000000000D7
:1049E000000000000000000003FFE00FE3F00F00F4
:1049F000781E00781E00780F00F007E3E001FF80CA
:104A000001FF8007E7E00F00F81E00781E003C1E43
:104A1000007C1F00F80FFFF003FFC0000000000043
:104A20000000000000000000000000000000000086
:104A30000000000000000000000000000000000076
:104A4000000000000000000003FF800FC7E01E0010
:104A5000F01E00783C00783C00783C00381E00785E
:104A60000FEFF807FFB80000780000780000F000B2
:104A700001E0000FC00FFF000FF000000000000079
:104A80000000000000000000000000000000000026
:104A90000000000000000000000000000000000016
:104AA0000000000000000000000000000000000006
:104AB00000000000007E00007E00007E0000180064
:104AC00000000000000000000000000000000000E6
:104AD0003C00007E00007E00003E00000000000060
:104AE00000000000000000000000000000000000C6
:104AF00000000000000000000000000000000000B6
:104B000000000000000000000000000000000000A5
:104B100000000000007E00007E00007E0000180003
:104B20000000000000000000000000000000000085
:104B30003E00007E00007F00001F00001E00001EDF
:104B40000000FC0007F0000400000000000000006E
:104B50000000000000000000000000000000000055
:104B60000000000000000000000000000000000045
:104B7000400001E00007C0001F00007E0001F800B7
:104B800003E0000F80000F800003E00000F8000049
:104B90003E00000F800003E00000E0000000000085
:104BA0000000000000000000000000000000000005
:104BB00000000000000000000000000000000000F5
:104BC00000000000000000000000000000000000E5
:104BD000000000000000000000000000001FFFF8BF
:104BE0000000000000000000001FFFF81FFFF80099
:104BF00000000000000000000000000000000000B5
:104C000000000000000000000000000000000000A4
:104C10000000000000000000000000000000000094
:104C20000000000000000000000000000000000084
:104C30000007800003E00000F800003E00000F8045
:104C40000003E00000F80001F00007C0001F0000B2
:104C50007C0001F00007C00003000000000000001D
:104C60000000000000000000000000000000000044
:104C70000000000000000000000000000000000034
:104C8000000001C00001FE00007F800007C000019D
:104C9000E00000F00000F00001F00003E0007FC041
:104CA000007E000070000070000070000000000036
:104CB000000000F80000F80000F80000000000000C
:104CC00000000000000000000000000000000000E4
:104CD00000000000000000000000000000000000D4
:104CE0000000001F8000FFF003C07807801C0E004A
:104CF0000E1C000E3C000F383FC778FFC770E3C79B
:104D000071C3C7F3C387E3C387E3878EE3878EE36B
:104D1000CF8EE3FFFC71F9F07000007000003800E6
:104D2000003C00000F01C007FFC0000000000000B1
:104D30000000000000000000000000000000000073
:104D40000000000000000000007E00007F0000FF67
:104D50000000E78001E78003C3C003C3C00781E010
:104D60000781E00F00F00F00F81FFFF81FFFFC3C69
:104D7000003C3C001E78001EF0000F000000000008
:104D80000000000000000000000000000000000023
:104D90000000000000000000000000000000000013
:104DA00000000000000000001FFFC01FFFF01E00F9
:104DB000F01E00781E00781E00F01E01F01FFFC0DC
:104DC0001FFFE01E01F81E00781E003C1E003C1E66
:104DD00000781E00F81FFFE01FFF00000000000029
:104DE00000000000000000000000000000000000C3
:104DF00000000000000000000000000000000000B3
:104E0000000000000000000000FFF803FFF807C0EA
:104E1000000F00001E00001E00003C00003C0000CF
:104E20003C00003C00003C00003E00001E00000F63
:104E300000000FC00803FFF800FFF80000000000AA
:104E40000000000000000000000000000000000062
:104E50000000000000000000000000000000000052
:104E600000000000000000003FFF003FFFE03C01A9
:104E7000F03C00783C003C3C003C3C003C3C001ECC
:104E80003C001E3C001E3C003C3C003C3C00783C8E
:104E900000F83C07E03FFFC03FFC000000000000BE
:104EA0000000000000000000000000000000000002
:104EB00000000000000000000000000000000000F2
:104EC00000000000000000000FFFF00FFFF00F00D7
:104ED000000F00000F00000F00000F00000FFFF098
:104EE0000FFFF00F00000F00000F00000F00000F79
:104EF00000000F00000FFFF00FFFF00000000000A7
:104F000000000000000000000000000000000000A1
:104F10000000000000000000000000000000000091
:104F200000000000000000000FFFF00FFFF00F0076
:104F3000000F00000F00000F00000F00000FFFF037
:104F40000FFFF00F00000F00000F00000F00000F18
:104F500000000F00000F00000F0000000000000024
:104F60000000000000000000000000000000000041
:104F70000000000000000000000000000000000031
:104F8000000000000000000000FFFC03FFFC0FC059
:104F9000041F00001E00003C00003C0000780FFCD5
:104FA000780FFC78003C3C003C3C003C3E003C1F41
:104FB000003C0FC03C03FFFC00FFF80000000000B5
:104FC00000000000000000000000000000000000E1
:104FD00000000000000000000000000000000000D1
:104FE00000000000000000003C003C3C003C3C0095
:104FF0003C3C003C3C003C3C003C3C003C3FFFFC5B
:105000003FFFFC3C003C3C003C3C003C3C003C3C4A
:10501000003C3C003C3C003C3C003C0000000000EC
:105020000000000000000000000000000000000080
:105030000000000000000000000000000000000070
:1050400000000000000000000FFFF80FFFF8003C18
:1050500000003C00003C00003C00003C00003C0024
:10506000003C00003C00003C00003C00003C000014
:105070003C00003C000FFFF80FFFF80000000000AC
:105080000000000000000000000000000000000020
:105090000000000000000000000000000000000010
:1050A00000000000000000000FFFE00FFFE0000123
:1050B000E00001E00001E00001E00001E00001E0AB
:1050C0000001E00001E00001E00001E00001E0007B
:1050D00003C00C07C00FFF8007FE000000000000A7
:1050E00000000000000000000000000000000000C0
:1050F00000000000000000000000000000000000B0
:1051000000000000000000001E00781E01F01E03D9
:10511000C01E07801E1F001E3C001E78001EF000EF
:105120001FF0001EF8001E3C001E1E001E0F801EF9
:1051300007C01E01E01E00F81E007C0000000000F9
:10514000000000000000000000000000000000005F
:10515000000000000000000000000000000000004F
:1051600000000000000000000780000780000780AA
:10517000000780000780000780000780000780008C
:105180000780000780000780000780000780000775
:10519000800007800007FFF807FFF800000000000C
:1051A00000000000000000000000000000000000FF
:1051B00000000000000000000000000000000000EF
:1051C00000000000000000003E007C3F00FC3F812A
:1051D000DC3B81DC3BC39C39C39C38E71C38EF1CAB
:1051E000387E1C387C1E383C1E78001E78001E78E5
:1051F000001E78001E78001E78001E0000000000CF
:10520000000000000000000000000000000000009E
:10521000000000000000000000000000000000008E
:1052200000000000000000001F003C1F803C1FC069
:105230003C1DC03C1DE03C1CF03C1C783C1C783CF8
:105240001C3C3C1C1E3C1C0F3C1C0F3C1C07BC1C8B
:1052500003FC1C01FC1C00FC1C00FC000000000006
:10526000000000000000000000000000000000003E
:10527000000000000000000000000000000000002E
:10528000000000000000000001FFC007FFF00F0059
:10529000F81E007C3C003C3C001E78001E78001E7E
:1052A00078001E78001E78001E3C003C3C003C1E2E
:1052B00000781F00F007FFE001FF80000000000001
:1052C00000000000000000000000000000000000DE
:1052D00000000000000000000000000000000000CE
:1052E00000000000000000001FFF801FFFF01E00F4
:1052F000F81E007C1E003C1E003C1E003C1E007878
:105300001E03F01FFFC01FFE001E00001E00001E37
:1053100000001E00001E00001E0000000000000033
:10532000000000000000000000000000000000007D
:10533000000000000000000000000000000000006D
:10534000000000000000000001FFC007FFF00F0098
:10535000F81E007C3C003C3C001E78001E78001EBD
:1053600078001E78001E78001E3C003C3C003C1E6D
:1053700000781F80F007FFE001FF80003C00003C48
:1053800000001F06000FFF0001F8000000000000F1
:10539000000000000000000000000000000000000D
:1053A00000000000000000000FFF800FFFE00E0172
:1053B000F00E00F00E00F00E00F00E01F00FFFC036
:1053C0000FFF000E1F000E07800E03C00E01E00E3F
:1053D00000F00E00F80E00780E003C000000000007
:1053E00000000000000000000000000000000000BD
:1053F00000000000000000000000000000000000AD
:10540000000000000000000003FFF00FFFF01F008D
:10541000001E00001E00001F00000FC00007FC005F
:1054200000FF80000FF00001F80000780000780015
:1054300000782000F83FFFE03FFF80000000000000
:10544000000000000000000000000000000000005C
:10545000000000000000000000000000000000004C
:1054600000000000000000003FFFFC3FFFFC003C8C
:1054700000003C00003C00003C00003C00003C0000
:10548000003C00003C00003C00003C00003C0000F0
:105490003C00003C00003C00003C0000000000001C
:1054A00000000000000000000000000000000000FC
:1054B00000000000000000000000000000000000EC
:1054C00000000000000000003C003C3C003C3C00B0
:1054D0003C3C003C3C003C3C003C3C003C3C003C38
:1054E0003C003C3C003C3C003C3C003C3C003C1E46
:1054F00000781F00F80FFFE003FF800000000000AD
:10550000000000000000000000000000000000009B
:10551000000000000000000000000000000000008B
:105520000000000000000000F8000F78001E3C00A2
:105530001E3C003C1E00381E00780F00700F00F06B
:105540000781E00781E003C3C003E3C001E78000F7
:10555000F78000FF00007E00007E000000000000D9
:10556000000000000000000000000000000000003B
:10557000000000000000000000000000000000002B
:10558000000000000000000078000E78000E780097
:105590000E78001E38001E38001E383C1C383C1C9B
:1055A000387E1C387F1C3CE71C3CE79C3DC39C1D9F
:1055B000C3DC1F81DC1F80F81F00F8000000000022
:1055C00000000000000000000000000000000000DB
:1055D00000000000000000000000000000000000CB
:1055E00000000000000000003C003C1E00780F009E
:1055F000F00781E003C3C001E78000FF00007E00E8
:10560000007E0000FF0001FF8003E7C007C3E00F3A
:1056100081F01F00F83E007C7C003E00000000008E
:10562000000000000000000000000000000000007A
:10563000000000000000000000000000000000006A
:10564000000000000000000078001F3C003E1E002B
:105650007C1F00780F80F007C1E003E3C001E78002
:1056600000FF00007E00003C00003C00003C000009
:105670003C00003C00003C00003C0000000000003A
:10568000000000000000000000000000000000001A
:10569000000000000000000000000000000000000A
:1056A00000000000000000001FFFFC1FFFFC0000C6
:1056B000F80001E00003C0000780000F00001E009A
:1056C000003C0000780000F00003E00007C0000F7D
:1056D00080001F00003FFFFC3FFFFC0000000000B7
:1056E00000000000000000000000000000000000BA
:1056F00000000000000000000000000000000000AA
:10570000000001FFC001FFC001E00001E00001E076
:105710000001E00001E00001E00001E00001E00024
:1057200001E00001E00001E00001E00001E0000113
:10573000E00001E00001E00001E00001E00001E024
:105740000001E00001E00001FFC0000000000000D7
:105750000000000000000000000000000000000049
:1057600000000E00000F000007000003800003C0CF
:105770000001E00000E00000F000007800003800C8
:10578000003C00001E00000E00000F00000780001B
:1057900003800001C00001E00000E0000070000094
:1057A0007800003C00000000000000000000000045
:1057B00000000000000000000000000000000000E9
:1057C000000003FF8003FF800007800007800007C0
:1057D00080000780000780000780000780000780A6
:1057E0000007800007800007800007800007800016
:1057F00007800007800007800007800007800007FF
:105800008000078000078003FF8000000000000088
:105810000000000000000000000000000000000088
:105820000000000000000000003C00007E0000E7D7
:105830000001C3800381C00700E00E00F01E007865
:105840000000000000000000000000000000000058
:105850000000000000000000000000000000000048
:105860000000000000000000000000000000000038
:105870000000000000000000000000000000000028
:105880000000000000000000000000000000000018
:105890000000000000000000000000000000000008
:1058A00000000000000000000000000000000000F8
:1058B00000000000000000000000000000000000E8
:1058C00000000000FFFFFFFFFFFF000000000000DE
:1058D00000000000000000000000000000000000C8
:1058E00000000F800003E00000F800003C00000012
:1058F00000000000000000000000000000000000A8
:105900000000000000000000000000000000000097
:105910000000000000000000000000000000000087
:105920000000000000000000000000000000000077
:105930000000000000000000000000000000000067
:105940000000000000000000000000000000000057
:105950000000000007FFC007E7F00000F00000783B
:1059600000007800FFF807FFF80F00781E00781E8F
:1059700000781E03F80FFFF807FC78000000000015
:105980000000000000000000000000000000000017
:105990000000000000000000000000000000000007
:1059A00000001E00001E00001E00001E00001E0061
:1059B000001E00001E7FE01EFFF01FC0781F007851
:1059C0001E003C1E003C1E003C1E003C1E00381EFB
:1059D00000781E00F01FFFE007FF0000000000003D
:1059E00000000000000000000000000000000000B7
:1059F00000000000000000000000000000000000A7
:105A00000000000000000000000000000000000096
:105A10000000000000FFF003FFF007C0000F80004F
:105A20000F00001E00001E00001E00000F00000FEF
:105A3000800007C00003FFF000FFF000000000003E
:105A40000000000000000000000000000000000056
:105A50000000000000000000000000000000000046
:105A60000000000078000078000078000078000056
:105A70007800007801FFF807FFF80F00781E007823
:105A80001E00783C00783C00783C00781C00781EB2
:105A900001F81F03F80FFF7803FC780000000000F6
:105AA00000000000000000000000000000000000F6
:105AB00000000000000000000000000000000000E6
:105AC00000000000000000000000000000000000D6
:105AD0000000000001FFC007E3F00F00F81E00788F
